{
  "transactions": [
    {
      "hash": "0x6e38cd81309e9b346b92876c7e7e375a9f489e992a3f2b238b6ecd01a6d44be9",
      "transactionType": "CALL",
      "contractName": null,
      "contractAddress": "0xe885e8b5855ae72b28e26c02b5c8d3d66be4c7e8",
      "function": "execTransaction(address,uint256,bytes,uint8,uint256,uint256,uint256,address,address,bytes)",
      "arguments": [
        "0x222afF0377468B4d88a44C70669AaFD968faC6c4",
        "0",
        "0x095ea7b300000000000000000000000062ba28fc85dba80b1858e5b37134991ce90ae5a80000000000000000000000000000000000000000000000008ac7230489e80000",
        "0",
        "0",
        "0",
        "0",
        "0x0000000000000000000000000000000000000000",
        "0x0000000000000000000000000000000000000000",
        "0x3b3d44ee3636d7e3e2ff86b30ff3a18d7ac0a936d63539467c26bc968d403dfc0a9849be9b638dfc214cff2d534180cf13780922b72a7eafa824b5078f6ecdfd1cc4a1c159e7a3d84e0cb0e1747e77a00de7fcf822e179cae489f02509b614e4ea3e5183f8e3b6e8827d22080ce9fd028ca9ba845936d7b4072634cd308d2efe741b"
      ],
      "transaction": {
        "from": "0xe2bc073e0d55274dba18a0e11463a5dfd16c5057",
        "to": "0xe885e8b5855ae72b28e26c02b5c8d3d66be4c7e8",
        "gas": "0x18e4e",
        "value": "0x0",
        "input": "0x6a761202000000000000000000000000222aff0377468b4d88a44c70669aafd968fac6c40000000000000000000000000000000000000000000000000000000000000000000000000000000000000000000000000000000000000000000000000000014000000000000000000000000000000000000000000000000000000000000000000000000000000000000000000000000000000000000000000000000000000000000000000000000000000000000000000000000000000000000000000000000000000000000000000000000000000000000000000000000000000000000000000000000000000000000000000000000000000000000000000000000000000000000000000000000000000000000000000000000000000000000000000000000000000000000000000000000000000000000000000000000000000000000001c00000000000000000000000000000000000000000000000000000000000000044095ea7b300000000000000000000000062ba28fc85dba80b1858e5b37134991ce90ae5a80000000000000000000000000000000000000000000000008ac7230489e800000000000000000000000000000000000000000000000000000000000000000000000000000000000000000000000000000000000000000000000000823b3d44ee3636d7e3e2ff86b30ff3a18d7ac0a936d63539467c26bc968d403dfc0a9849be9b638dfc214cff2d534180cf13780922b72a7eafa824b5078f6ecdfd1cc4a1c159e7a3d84e0cb0e1747e77a00de7fcf822e179cae489f02509b614e4ea3e5183f8e3b6e8827d22080ce9fd028ca9ba845936d7b4072634cd308d2efe741b000000000000000000000000000000000000000000000000000000000000",
        "nonce": "0x1d5c",
        "chainId": "0x66eee"
      },
      "additionalContracts": [],
      "isFixedGasLimit": false
    }
  ],
  "receipts": [
    {
      "status": "0x1",
      "cumulativeGasUsed": "0x12ee9",
      "logs": [
        {
          "address": "0x222aff0377468b4d88a44c70669aafd968fac6c4",
          "topics": [
            "0x8c5be1e5ebec7d5bd14f71427d1e84f3dd0314c0f7b2291e5b200ac8c7c3b925",
            "0x000000000000000000000000e885e8b5855ae72b28e26c02b5c8d3d66be4c7e8",
            "0x00000000000000000000000062ba28fc85dba80b1858e5b37134991ce90ae5a8"
          ],
          "data": "0x0000000000000000000000000000000000000000000000008ac7230489e80000",
          "blockHash": "0xc1aef229177e396d29e078ac34da5331a1b539a966b5bad71dc712263cec739d",
          "blockNumber": "0x75d6740",
          "transactionHash": "0x6e38cd81309e9b346b92876c7e7e375a9f489e992a3f2b238b6ecd01a6d44be9",
          "transactionIndex": "0x1",
          "logIndex": "0x0",
          "removed": false
        },
        {
          "address": "0xe885e8b5855ae72b28e26c02b5c8d3d66be4c7e8",
          "topics": [
            "0x442e715f626346e8c54381002da614f62bee8d27386535b2521ec8540898556e",
            "0x1d79116a60dd9ed66187c5593b7e2d323f6c0294062fe6d60e11b0d0f90c83a2"
          ],
          "data": "0x0000000000000000000000000000000000000000000000000000000000000000",
          "blockHash": "0xc1aef229177e396d29e078ac34da5331a1b539a966b5bad71dc712263cec739d",
          "blockNumber": "0x75d6740",
          "transactionHash": "0x6e38cd81309e9b346b92876c7e7e375a9f489e992a3f2b238b6ecd01a6d44be9",
          "transactionIndex": "0x1",
          "logIndex": "0x1",
          "removed": false
        }
      ],
      "logsBloom": "0x00000000400000000000000000000008000000000000000000000000040000000000000000000000000000000000000000000000000000000000001000200000000000000000000010000000000000000000000000040000000000000000000000000000000000000000002000000000000000000008000100000000000000000000000010000000000000000000000000010000000000800000000000000000020000000000100000000000000004000000000000000000000000000000000000000000000000000000000000000000000000000000000000000000000000000018000800000000000000000000000010000000000000000000000040000000",
      "type": "0x2",
      "transactionHash": "0x6e38cd81309e9b346b92876c7e7e375a9f489e992a3f2b238b6ecd01a6d44be9",
      "transactionIndex": "0x1",
      "blockHash": "0xc1aef229177e396d29e078ac34da5331a1b539a966b5bad71dc712263cec739d",
      "blockNumber": "0x75d6740",
      "gasUsed": "0x12ee9",
      "effectiveGasPrice": "0x5f5e100",
      "from": "0xe2bc073e0d55274dba18a0e11463a5dfd16c5057",
      "to": "0xe885e8b5855ae72b28e26c02b5c8d3d66be4c7e8",
      "contractAddress": null,
      "gasUsedForL1": "0x0",
      "l1BlockNumber": "0x75801d"
    }
  ],
  "libraries": [],
  "pending": [],
  "returns": {},
  "timestamp": 1739468527,
  "chain": 421614,
  "commit": "a2768b5"
}