{
  "transactions": [
    {
      "hash": "0x3a3bf848f2d12a957c1a436e487f0d222bd0d0fd702bb0aefefe483e02f360e8",
      "transactionType": "CALL",
      "contractName": null,
      "contractAddress": "0xe885e8b5855ae72b28e26c02b5c8d3d66be4c7e8",
      "function": "execTransaction(address,uint256,bytes,uint8,uint256,uint256,uint256,address,address,bytes)",
      "arguments": [
        "0x222afF0377468B4d88a44C70669AaFD968faC6c4",
        "0",
        "0x095ea7b300000000000000000000000062ba28fc85dba80b1858e5b37134991ce90ae5a80000000000000000000000000000000000000000000000008ac7230489e80000",
        "0",
        "0",
        "0",
        "0",
        "0x0000000000000000000000000000000000000000",
        "0x0000000000000000000000000000000000000000",
        "0xb1457086b63a91883e482eac12e104306bdab8be170bbe8a51ad128f1cc2c39362e2641fe2f98e7762267ced1c5cff668374bbef4ae1160ac8173c0403922a821ccd2f3b9585591485f43a7667d4dc05e42dd2422911c9f18a3705866df029e0cd29326422bcb16a3dcc6a3d67d848eeb3f2c654a15882f6da274c0beb3e32dfe11b"
      ],
      "transaction": {
        "from": "0xe2bc073e0d55274dba18a0e11463a5dfd16c5057",
        "to": "0xe885e8b5855ae72b28e26c02b5c8d3d66be4c7e8",
        "gas": "0x1f8b1",
        "value": "0x0",
        "input": "0x6a761202000000000000000000000000222aff0377468b4d88a44c70669aafd968fac6c40000000000000000000000000000000000000000000000000000000000000000000000000000000000000000000000000000000000000000000000000000014000000000000000000000000000000000000000000000000000000000000000000000000000000000000000000000000000000000000000000000000000000000000000000000000000000000000000000000000000000000000000000000000000000000000000000000000000000000000000000000000000000000000000000000000000000000000000000000000000000000000000000000000000000000000000000000000000000000000000000000000000000000000000000000000000000000000000000000000000000000000000000000000000000000000001c00000000000000000000000000000000000000000000000000000000000000044095ea7b300000000000000000000000062ba28fc85dba80b1858e5b37134991ce90ae5a80000000000000000000000000000000000000000000000008ac7230489e80000000000000000000000000000000000000000000000000000000000000000000000000000000000000000000000000000000000000000000000000082b1457086b63a91883e482eac12e104306bdab8be170bbe8a51ad128f1cc2c39362e2641fe2f98e7762267ced1c5cff668374bbef4ae1160ac8173c0403922a821ccd2f3b9585591485f43a7667d4dc05e42dd2422911c9f18a3705866df029e0cd29326422bcb16a3dcc6a3d67d848eeb3f2c654a15882f6da274c0beb3e32dfe11b000000000000000000000000000000000000000000000000000000000000",
        "nonce": "0x1d51",
        "chainId": "0x66eee"
      },
      "additionalContracts": [],
      "isFixedGasLimit": false
    }
  ],
  "receipts": [
    {
      "status": "0x1",
      "cumulativeGasUsed": "0xf4daa",
      "logs": [
        {
          "address": "0x222aff0377468b4d88a44c70669aafd968fac6c4",
          "topics": [
            "0x8c5be1e5ebec7d5bd14f71427d1e84f3dd0314c0f7b2291e5b200ac8c7c3b925",
            "0x000000000000000000000000e885e8b5855ae72b28e26c02b5c8d3d66be4c7e8",
            "0x00000000000000000000000062ba28fc85dba80b1858e5b37134991ce90ae5a8"
          ],
          "data": "0x0000000000000000000000000000000000000000000000008ac7230489e80000",
          "blockHash": "0xd65bc125aa404f7cdb9e015c36b35fc87ace2ff25e6b279ffd8bd59df840e4dd",
          "blockNumber": "0x75d64f6",
          "transactionHash": "0x3a3bf848f2d12a957c1a436e487f0d222bd0d0fd702bb0aefefe483e02f360e8",
          "transactionIndex": "0x2",
          "logIndex": "0x11",
          "removed": false
        },
        {
          "address": "0xe885e8b5855ae72b28e26c02b5c8d3d66be4c7e8",
          "topics": [
            "0x442e715f626346e8c54381002da614f62bee8d27386535b2521ec8540898556e",
            "0x13815eb245333021ca0ccab8340c422bc6367d79065b6b2fa728b09485f8628b"
          ],
          "data": "0x0000000000000000000000000000000000000000000000000000000000000000",
          "blockHash": "0xd65bc125aa404f7cdb9e015c36b35fc87ace2ff25e6b279ffd8bd59df840e4dd",
          "blockNumber": "0x75d64f6",
          "transactionHash": "0x3a3bf848f2d12a957c1a436e487f0d222bd0d0fd702bb0aefefe483e02f360e8",
          "transactionIndex": "0x2",
          "logIndex": "0x12",
          "removed": false
        }
      ],
      "logsBloom": "0x00000000400000000000000000000008000000000000000000000000040000000000000000000000000000000000020000000000000000000000001000200000000000000000000010000000000000000000000000000000000000000000000000000000000000000000002000000000000000000008000100000004000000000000000000000000000000000000000000000000000000800000000000004000020000000000100000000000000004000000000000000000000000000000000000000000000000000000000000000000000000000000000000000000000000000018000800000000000000000000000010000000000000000000000040000000",
      "type": "0x2",
      "transactionHash": "0x3a3bf848f2d12a957c1a436e487f0d222bd0d0fd702bb0aefefe483e02f360e8",
      "transactionIndex": "0x2",
      "blockHash": "0xd65bc125aa404f7cdb9e015c36b35fc87ace2ff25e6b279ffd8bd59df840e4dd",
      "blockNumber": "0x75d64f6",
      "gasUsed": "0x17ca5",
      "effectiveGasPrice": "0x5f5e100",
      "from": "0xe2bc073e0d55274dba18a0e11463a5dfd16c5057",
      "to": "0xe885e8b5855ae72b28e26c02b5c8d3d66be4c7e8",
      "contractAddress": null,
      "gasUsedForL1": "0x0",
      "l1BlockNumber": "0x75800e"
    }
  ],
  "libraries": [],
  "pending": [],
  "returns": {},
  "timestamp": 1739468343,
  "chain": 421614,
  "commit": "a2768b5"
}