{
  "transactions": [
    {
      "hash": "0xf22f7ef324784dbc71ea0a3df2871efac639343036eb70d81eb2f70fdb04ad18",
      "transactionType": "CALL",
      "contractName": null,
      "contractAddress": "0xe885e8b5855ae72b28e26c02b5c8d3d66be4c7e8",
      "function": "execTransaction(address,uint256,bytes,uint8,uint256,uint256,uint256,address,address,bytes)",
      "arguments": [
        "0x222afF0377468B4d88a44C70669AaFD968faC6c4",
        "0",
        "0x095ea7b300000000000000000000000062ba28fc85dba80b1858e5b37134991ce90ae5a80000000000000000000000000000000000000000000000008ac7230489e80000",
        "0",
        "0",
        "0",
        "0",
        "0x0000000000000000000000000000000000000000",
        "0x0000000000000000000000000000000000000000",
        "0x89b8ec1faac3351dbeeda6852fae4f2612cf7a23aa5625a9069314626b693a7709e6713c5b002490ebff41efb42057617d0d2b58ff781d3caaa01589d98d46b01c40b594a0188c180cfa30848bc7ef37ca78a17b8d7be7c8e6a63ab9a9f4c5e7cf6a886f2ea1af404bd3ff504d12411a67d6c7546efd79f6fbbc0d85535e46afd71c"
      ],
      "transaction": {
        "from": "0xe2bc073e0d55274dba18a0e11463a5dfd16c5057",
        "to": "0xe885e8b5855ae72b28e26c02b5c8d3d66be4c7e8",
        "gas": "0x18e3f",
        "value": "0x0",
        "input": "0x6a761202000000000000000000000000222aff0377468b4d88a44c70669aafd968fac6c40000000000000000000000000000000000000000000000000000000000000000000000000000000000000000000000000000000000000000000000000000014000000000000000000000000000000000000000000000000000000000000000000000000000000000000000000000000000000000000000000000000000000000000000000000000000000000000000000000000000000000000000000000000000000000000000000000000000000000000000000000000000000000000000000000000000000000000000000000000000000000000000000000000000000000000000000000000000000000000000000000000000000000000000000000000000000000000000000000000000000000000000000000000000000000000001c00000000000000000000000000000000000000000000000000000000000000044095ea7b300000000000000000000000062ba28fc85dba80b1858e5b37134991ce90ae5a80000000000000000000000000000000000000000000000008ac7230489e8000000000000000000000000000000000000000000000000000000000000000000000000000000000000000000000000000000000000000000000000008289b8ec1faac3351dbeeda6852fae4f2612cf7a23aa5625a9069314626b693a7709e6713c5b002490ebff41efb42057617d0d2b58ff781d3caaa01589d98d46b01c40b594a0188c180cfa30848bc7ef37ca78a17b8d7be7c8e6a63ab9a9f4c5e7cf6a886f2ea1af404bd3ff504d12411a67d6c7546efd79f6fbbc0d85535e46afd71c000000000000000000000000000000000000000000000000000000000000",
        "nonce": "0x1d52",
        "chainId": "0x66eee"
      },
      "additionalContracts": [],
      "isFixedGasLimit": false
    }
  ],
  "receipts": [
    {
      "status": "0x1",
      "cumulativeGasUsed": "0x12edd",
      "logs": [
        {
          "address": "0x222aff0377468b4d88a44c70669aafd968fac6c4",
          "topics": [
            "0x8c5be1e5ebec7d5bd14f71427d1e84f3dd0314c0f7b2291e5b200ac8c7c3b925",
            "0x000000000000000000000000e885e8b5855ae72b28e26c02b5c8d3d66be4c7e8",
            "0x00000000000000000000000062ba28fc85dba80b1858e5b37134991ce90ae5a8"
          ],
          "data": "0x0000000000000000000000000000000000000000000000008ac7230489e80000",
          "blockHash": "0x16c1ddf5ac0834ebfa1501d925177f5f4b8268b9a8985cb5ea49ca69824bcbda",
          "blockNumber": "0x75d65c1",
          "transactionHash": "0xf22f7ef324784dbc71ea0a3df2871efac639343036eb70d81eb2f70fdb04ad18",
          "transactionIndex": "0x1",
          "logIndex": "0x0",
          "removed": false
        },
        {
          "address": "0xe885e8b5855ae72b28e26c02b5c8d3d66be4c7e8",
          "topics": [
            "0x442e715f626346e8c54381002da614f62bee8d27386535b2521ec8540898556e",
            "0x019c56d80090780fcb4d6b763b389c0dc366cd00413783847846ff6d30a0714a"
          ],
          "data": "0x0000000000000000000000000000000000000000000000000000000000000000",
          "blockHash": "0x16c1ddf5ac0834ebfa1501d925177f5f4b8268b9a8985cb5ea49ca69824bcbda",
          "blockNumber": "0x75d65c1",
          "transactionHash": "0xf22f7ef324784dbc71ea0a3df2871efac639343036eb70d81eb2f70fdb04ad18",
          "transactionIndex": "0x1",
          "logIndex": "0x1",
          "removed": false
        }
      ],
      "logsBloom": "0x00000000400000000000000000000008000000000000000000000000040000000000000000000000000000000000000000000000000000000000001000200000000002000000000010002000000000000000000000000000000000000000000000000000000000000000002000000000000000000008000100000000000000000000000000000000000000000000000000000000000000800000000000000000020000000000100000000000000004000000000000000000000000000000020000000000000000000000000000000000000000000000000000000000000000000018000800000000000000000000000010000000000000000000000040000000",
      "type": "0x2",
      "transactionHash": "0xf22f7ef324784dbc71ea0a3df2871efac639343036eb70d81eb2f70fdb04ad18",
      "transactionIndex": "0x1",
      "blockHash": "0x16c1ddf5ac0834ebfa1501d925177f5f4b8268b9a8985cb5ea49ca69824bcbda",
      "blockNumber": "0x75d65c1",
      "gasUsed": "0x12edd",
      "effectiveGasPrice": "0x5f5e100",
      "from": "0xe2bc073e0d55274dba18a0e11463a5dfd16c5057",
      "to": "0xe885e8b5855ae72b28e26c02b5c8d3d66be4c7e8",
      "contractAddress": null,
      "gasUsedForL1": "0x0",
      "l1BlockNumber": "0x758013"
    }
  ],
  "libraries": [],
  "pending": [],
  "returns": {},
  "timestamp": 1739468406,
  "chain": 421614,
  "commit": "a2768b5"
}