{
  "transactions": [
    {
      "hash": "0xcf1f83ef727dd72bf2eab2116d65128c341e52b4ec72f584c8fa859654c3a3fc",
      "transactionType": "CALL",
      "contractName": null,
      "contractAddress": "0x173a1b969f405cbb24eb4cf8eff105b351bc8535",
      "function": "updateServiceManager(address)",
      "arguments": [
        "0xe2Bc073E0d55274DBa18A0E11463A5DfD16c5057"
      ],
      "transaction": {
        "from": "0xe2bc073e0d55274dba18a0e11463a5dfd16c5057",
        "to": "0x173a1b969f405cbb24eb4cf8eff105b351bc8535",
        "gas": "0x8a95",
        "value": "0x0",
        "input": "0x7d847d1b000000000000000000000000e2bc073e0d55274dba18a0e11463a5dfd16c5057",
        "nonce": "0x1d9d",
        "chainId": "0x66eee"
      },
      "additionalContracts": [],
      "isFixedGasLimit": false
    },
    {
      "hash": "0xbfecff5567074a5acbc8e4b7f6e5be6bb167683000096aa17ebb34eff4afab64",
      "transactionType": "CALL",
      "contractName": null,
      "contractAddress": "0x173a1b969f405cbb24eb4cf8eff105b351bc8535",
      "function": "allowFunction(address,bytes4)",
      "arguments": [
        "0x0613f150909842EDEb93DBd8988f331416D0137e",
        "0x6a761202"
      ],
      "transaction": {
        "from": "0xe2bc073e0d55274dba18a0e11463a5dfd16c5057",
        "to": "0x173a1b969f405cbb24eb4cf8eff105b351bc8535",
        "gas": "0x11fe3",
        "value": "0x0",
        "input": "0x60cff9b50000000000000000000000000613f150909842edeb93dbd8988f331416d0137e6a76120200000000000000000000000000000000000000000000000000000000",
        "nonce": "0x1d9e",
        "chainId": "0x66eee"
      },
      "additionalContracts": [],
      "isFixedGasLimit": false
    },
    {
      "hash": "0x5302c68aec13981907054748ef94f8e87c89d38894317c0fc317044b5cd3430e",
      "transactionType": "CALL",
      "contractName": null,
      "contractAddress": "0x173a1b969f405cbb24eb4cf8eff105b351bc8535",
      "function": "allowFunction(address,bytes4)",
      "arguments": [
        "0x0613f150909842EDEb93DBd8988f331416D0137e",
        "0xe19a9dd9"
      ],
      "transaction": {
        "from": "0xe2bc073e0d55274dba18a0e11463a5dfd16c5057",
        "to": "0x173a1b969f405cbb24eb4cf8eff105b351bc8535",
        "gas": "0x11fe3",
        "value": "0x0",
        "input": "0x60cff9b50000000000000000000000000613f150909842edeb93dbd8988f331416d0137ee19a9dd900000000000000000000000000000000000000000000000000000000",
        "nonce": "0x1d9f",
        "chainId": "0x66eee"
      },
      "additionalContracts": [],
      "isFixedGasLimit": false
    },
    {
      "hash": "0x000e06acb32119606bd102980cbcd3fcd1a8af4d7e1ba72bc425ec031a846bce",
      "transactionType": "CALL",
      "contractName": null,
      "contractAddress": "0x173a1b969f405cbb24eb4cf8eff105b351bc8535",
      "function": "allowFunction(address,bytes4)",
      "arguments": [
        "0x173a1B969F405Cbb24eB4cF8eFF105B351bC8535",
        "0x60cff9b5"
      ],
      "transaction": {
        "from": "0xe2bc073e0d55274dba18a0e11463a5dfd16c5057",
        "to": "0x173a1b969f405cbb24eb4cf8eff105b351bc8535",
        "gas": "0x11fe3",
        "value": "0x0",
        "input": "0x60cff9b5000000000000000000000000173a1b969f405cbb24eb4cf8eff105b351bc853560cff9b500000000000000000000000000000000000000000000000000000000",
        "nonce": "0x1da0",
        "chainId": "0x66eee"
      },
      "additionalContracts": [],
      "isFixedGasLimit": false
    },
    {
      "hash": "0x79fb5a1a24eb12823be75763044fc4fa43588241deafcd01bf4513e3d91cc66a",
      "transactionType": "CALL",
      "contractName": null,
      "contractAddress": "0x173a1b969f405cbb24eb4cf8eff105b351bc8535",
      "function": "allowFunction(address,bytes4)",
      "arguments": [
        "0x62BA28fc85Dba80b1858E5B37134991CE90ae5A8",
        "0x338b5dea"
      ],
      "transaction": {
        "from": "0xe2bc073e0d55274dba18a0e11463a5dfd16c5057",
        "to": "0x173a1b969f405cbb24eb4cf8eff105b351bc8535",
        "gas": "0x11fe3",
        "value": "0x0",
        "input": "0x60cff9b500000000000000000000000062ba28fc85dba80b1858e5b37134991ce90ae5a8338b5dea00000000000000000000000000000000000000000000000000000000",
        "nonce": "0x1da1",
        "chainId": "0x66eee"
      },
      "additionalContracts": [],
      "isFixedGasLimit": false
    },
    {
      "hash": "0xfee8d1b24773554462bba3d9f4461ccfc1fd72594e0750685117ed1cf805dfea",
      "transactionType": "CALL",
      "contractName": null,
      "contractAddress": "0x173a1b969f405cbb24eb4cf8eff105b351bc8535",
      "function": "allowFunction(address,bytes4)",
      "arguments": [
        "0x222afF0377468B4d88a44C70669AaFD968faC6c4",
        "0xa9059cbb"
      ],
      "transaction": {
        "from": "0xe2bc073e0d55274dba18a0e11463a5dfd16c5057",
        "to": "0x173a1b969f405cbb24eb4cf8eff105b351bc8535",
        "gas": "0x11fe3",
        "value": "0x0",
        "input": "0x60cff9b5000000000000000000000000222aff0377468b4d88a44c70669aafd968fac6c4a9059cbb00000000000000000000000000000000000000000000000000000000",
        "nonce": "0x1da2",
        "chainId": "0x66eee"
      },
      "additionalContracts": [],
      "isFixedGasLimit": false
    },
    {
      "hash": "0x04ebccaea4d2878c811760a9577f706b6d1f650854849d85b0a5bab1ca5418e8",
      "transactionType": "CALL",
      "contractName": null,
      "contractAddress": "0x173a1b969f405cbb24eb4cf8eff105b351bc8535",
      "function": "allowFunction(address,bytes4)",
      "arguments": [
        "0x222afF0377468B4d88a44C70669AaFD968faC6c4",
        "0x095ea7b3"
      ],
      "transaction": {
        "from": "0xe2bc073e0d55274dba18a0e11463a5dfd16c5057",
        "to": "0x173a1b969f405cbb24eb4cf8eff105b351bc8535",
        "gas": "0x11fe3",
        "value": "0x0",
        "input": "0x60cff9b5000000000000000000000000222aff0377468b4d88a44c70669aafd968fac6c4095ea7b300000000000000000000000000000000000000000000000000000000",
        "nonce": "0x1da3",
        "chainId": "0x66eee"
      },
      "additionalContracts": [],
      "isFixedGasLimit": false
    },
    {
      "hash": "0x18b5ad271125feb5915d4e91c1d49f6672d11a1a8922bc94783bed80bbd38cb8",
      "transactionType": "CALL",
      "contractName": null,
      "contractAddress": "0x173a1b969f405cbb24eb4cf8eff105b351bc8535",
      "function": "updateServiceManager(address)",
      "arguments": [
        "0x7A2CedB6423F8AB821aF4D7783459676078b511c"
      ],
      "transaction": {
        "from": "0xe2bc073e0d55274dba18a0e11463a5dfd16c5057",
        "to": "0x173a1b969f405cbb24eb4cf8eff105b351bc8535",
        "gas": "0x86b2",
        "value": "0x0",
        "input": "0x7d847d1b0000000000000000000000007a2cedb6423f8ab821af4d7783459676078b511c",
        "nonce": "0x1da4",
        "chainId": "0x66eee"
      },
      "additionalContracts": [],
      "isFixedGasLimit": false
    },
    {
      "hash": "0xf94e7fa0cdb5af7f7422a4749b4b0f511870f7dd7786527b65490775e1c8d098",
      "transactionType": "CALL",
      "contractName": null,
      "contractAddress": "0x0613f150909842edeb93dbd8988f331416d0137e",
      "function": "execTransaction(address,uint256,bytes,uint8,uint256,uint256,uint256,address,address,bytes)",
      "arguments": [
        "0x0613f150909842EDEb93DBd8988f331416D0137e",
        "0",
        "0xe19a9dd9000000000000000000000000173a1b969f405cbb24eb4cf8eff105b351bc8535",
        "0",
        "0",
        "0",
        "0",
        "0x0000000000000000000000000000000000000000",
        "0x0000000000000000000000000000000000000000",
        "0xf7d4453fb9d7ebdf1594319bfee48e8a6212f4a2f9bc1cdca5bcbbeea96b02982329765db6c42ded4a8ad2731d293ec4c584a1c756cbcb5d3d8c3dd6521dbaf51c889f88407b48f61ef33ef714484ffceff7ea76128a1db7c8c4bb7cb5439febd1127420c33462f614e128a7b0364749ddb3b0eeaba0a9bede9c1d423cc40a25f31b"
      ],
      "transaction": {
        "from": "0xe2bc073e0d55274dba18a0e11463a5dfd16c5057",
        "to": "0x0613f150909842edeb93dbd8988f331416d0137e",
        "gas": "0x2004b",
        "value": "0x0",
        "input": "0x6a7612020000000000000000000000000613f150909842edeb93dbd8988f331416d0137e0000000000000000000000000000000000000000000000000000000000000000000000000000000000000000000000000000000000000000000000000000014000000000000000000000000000000000000000000000000000000000000000000000000000000000000000000000000000000000000000000000000000000000000000000000000000000000000000000000000000000000000000000000000000000000000000000000000000000000000000000000000000000000000000000000000000000000000000000000000000000000000000000000000000000000000000000000000000000000000000000000000000000000000000000000000000000000000000000000000000000000000000000000000000000000000001a00000000000000000000000000000000000000000000000000000000000000024e19a9dd9000000000000000000000000173a1b969f405cbb24eb4cf8eff105b351bc8535000000000000000000000000000000000000000000000000000000000000000000000000000000000000000000000000000000000000000000000082f7d4453fb9d7ebdf1594319bfee48e8a6212f4a2f9bc1cdca5bcbbeea96b02982329765db6c42ded4a8ad2731d293ec4c584a1c756cbcb5d3d8c3dd6521dbaf51c889f88407b48f61ef33ef714484ffceff7ea76128a1db7c8c4bb7cb5439febd1127420c33462f614e128a7b0364749ddb3b0eeaba0a9bede9c1d423cc40a25f31b000000000000000000000000000000000000000000000000000000000000",
        "nonce": "0x1da5",
        "chainId": "0x66eee"
      },
      "additionalContracts": [],
      "isFixedGasLimit": false
    }
  ],
  "receipts": [
    {
      "status": "0x1",
      "cumulativeGasUsed": "0x6942",
      "logs": [],
      "logsBloom": "0x00000000000000000000000000000000000000000000000000000000000000000000000000000000000000000000000000000000000000000000000000000000000000000000000000000000000000000000000000000000000000000000000000000000000000000000000000000000000000000000000000000000000000000000000000000000000000000000000000000000000000000000000000000000000000000000000000000000000000000000000000000000000000000000000000000000000000000000000000000000000000000000000000000000000000000000000000000000000000000000000000000000000000000000000000000000",
      "type": "0x2",
      "transactionHash": "0xcf1f83ef727dd72bf2eab2116d65128c341e52b4ec72f584c8fa859654c3a3fc",
      "transactionIndex": "0x1",
      "blockHash": "0x8d3a005b16a6bb37b70f46cf48f19b0ef0b55ca859dafd93c8a54ec4fdd1a755",
      "blockNumber": "0x75e69b6",
      "gasUsed": "0x6942",
      "effectiveGasPrice": "0x5f5e100",
      "from": "0xe2bc073e0d55274dba18a0e11463a5dfd16c5057",
      "to": "0x173a1b969f405cbb24eb4cf8eff105b351bc8535",
      "contractAddress": null,
      "gasUsedForL1": "0x0",
      "l1BlockNumber": "0x7586af"
    },
    {
      "status": "0x1",
      "cumulativeGasUsed": "0xc4d9",
      "logs": [
        {
          "address": "0x173a1b969f405cbb24eb4cf8eff105b351bc8535",
          "topics": [
            "0x8b9ed51018e2194e0c99cb3dd5a611c44d2eacf3d5ea3d2ab993857c58ff5cfe",
            "0x0000000000000000000000000613f150909842edeb93dbd8988f331416d0137e",
            "0x6a76120200000000000000000000000000000000000000000000000000000000"
          ],
          "data": "0x",
          "blockHash": "0x614651257fc8f518bdbfceea48ab0c856cd5b7d52f7e54690cabd0fd6c5ae5fa",
          "blockNumber": "0x75e69bb",
          "transactionHash": "0xbfecff5567074a5acbc8e4b7f6e5be6bb167683000096aa17ebb34eff4afab64",
          "transactionIndex": "0x1",
          "logIndex": "0x0",
          "removed": false
        }
      ],
      "logsBloom": "0x00000000000000000000000000000000001000000000000000000000000000000000000000000000000000000000000000000000000000000000000000000000000008000000004000000000000000000000000000000000000000000000000000040000000000000000010080000000000000001000000100000000000000000000000000000000000000000000000000000010000000000000000000000000000000000000000000000000000002000000000000000000000000000000000000000000000000000000000000000000000000000000000000000000000000000000000000000000000000000008002000000000000000000000000000000000",
      "type": "0x2",
      "transactionHash": "0xbfecff5567074a5acbc8e4b7f6e5be6bb167683000096aa17ebb34eff4afab64",
      "transactionIndex": "0x1",
      "blockHash": "0x614651257fc8f518bdbfceea48ab0c856cd5b7d52f7e54690cabd0fd6c5ae5fa",
      "blockNumber": "0x75e69bb",
      "gasUsed": "0xc4d9",
      "effectiveGasPrice": "0x5f5e100",
      "from": "0xe2bc073e0d55274dba18a0e11463a5dfd16c5057",
      "to": "0x173a1b969f405cbb24eb4cf8eff105b351bc8535",
      "contractAddress": null,
      "gasUsedForL1": "0x0",
      "l1BlockNumber": "0x7586af"
    },
    {
      "status": "0x1",
      "cumulativeGasUsed": "0xc4d9",
      "logs": [
        {
          "address": "0x173a1b969f405cbb24eb4cf8eff105b351bc8535",
          "topics": [
            "0x8b9ed51018e2194e0c99cb3dd5a611c44d2eacf3d5ea3d2ab993857c58ff5cfe",
            "0x0000000000000000000000000613f150909842edeb93dbd8988f331416d0137e",
            "0xe19a9dd900000000000000000000000000000000000000000000000000000000"
          ],
          "data": "0x",
          "blockHash": "0x77a5e59ddbb0f117062ddfa4982a8902f9c0fb61650d3b42fd230ff85ff3974f",
          "blockNumber": "0x75e69c0",
          "transactionHash": "0x5302c68aec13981907054748ef94f8e87c89d38894317c0fc317044b5cd3430e",
          "transactionIndex": "0x1",
          "logIndex": "0x0",
          "removed": false
        }
      ],
      "logsBloom": "0x00000000000000000000000000000000001000000000000000000000000000000000000000000000000000000000000000000000000000000000000000000000000008000000004000000000000000000000000000008000000000000000000000042000000000000000000000000000000000001000000100000000000000000000000000000000004000000000000000000000000000000000000000000000000000000000000000000000000002000000000000000000000000000000000000000000000000000000000000000000000000000000000000000000000000000000000000000000000000000008002000000000000000000000000000000000",
      "type": "0x2",
      "transactionHash": "0x5302c68aec13981907054748ef94f8e87c89d38894317c0fc317044b5cd3430e",
      "transactionIndex": "0x1",
      "blockHash": "0x77a5e59ddbb0f117062ddfa4982a8902f9c0fb61650d3b42fd230ff85ff3974f",
      "blockNumber": "0x75e69c0",
      "gasUsed": "0xc4d9",
      "effectiveGasPrice": "0x5f5e100",
      "from": "0xe2bc073e0d55274dba18a0e11463a5dfd16c5057",
      "to": "0x173a1b969f405cbb24eb4cf8eff105b351bc8535",
      "contractAddress": null,
      "gasUsedForL1": "0x0",
      "l1BlockNumber": "0x7586af"
    },
    {
      "status": "0x1",
      "cumulativeGasUsed": "0xc4d9",
      "logs": [
        {
          "address": "0x173a1b969f405cbb24eb4cf8eff105b351bc8535",
          "topics": [
            "0x8b9ed51018e2194e0c99cb3dd5a611c44d2eacf3d5ea3d2ab993857c58ff5cfe",
            "0x000000000000000000000000173a1b969f405cbb24eb4cf8eff105b351bc8535",
            "0x60cff9b500000000000000000000000000000000000000000000000000000000"
          ],
          "data": "0x",
          "blockHash": "0xa39095e74a3bad8d427fb3057928f2add85590c80eae5dc57395b53a9447102d",
          "blockNumber": "0x75e69c5",
          "transactionHash": "0x000e06acb32119606bd102980cbcd3fcd1a8af4d7e1ba72bc425ec031a846bce",
          "transactionIndex": "0x1",
          "logIndex": "0x0",
          "removed": false
        }
      ],
      "logsBloom": "0x00000000000000000000000000000000001000000000000000000000000000000000000000000000000000000000000000000000000000000000000000000000000000000000004000000000002000000000000000000000000000000000000000040000000000000000000000000000000000002000000100000000000000000000000000000000000000000000008000000000000000000040000000000000000000000000000000000000008002000000000000000000000000000000000000000000000000000000000000000000000000000000000000000000000000000000000000000000000000000008000000000000000000000000000000008000",
      "type": "0x2",
      "transactionHash": "0x000e06acb32119606bd102980cbcd3fcd1a8af4d7e1ba72bc425ec031a846bce",
      "transactionIndex": "0x1",
      "blockHash": "0xa39095e74a3bad8d427fb3057928f2add85590c80eae5dc57395b53a9447102d",
      "blockNumber": "0x75e69c5",
      "gasUsed": "0xc4d9",
      "effectiveGasPrice": "0x5f5e100",
      "from": "0xe2bc073e0d55274dba18a0e11463a5dfd16c5057",
      "to": "0x173a1b969f405cbb24eb4cf8eff105b351bc8535",
      "contractAddress": null,
      "gasUsedForL1": "0x0",
      "l1BlockNumber": "0x7586af"
    },
    {
      "status": "0x1",
      "cumulativeGasUsed": "0xc4d9",
      "logs": [
        {
          "address": "0x173a1b969f405cbb24eb4cf8eff105b351bc8535",
          "topics": [
            "0x8b9ed51018e2194e0c99cb3dd5a611c44d2eacf3d5ea3d2ab993857c58ff5cfe",
            "0x00000000000000000000000062ba28fc85dba80b1858e5b37134991ce90ae5a8",
            "0x338b5dea00000000000000000000000000000000000000000000000000000000"
          ],
          "data": "0x",
          "blockHash": "0x668ccc4cee6236b5fa09d7942564ca448ca85516b74b9d3a6d5fca61f68b801d",
          "blockNumber": "0x75e69c8",
          "transactionHash": "0x79fb5a1a24eb12823be75763044fc4fa43588241deafcd01bf4513e3d91cc66a",
          "transactionIndex": "0x1",
          "logIndex": "0x0",
          "removed": false
        }
      ],
      "logsBloom": "0x00000000000100000000000000000008001000000000000000000000000000000000000000000000000000000000000000000000000000000000001000000000000000000000004000000000000000000000000000000000000000000000000000040000000000000000000000000000000000000000000100000000000000000000000000004000000000000000000000000000000000000000000000008000000000000000000000000000000002000000000000000000000000000000000000000000000000000000000000000000000000000000000000000000000000000000000000000000000000000008000000000000000000000000000000000000",
      "type": "0x2",
      "transactionHash": "0x79fb5a1a24eb12823be75763044fc4fa43588241deafcd01bf4513e3d91cc66a",
      "transactionIndex": "0x1",
      "blockHash": "0x668ccc4cee6236b5fa09d7942564ca448ca85516b74b9d3a6d5fca61f68b801d",
      "blockNumber": "0x75e69c8",
      "gasUsed": "0xc4d9",
      "effectiveGasPrice": "0x5f5e100",
      "from": "0xe2bc073e0d55274dba18a0e11463a5dfd16c5057",
      "to": "0x173a1b969f405cbb24eb4cf8eff105b351bc8535",
      "contractAddress": null,
      "gasUsedForL1": "0x0",
      "l1BlockNumber": "0x7586af"
    },
    {
      "status": "0x1",
      "cumulativeGasUsed": "0xc4d9",
      "logs": [
        {
          "address": "0x173a1b969f405cbb24eb4cf8eff105b351bc8535",
          "topics": [
            "0x8b9ed51018e2194e0c99cb3dd5a611c44d2eacf3d5ea3d2ab993857c58ff5cfe",
            "0x000000000000000000000000222aff0377468b4d88a44c70669aafd968fac6c4",
            "0xa9059cbb00000000000000000000000000000000000000000000000000000000"
          ],
          "data": "0x",
          "blockHash": "0x55098147e2ea211e9cf76af1c5e820bfccb83edcdab103d9221924277dbd1be8",
          "blockNumber": "0x75e69cd",
          "transactionHash": "0xfee8d1b24773554462bba3d9f4461ccfc1fd72594e0750685117ed1cf805dfea",
          "transactionIndex": "0x1",
          "logIndex": "0x0",
          "removed": false
        }
      ],
      "logsBloom": "0x00000000000000000000000000000000001000000000000000000000000000000000000000000000000000000000000000000000000000000000000000000000000000000000004000104000000000000000000000000040040000000000000000040000000000000000000000000000000000000000000100000000000000000000000000000000000000000000000000000000000000100000000000000000000000000000000000000000000002000000000000000000000000000000000000000000000000000000000000000000000000000000000000000000000400000000000000000000000000000008000000000000000000000000000000000000",
      "type": "0x2",
      "transactionHash": "0xfee8d1b24773554462bba3d9f4461ccfc1fd72594e0750685117ed1cf805dfea",
      "transactionIndex": "0x1",
      "blockHash": "0x55098147e2ea211e9cf76af1c5e820bfccb83edcdab103d9221924277dbd1be8",
      "blockNumber": "0x75e69cd",
      "gasUsed": "0xc4d9",
      "effectiveGasPrice": "0x5f5e100",
      "from": "0xe2bc073e0d55274dba18a0e11463a5dfd16c5057",
      "to": "0x173a1b969f405cbb24eb4cf8eff105b351bc8535",
      "contractAddress": null,
      "gasUsedForL1": "0x0",
      "l1BlockNumber": "0x7586af"
    },
    {
      "status": "0x1",
      "cumulativeGasUsed": "0x25f52",
      "logs": [
        {
          "address": "0x173a1b969f405cbb24eb4cf8eff105b351bc8535",
          "topics": [
            "0x8b9ed51018e2194e0c99cb3dd5a611c44d2eacf3d5ea3d2ab993857c58ff5cfe",
            "0x000000000000000000000000222aff0377468b4d88a44c70669aafd968fac6c4",
            "0x095ea7b300000000000000000000000000000000000000000000000000000000"
          ],
          "data": "0x",
          "blockHash": "0x266f62e8c9cc2058aaff93ae93e00c94e12e279f3f2bc9ba236c996825d4c8de",
          "blockNumber": "0x75e69d1",
          "transactionHash": "0x04ebccaea4d2878c811760a9577f706b6d1f650854849d85b0a5bab1ca5418e8",
          "transactionIndex": "0x2",
          "logIndex": "0x3",
          "removed": false
        }
      ],
      "logsBloom": "0x00000000000000000000000000000000001000000000000000000000000000000000000000000000000000000400000000000000000000000008000000000000000000000000004000000000000000000000000000000040040000000000000000040000000000000000000000000000000000000000000100000000000000000000000000000000000000000000000000000000000000000000000000000000000000000000000000000000000002000000000000000000000000000000000000000008000000000000000000000000000000000000000000000000000400000000000000000000000000000008000000000000000000000000000000000000",
      "type": "0x2",
      "transactionHash": "0x04ebccaea4d2878c811760a9577f706b6d1f650854849d85b0a5bab1ca5418e8",
      "transactionIndex": "0x2",
      "blockHash": "0x266f62e8c9cc2058aaff93ae93e00c94e12e279f3f2bc9ba236c996825d4c8de",
      "blockNumber": "0x75e69d1",
      "gasUsed": "0xc4d9",
      "effectiveGasPrice": "0x5f5e100",
      "from": "0xe2bc073e0d55274dba18a0e11463a5dfd16c5057",
      "to": "0x173a1b969f405cbb24eb4cf8eff105b351bc8535",
      "contractAddress": null,
      "gasUsedForL1": "0x0",
      "l1BlockNumber": "0x7586af"
    },
    {
      "status": "0x1",
      "cumulativeGasUsed": "0x6942",
      "logs": [],
      "logsBloom": "0x00000000000000000000000000000000000000000000000000000000000000000000000000000000000000000000000000000000000000000000000000000000000000000000000000000000000000000000000000000000000000000000000000000000000000000000000000000000000000000000000000000000000000000000000000000000000000000000000000000000000000000000000000000000000000000000000000000000000000000000000000000000000000000000000000000000000000000000000000000000000000000000000000000000000000000000000000000000000000000000000000000000000000000000000000000000",
      "type": "0x2",
      "transactionHash": "0x18b5ad271125feb5915d4e91c1d49f6672d11a1a8922bc94783bed80bbd38cb8",
      "transactionIndex": "0x1",
      "blockHash": "0x734630125e8a4dfc7b7ef00d146998803dfbe49d4e94f44065116b378fea4cdb",
      "blockNumber": "0x75e69d5",
      "gasUsed": "0x6942",
      "effectiveGasPrice": "0x5f5e100",
      "from": "0xe2bc073e0d55274dba18a0e11463a5dfd16c5057",
      "to": "0x173a1b969f405cbb24eb4cf8eff105b351bc8535",
      "contractAddress": null,
      "gasUsedForL1": "0x0",
      "l1BlockNumber": "0x7586b0"
    },
    {
      "status": "0x1",
      "cumulativeGasUsed": "0x18273",
      "logs": [
        {
          "address": "0x0613f150909842edeb93dbd8988f331416d0137e",
          "topics": [
            "0x1151116914515bc0891ff9047a6cb32cf902546f83066499bcf8ba33d2353fa2",
            "0x000000000000000000000000173a1b969f405cbb24eb4cf8eff105b351bc8535"
          ],
          "data": "0x",
          "blockHash": "0x280687d6fa508db54ec638d6784ee2c2f7ae6e771b07cc2c2d7b60dc005c8e5c",
          "blockNumber": "0x75e69d9",
          "transactionHash": "0xf94e7fa0cdb5af7f7422a4749b4b0f511870f7dd7786527b65490775e1c8d098",
          "transactionIndex": "0x1",
          "logIndex": "0x0",
          "removed": false
        },
        {
          "address": "0x0613f150909842edeb93dbd8988f331416d0137e",
          "topics": [
            "0x442e715f626346e8c54381002da614f62bee8d27386535b2521ec8540898556e",
            "0xb228e5a256e7898f1033666132e6c3bba518766db7c159421fc124bb5361a608"
          ],
          "data": "0x0000000000000000000000000000000000000000000000000000000000000000",
          "blockHash": "0x280687d6fa508db54ec638d6784ee2c2f7ae6e771b07cc2c2d7b60dc005c8e5c",
          "blockNumber": "0x75e69d9",
          "transactionHash": "0xf94e7fa0cdb5af7f7422a4749b4b0f511870f7dd7786527b65490775e1c8d098",
          "transactionIndex": "0x1",
          "logIndex": "0x1",
          "removed": false
        }
      ],
      "logsBloom": "0x00000000400000000000000000000000000400000000000000004000040000000000000000000000000000000000000000000000000000000000000000000000000000000020000000000000002000000000000000000000000000000000000000000000000000000000000000000000000000002000000000000000000000000080020000000000000000000000000000000000000000000000000040000000000000000000800000000000008004000000000000000000000000000040000000000000000000000000000000000000000000000000000000000000000000000000000000000000002000000000000000000000000000000000000000000000",
      "type": "0x2",
      "transactionHash": "0xf94e7fa0cdb5af7f7422a4749b4b0f511870f7dd7786527b65490775e1c8d098",
      "transactionIndex": "0x1",
      "blockHash": "0x280687d6fa508db54ec638d6784ee2c2f7ae6e771b07cc2c2d7b60dc005c8e5c",
      "blockNumber": "0x75e69d9",
      "gasUsed": "0x18273",
      "effectiveGasPrice": "0x5f5e100",
      "from": "0xe2bc073e0d55274dba18a0e11463a5dfd16c5057",
      "to": "0x0613f150909842edeb93dbd8988f331416d0137e",
      "contractAddress": null,
      "gasUsedForL1": "0x0",
      "l1BlockNumber": "0x7586b0"
    }
  ],
  "libraries": [],
  "pending": [],
  "returns": {},
  "timestamp": 1739489352,
  "chain": 421614,
  "commit": "a2768b5"
}