{
  "transactions": [
    {
      "hash": "0xe689b081acd2bd0e7eab46267416f2fab3e2a7c32bafb9fc39217f8b2d43918c",
      "transactionType": "CALL",
      "contractName": null,
      "contractAddress": "0x62ba738e2085c901a90a65db28a27f949a135edc",
      "function": "updateServiceManager(address)",
      "arguments": [
        "0xe2Bc073E0d55274DBa18A0E11463A5DfD16c5057"
      ],
      "transaction": {
        "from": "0xe2bc073e0d55274dba18a0e11463a5dfd16c5057",
        "to": "0x62ba738e2085c901a90a65db28a27f949a135edc",
        "gas": "0x8a97",
        "value": "0x0",
        "input": "0x7d847d1b000000000000000000000000e2bc073e0d55274dba18a0e11463a5dfd16c5057",
        "nonce": "0x1d48",
        "chainId": "0x66eee"
      },
      "additionalContracts": [],
      "isFixedGasLimit": false
    },
    {
      "hash": "0x33fc75438bd88e09588dbbbc5b0f56d816bc90fb9d9908f8a3fb89af65ab802c",
      "transactionType": "CALL",
      "contractName": null,
      "contractAddress": "0x62ba738e2085c901a90a65db28a27f949a135edc",
      "function": "allowFunction(address,bytes4)",
      "arguments": [
        "0xE885e8B5855aE72b28E26C02b5c8D3d66bE4C7E8",
        "0x6a761202"
      ],
      "transaction": {
        "from": "0xe2bc073e0d55274dba18a0e11463a5dfd16c5057",
        "to": "0x62ba738e2085c901a90a65db28a27f949a135edc",
        "gas": "0x10fe8",
        "value": "0x0",
        "input": "0x60cff9b5000000000000000000000000e885e8b5855ae72b28e26c02b5c8d3d66be4c7e86a76120200000000000000000000000000000000000000000000000000000000",
        "nonce": "0x1d49",
        "chainId": "0x66eee"
      },
      "additionalContracts": [],
      "isFixedGasLimit": false
    },
    {
      "hash": "0x791dc27ae2e92889acf21555f230039903c75d95e84c86872a8675c5728c5beb",
      "transactionType": "CALL",
      "contractName": null,
      "contractAddress": "0x62ba738e2085c901a90a65db28a27f949a135edc",
      "function": "allowFunction(address,bytes4)",
      "arguments": [
        "0xE885e8B5855aE72b28E26C02b5c8D3d66bE4C7E8",
        "0xe19a9dd9"
      ],
      "transaction": {
        "from": "0xe2bc073e0d55274dba18a0e11463a5dfd16c5057",
        "to": "0x62ba738e2085c901a90a65db28a27f949a135edc",
        "gas": "0x10fe8",
        "value": "0x0",
        "input": "0x60cff9b5000000000000000000000000e885e8b5855ae72b28e26c02b5c8d3d66be4c7e8e19a9dd900000000000000000000000000000000000000000000000000000000",
        "nonce": "0x1d4a",
        "chainId": "0x66eee"
      },
      "additionalContracts": [],
      "isFixedGasLimit": false
    },
    {
      "hash": "0x37b3f54efd9c1114a1c2e72bac2e24c7d37f707265bc4627a6506a26fd9878c9",
      "transactionType": "CALL",
      "contractName": null,
      "contractAddress": "0x62ba738e2085c901a90a65db28a27f949a135edc",
      "function": "allowFunction(address,bytes4)",
      "arguments": [
        "0x62BA738e2085c901a90a65db28A27f949a135edC",
        "0x60cff9b5"
      ],
      "transaction": {
        "from": "0xe2bc073e0d55274dba18a0e11463a5dfd16c5057",
        "to": "0x62ba738e2085c901a90a65db28a27f949a135edc",
        "gas": "0x10fe8",
        "value": "0x0",
        "input": "0x60cff9b500000000000000000000000062ba738e2085c901a90a65db28a27f949a135edc60cff9b500000000000000000000000000000000000000000000000000000000",
        "nonce": "0x1d4b",
        "chainId": "0x66eee"
      },
      "additionalContracts": [],
      "isFixedGasLimit": false
    },
    {
      "hash": "0xee95364684a945b8c6cd786cc00d5d4d32bb742d7ebff0dd6ae2f7f3d5b73cd7",
      "transactionType": "CALL",
      "contractName": null,
      "contractAddress": "0x62ba738e2085c901a90a65db28a27f949a135edc",
      "function": "allowFunction(address,bytes4)",
      "arguments": [
        "0x62BA28fc85Dba80b1858E5B37134991CE90ae5A8",
        "0x338b5dea"
      ],
      "transaction": {
        "from": "0xe2bc073e0d55274dba18a0e11463a5dfd16c5057",
        "to": "0x62ba738e2085c901a90a65db28a27f949a135edc",
        "gas": "0x10fe8",
        "value": "0x0",
        "input": "0x60cff9b500000000000000000000000062ba28fc85dba80b1858e5b37134991ce90ae5a8338b5dea00000000000000000000000000000000000000000000000000000000",
        "nonce": "0x1d4c",
        "chainId": "0x66eee"
      },
      "additionalContracts": [],
      "isFixedGasLimit": false
    },
    {
      "hash": "0x9bea9377b93678d7dc8f73cb69997613cc7afccb86625f90787f92bb86031d40",
      "transactionType": "CALL",
      "contractName": null,
      "contractAddress": "0x62ba738e2085c901a90a65db28a27f949a135edc",
      "function": "allowFunction(address,bytes4)",
      "arguments": [
        "0x222afF0377468B4d88a44C70669AaFD968faC6c4",
        "0xa9059cbb"
      ],
      "transaction": {
        "from": "0xe2bc073e0d55274dba18a0e11463a5dfd16c5057",
        "to": "0x62ba738e2085c901a90a65db28a27f949a135edc",
        "gas": "0x10fe8",
        "value": "0x0",
        "input": "0x60cff9b5000000000000000000000000222aff0377468b4d88a44c70669aafd968fac6c4a9059cbb00000000000000000000000000000000000000000000000000000000",
        "nonce": "0x1d4d",
        "chainId": "0x66eee"
      },
      "additionalContracts": [],
      "isFixedGasLimit": false
    },
    {
      "hash": "0x7117b2c3a96eaf178e9e8156352e758025f4b8b401e871b85c5aaef19d2375b4",
      "transactionType": "CALL",
      "contractName": null,
      "contractAddress": "0x62ba738e2085c901a90a65db28a27f949a135edc",
      "function": "allowFunction(address,bytes4)",
      "arguments": [
        "0x222afF0377468B4d88a44C70669AaFD968faC6c4",
        "0x095ea7b3"
      ],
      "transaction": {
        "from": "0xe2bc073e0d55274dba18a0e11463a5dfd16c5057",
        "to": "0x62ba738e2085c901a90a65db28a27f949a135edc",
        "gas": "0x10fe8",
        "value": "0x0",
        "input": "0x60cff9b5000000000000000000000000222aff0377468b4d88a44c70669aafd968fac6c4095ea7b300000000000000000000000000000000000000000000000000000000",
        "nonce": "0x1d4e",
        "chainId": "0x66eee"
      },
      "additionalContracts": [],
      "isFixedGasLimit": false
    },
    {
      "hash": "0x79c8e7c003f079b13a916756f8b75ab42059a77650b3bbf13074b364df93a080",
      "transactionType": "CALL",
      "contractName": null,
      "contractAddress": "0x62ba738e2085c901a90a65db28a27f949a135edc",
      "function": "updateServiceManager(address)",
      "arguments": [
        "0xe2Bc073E0d55274DBa18A0E11463A5DfD16c5057"
      ],
      "transaction": {
        "from": "0xe2bc073e0d55274dba18a0e11463a5dfd16c5057",
        "to": "0x62ba738e2085c901a90a65db28a27f949a135edc",
        "gas": "0x8a97",
        "value": "0x0",
        "input": "0x7d847d1b000000000000000000000000e2bc073e0d55274dba18a0e11463a5dfd16c5057",
        "nonce": "0x1d4f",
        "chainId": "0x66eee"
      },
      "additionalContracts": [],
      "isFixedGasLimit": false
    },
    {
      "hash": "0xeeb50b1ab0a52410cb8fb8411747dedabd8b3be2239151716cd9ccd9deba8866",
      "transactionType": "CALL",
      "contractName": null,
      "contractAddress": "0xe885e8b5855ae72b28e26c02b5c8d3d66be4c7e8",
      "function": "execTransaction(address,uint256,bytes,uint8,uint256,uint256,uint256,address,address,bytes)",
      "arguments": [
        "0xE885e8B5855aE72b28E26C02b5c8D3d66bE4C7E8",
        "0",
        "0xe19a9dd900000000000000000000000062ba738e2085c901a90a65db28a27f949a135edc",
        "0",
        "0",
        "0",
        "0",
        "0x0000000000000000000000000000000000000000",
        "0x0000000000000000000000000000000000000000",
        "0x51b4dc28917a86440292e8adfd378b1a02616deefd0a0b3a857ef3c93526015043b1e5263a7cddc5cd1f8989f65e569090caa8895ded37764f103a232d42fe261cfb6490ceaf7a42e284ec93cc7ee5230b8eac5a8b15274a9ef9da2b65bd3397c256dd3f57e2e62bb8263c7ad92ef6a9e38015e562ed62df2f3da6febaae5504de1b"
      ],
      "transaction": {
        "from": "0xe2bc073e0d55274dba18a0e11463a5dfd16c5057",
        "to": "0xe885e8b5855ae72b28e26c02b5c8d3d66be4c7e8",
        "gas": "0x20081",
        "value": "0x0",
        "input": "0x6a761202000000000000000000000000e885e8b5855ae72b28e26c02b5c8d3d66be4c7e80000000000000000000000000000000000000000000000000000000000000000000000000000000000000000000000000000000000000000000000000000014000000000000000000000000000000000000000000000000000000000000000000000000000000000000000000000000000000000000000000000000000000000000000000000000000000000000000000000000000000000000000000000000000000000000000000000000000000000000000000000000000000000000000000000000000000000000000000000000000000000000000000000000000000000000000000000000000000000000000000000000000000000000000000000000000000000000000000000000000000000000000000000000000000000000001a00000000000000000000000000000000000000000000000000000000000000024e19a9dd900000000000000000000000062ba738e2085c901a90a65db28a27f949a135edc00000000000000000000000000000000000000000000000000000000000000000000000000000000000000000000000000000000000000000000008251b4dc28917a86440292e8adfd378b1a02616deefd0a0b3a857ef3c93526015043b1e5263a7cddc5cd1f8989f65e569090caa8895ded37764f103a232d42fe261cfb6490ceaf7a42e284ec93cc7ee5230b8eac5a8b15274a9ef9da2b65bd3397c256dd3f57e2e62bb8263c7ad92ef6a9e38015e562ed62df2f3da6febaae5504de1b000000000000000000000000000000000000000000000000000000000000",
        "nonce": "0x1d50",
        "chainId": "0x66eee"
      },
      "additionalContracts": [],
      "isFixedGasLimit": false
    }
  ],
  "receipts": [
    {
      "status": "0x1",
      "cumulativeGasUsed": "0x6944",
      "logs": [],
      "logsBloom": "0x00000000000000000000000000000000000000000000000000000000000000000000000000000000000000000000000000000000000000000000000000000000000000000000000000000000000000000000000000000000000000000000000000000000000000000000000000000000000000000000000000000000000000000000000000000000000000000000000000000000000000000000000000000000000000000000000000000000000000000000000000000000000000000000000000000000000000000000000000000000000000000000000000000000000000000000000000000000000000000000000000000000000000000000000000000000",
      "type": "0x2",
      "transactionHash": "0xe689b081acd2bd0e7eab46267416f2fab3e2a7c32bafb9fc39217f8b2d43918c",
      "transactionIndex": "0x1",
      "blockHash": "0x52e4682ceb86204248436780d32e8db20b510c00dc2679e17747cd769e2da831",
      "blockNumber": "0x75d63f6",
      "gasUsed": "0x6944",
      "effectiveGasPrice": "0x5f5e100",
      "from": "0xe2bc073e0d55274dba18a0e11463a5dfd16c5057",
      "to": "0x62ba738e2085c901a90a65db28a27f949a135edc",
      "contractAddress": null,
      "gasUsedForL1": "0x0",
      "l1BlockNumber": "0x758008"
    },
    {
      "status": "0x1",
      "cumulativeGasUsed": "0xc4dc",
      "logs": [
        {
          "address": "0x62ba738e2085c901a90a65db28a27f949a135edc",
          "topics": [
            "0x8b9ed51018e2194e0c99cb3dd5a611c44d2eacf3d5ea3d2ab993857c58ff5cfe",
            "0x000000000000000000000000e885e8b5855ae72b28e26c02b5c8d3d66be4c7e8",
            "0x6a76120200000000000000000000000000000000000000000000000000000000"
          ],
          "data": "0x",
          "blockHash": "0x15da50ac4db0a7edb91e19203334c9790483caf6f14835b73c9ee7643b32dd05",
          "blockNumber": "0x75d63fc",
          "transactionHash": "0x33fc75438bd88e09588dbbbc5b0f56d816bc90fb9d9908f8a3fb89af65ab802c",
          "transactionIndex": "0x1",
          "logIndex": "0x0",
          "removed": false
        }
      ],
      "logsBloom": "0x00000000000000000000000000000000001000000000000000000000000000000000000000000000000000000000000000000000000000000000000000000000000000000000004000000000000000000000000000000000000000000000000000000000000000000000010080000000000000000000000000000000000000000000000000000000010000000000000000000010000000800000000000000000000000000000000000000000000000000000000000000000000000000000000000000000000000000000000000000000000000000000000000000000000000000008000000000000000000000008000000000000020000040000000040000000",
      "type": "0x2",
      "transactionHash": "0x33fc75438bd88e09588dbbbc5b0f56d816bc90fb9d9908f8a3fb89af65ab802c",
      "transactionIndex": "0x1",
      "blockHash": "0x15da50ac4db0a7edb91e19203334c9790483caf6f14835b73c9ee7643b32dd05",
      "blockNumber": "0x75d63fc",
      "gasUsed": "0xc4dc",
      "effectiveGasPrice": "0x5f5e100",
      "from": "0xe2bc073e0d55274dba18a0e11463a5dfd16c5057",
      "to": "0x62ba738e2085c901a90a65db28a27f949a135edc",
      "contractAddress": null,
      "gasUsedForL1": "0x0",
      "l1BlockNumber": "0x758008"
    },
    {
      "status": "0x1",
      "cumulativeGasUsed": "0xc4dc",
      "logs": [
        {
          "address": "0x62ba738e2085c901a90a65db28a27f949a135edc",
          "topics": [
            "0x8b9ed51018e2194e0c99cb3dd5a611c44d2eacf3d5ea3d2ab993857c58ff5cfe",
            "0x000000000000000000000000e885e8b5855ae72b28e26c02b5c8d3d66be4c7e8",
            "0xe19a9dd900000000000000000000000000000000000000000000000000000000"
          ],
          "data": "0x",
          "blockHash": "0x24db14867572d993de00894dd7f4d04bc37990c698cc81ea9ce0410eb96aa80d",
          "blockNumber": "0x75d6401",
          "transactionHash": "0x791dc27ae2e92889acf21555f230039903c75d95e84c86872a8675c5728c5beb",
          "transactionIndex": "0x1",
          "logIndex": "0x0",
          "removed": false
        }
      ],
      "logsBloom": "0x00000000000000000000000000000000001000000000000000000000000000000000000000000000000000000000000000000000000000000000000000000000000000000000004000000000000000000000000000008000000000000000000000002000000000000000000000000000000000000000000000000000000000000000000000000000014000000000000000000000000000800000000000000000000000000000000000000000000000000000000000000000000000000000000000000000000000000000000000000000000000000000000000000000000000000008000000000000000000000008000000000000020000040000000040000000",
      "type": "0x2",
      "transactionHash": "0x791dc27ae2e92889acf21555f230039903c75d95e84c86872a8675c5728c5beb",
      "transactionIndex": "0x1",
      "blockHash": "0x24db14867572d993de00894dd7f4d04bc37990c698cc81ea9ce0410eb96aa80d",
      "blockNumber": "0x75d6401",
      "gasUsed": "0xc4dc",
      "effectiveGasPrice": "0x5f5e100",
      "from": "0xe2bc073e0d55274dba18a0e11463a5dfd16c5057",
      "to": "0x62ba738e2085c901a90a65db28a27f949a135edc",
      "contractAddress": null,
      "gasUsedForL1": "0x0",
      "l1BlockNumber": "0x758008"
    },
    {
      "status": "0x1",
      "cumulativeGasUsed": "0x25df3",
      "logs": [
        {
          "address": "0x62ba738e2085c901a90a65db28a27f949a135edc",
          "topics": [
            "0x8b9ed51018e2194e0c99cb3dd5a611c44d2eacf3d5ea3d2ab993857c58ff5cfe",
            "0x00000000000000000000000062ba738e2085c901a90a65db28a27f949a135edc",
            "0x60cff9b500000000000000000000000000000000000000000000000000000000"
          ],
          "data": "0x",
          "blockHash": "0x625d0c0816c29d429953c9fc2a40fa54813a50728a08c33348230ff06c57579c",
          "blockNumber": "0x75d6408",
          "transactionHash": "0x37b3f54efd9c1114a1c2e72bac2e24c7d37f707265bc4627a6506a26fd9878c9",
          "transactionIndex": "0x2",
          "logIndex": "0x1",
          "removed": false
        }
      ],
      "logsBloom": "0x00000000000000000000000000000000001000000000000000000000000000000000000000000000000000000000000000008000000000000000000000000000000000000000004800000000000000000000000000000000000000000000000000000000000000000000000000000000000000000000000000000000000000000000000000000000010000000000008000000000000000000040000000000000000020000000000000000000000000000000000000000000000000000000000000000000000000000000000000000000000000000000000000000000000000000000000000000000000000000008000000000000020000040000000000008000",
      "type": "0x2",
      "transactionHash": "0x37b3f54efd9c1114a1c2e72bac2e24c7d37f707265bc4627a6506a26fd9878c9",
      "transactionIndex": "0x2",
      "blockHash": "0x625d0c0816c29d429953c9fc2a40fa54813a50728a08c33348230ff06c57579c",
      "blockNumber": "0x75d6408",
      "gasUsed": "0xc4dc",
      "effectiveGasPrice": "0x5f5e100",
      "from": "0xe2bc073e0d55274dba18a0e11463a5dfd16c5057",
      "to": "0x62ba738e2085c901a90a65db28a27f949a135edc",
      "contractAddress": null,
      "gasUsedForL1": "0x0",
      "l1BlockNumber": "0x758008"
    },
    {
      "status": "0x1",
      "cumulativeGasUsed": "0x14e00",
      "logs": [
        {
          "address": "0x62ba738e2085c901a90a65db28a27f949a135edc",
          "topics": [
            "0x8b9ed51018e2194e0c99cb3dd5a611c44d2eacf3d5ea3d2ab993857c58ff5cfe",
            "0x00000000000000000000000062ba28fc85dba80b1858e5b37134991ce90ae5a8",
            "0x338b5dea00000000000000000000000000000000000000000000000000000000"
          ],
          "data": "0x",
          "blockHash": "0xd5943845dba64aa63e7a1a0efdc4ad701ff9f36adbaefa605786f85cf541b62d",
          "blockNumber": "0x75d640f",
          "transactionHash": "0xee95364684a945b8c6cd786cc00d5d4d32bb742d7ebff0dd6ae2f7f3d5b73cd7",
          "transactionIndex": "0x2",
          "logIndex": "0x1",
          "removed": false
        }
      ],
      "logsBloom": "0x00000000000100000000000000000008001000000000000000000000000000000000000000000000000000000000000000000000000000000000001000000000000000000000004000000000000000000000000000000000000000000000000000000000000000000000000000000000000000000000000100000000000000000000000000004000010000000000000000000000000000000000000000008000000000000000000000000000000000000000000000000000000000000000000000000000000000000000000000000000000000000000000000000000000000000000000000000000000000000008000000000000020000040000000000000000",
      "type": "0x2",
      "transactionHash": "0xee95364684a945b8c6cd786cc00d5d4d32bb742d7ebff0dd6ae2f7f3d5b73cd7",
      "transactionIndex": "0x2",
      "blockHash": "0xd5943845dba64aa63e7a1a0efdc4ad701ff9f36adbaefa605786f85cf541b62d",
      "blockNumber": "0x75d640f",
      "gasUsed": "0xc4dc",
      "effectiveGasPrice": "0x5f5e100",
      "from": "0xe2bc073e0d55274dba18a0e11463a5dfd16c5057",
      "to": "0x62ba738e2085c901a90a65db28a27f949a135edc",
      "contractAddress": null,
      "gasUsedForL1": "0x0",
      "l1BlockNumber": "0x758008"
    },
    {
      "status": "0x1",
      "cumulativeGasUsed": "0xc4dc",
      "logs": [
        {
          "address": "0x62ba738e2085c901a90a65db28a27f949a135edc",
          "topics": [
            "0x8b9ed51018e2194e0c99cb3dd5a611c44d2eacf3d5ea3d2ab993857c58ff5cfe",
            "0x000000000000000000000000222aff0377468b4d88a44c70669aafd968fac6c4",
            "0xa9059cbb00000000000000000000000000000000000000000000000000000000"
          ],
          "data": "0x",
          "blockHash": "0x8801f9a3f5fe5ee26f9e71b479e74e50f56437cc2d898fe10203a4588a40fc59",
          "blockNumber": "0x75d6417",
          "transactionHash": "0x9bea9377b93678d7dc8f73cb69997613cc7afccb86625f90787f92bb86031d40",
          "transactionIndex": "0x1",
          "logIndex": "0x0",
          "removed": false
        }
      ],
      "logsBloom": "0x00000000000000000000000000000000001000000000000000000000000000000000000000000000000000000000000000000000000000000000000000000000000000000000004000104000000000000000000000000040040000000000000000000000000000000000000000000000000000000000000000000000000000000000000000000000010000000000000000000000000000100000000000000000000000000000000000000000000000000000000000000000000000000000000000000000000000000000000000000000000000000000000000000000000400000000000000000000000000000008000000000000020000040000000000000000",
      "type": "0x2",
      "transactionHash": "0x9bea9377b93678d7dc8f73cb69997613cc7afccb86625f90787f92bb86031d40",
      "transactionIndex": "0x1",
      "blockHash": "0x8801f9a3f5fe5ee26f9e71b479e74e50f56437cc2d898fe10203a4588a40fc59",
      "blockNumber": "0x75d6417",
      "gasUsed": "0xc4dc",
      "effectiveGasPrice": "0x5f5e100",
      "from": "0xe2bc073e0d55274dba18a0e11463a5dfd16c5057",
      "to": "0x62ba738e2085c901a90a65db28a27f949a135edc",
      "contractAddress": null,
      "gasUsedForL1": "0x0",
      "l1BlockNumber": "0x758008"
    },
    {
      "status": "0x1",
      "cumulativeGasUsed": "0x5fdac",
      "logs": [
        {
          "address": "0x62ba738e2085c901a90a65db28a27f949a135edc",
          "topics": [
            "0x8b9ed51018e2194e0c99cb3dd5a611c44d2eacf3d5ea3d2ab993857c58ff5cfe",
            "0x000000000000000000000000222aff0377468b4d88a44c70669aafd968fac6c4",
            "0x095ea7b300000000000000000000000000000000000000000000000000000000"
          ],
          "data": "0x",
          "blockHash": "0x8ae49ca57fe28cf993abdaf1b336403261c5cdcbd92264d3c29ae324ed28eda0",
          "blockNumber": "0x75d641d",
          "transactionHash": "0x7117b2c3a96eaf178e9e8156352e758025f4b8b401e871b85c5aaef19d2375b4",
          "transactionIndex": "0x3",
          "logIndex": "0x7",
          "removed": false
        }
      ],
      "logsBloom": "0x00000000000000000000000000000000001000000000000000000000000000000000000000000000000000000400000000000000000000000008000000000000000000000000004000000000000000000000000000000040040000000000000000000000000000000000000000000000000000000000000000000000000000000000000000000000010000000000000000000000000000000000000000000000000000000000000000000000000000000000000000000000000000000000000000000008000000000000000000000000000000000000000000000000000400000000000000000000000000000008000000000000020000040000000000000000",
      "type": "0x2",
      "transactionHash": "0x7117b2c3a96eaf178e9e8156352e758025f4b8b401e871b85c5aaef19d2375b4",
      "transactionIndex": "0x3",
      "blockHash": "0x8ae49ca57fe28cf993abdaf1b336403261c5cdcbd92264d3c29ae324ed28eda0",
      "blockNumber": "0x75d641d",
      "gasUsed": "0xc4dc",
      "effectiveGasPrice": "0x5f5e100",
      "from": "0xe2bc073e0d55274dba18a0e11463a5dfd16c5057",
      "to": "0x62ba738e2085c901a90a65db28a27f949a135edc",
      "contractAddress": null,
      "gasUsedForL1": "0x0",
      "l1BlockNumber": "0x758008"
    },
    {
      "status": "0x1",
      "cumulativeGasUsed": "0x5e54",
      "logs": [],
      "logsBloom": "0x00000000000000000000000000000000000000000000000000000000000000000000000000000000000000000000000000000000000000000000000000000000000000000000000000000000000000000000000000000000000000000000000000000000000000000000000000000000000000000000000000000000000000000000000000000000000000000000000000000000000000000000000000000000000000000000000000000000000000000000000000000000000000000000000000000000000000000000000000000000000000000000000000000000000000000000000000000000000000000000000000000000000000000000000000000000",
      "type": "0x2",
      "transactionHash": "0x79c8e7c003f079b13a916756f8b75ab42059a77650b3bbf13074b364df93a080",
      "transactionIndex": "0x1",
      "blockHash": "0x50c10c59df008555429da36665c8d529b54f292a7d3cc6f58533a4209b5b319f",
      "blockNumber": "0x75d6423",
      "gasUsed": "0x5e54",
      "effectiveGasPrice": "0x5f5e100",
      "from": "0xe2bc073e0d55274dba18a0e11463a5dfd16c5057",
      "to": "0x62ba738e2085c901a90a65db28a27f949a135edc",
      "contractAddress": null,
      "gasUsedForL1": "0x0",
      "l1BlockNumber": "0x758008"
    },
    {
      "status": "0x1",
      "cumulativeGasUsed": "0x1829b",
      "logs": [
        {
          "address": "0xe885e8b5855ae72b28e26c02b5c8d3d66be4c7e8",
          "topics": [
            "0x1151116914515bc0891ff9047a6cb32cf902546f83066499bcf8ba33d2353fa2",
            "0x00000000000000000000000062ba738e2085c901a90a65db28a27f949a135edc"
          ],
          "data": "0x",
          "blockHash": "0x235001d6d6794bd65d5c08a1e5a1fa61e11b9526a6fde06a7e2c326b4cccfde7",
          "blockNumber": "0x75d6428",
          "transactionHash": "0xeeb50b1ab0a52410cb8fb8411747dedabd8b3be2239151716cd9ccd9deba8866",
          "transactionIndex": "0x1",
          "logIndex": "0x0",
          "removed": false
        },
        {
          "address": "0xe885e8b5855ae72b28e26c02b5c8d3d66be4c7e8",
          "topics": [
            "0x442e715f626346e8c54381002da614f62bee8d27386535b2521ec8540898556e",
            "0x1a44f74a9a41a4311d48bb5ea5ea6bdc832f51e6f92c1b8cb0cc0be015b79c53"
          ],
          "data": "0x0000000000000000000000000000000000000000000000000000000000000000",
          "blockHash": "0x235001d6d6794bd65d5c08a1e5a1fa61e11b9526a6fde06a7e2c326b4cccfde7",
          "blockNumber": "0x75d6428",
          "transactionHash": "0xeeb50b1ab0a52410cb8fb8411747dedabd8b3be2239151716cd9ccd9deba8866",
          "transactionIndex": "0x1",
          "logIndex": "0x1",
          "removed": false
        }
      ],
      "logsBloom": "0x00000000400000000000000000000000000000004000000000000000040080000000000000000000000000000000000000008000000000000000000000000000000000000020000800000000000000000000000000000000000000000000000000000000000000000000002000000000000000000008000000000000000000000000000000000000000000000000000000000000000000000000000000000000000020000000800000000000000004000000000000000000000000000000000000000000000000000000000000000000000000000000000000000000080000000000000000000000002000000000000010000000000000000000000000000000",
      "type": "0x2",
      "transactionHash": "0xeeb50b1ab0a52410cb8fb8411747dedabd8b3be2239151716cd9ccd9deba8866",
      "transactionIndex": "0x1",
      "blockHash": "0x235001d6d6794bd65d5c08a1e5a1fa61e11b9526a6fde06a7e2c326b4cccfde7",
      "blockNumber": "0x75d6428",
      "gasUsed": "0x1829b",
      "effectiveGasPrice": "0x5f5e100",
      "from": "0xe2bc073e0d55274dba18a0e11463a5dfd16c5057",
      "to": "0xe885e8b5855ae72b28e26c02b5c8d3d66be4c7e8",
      "contractAddress": null,
      "gasUsedForL1": "0x0",
      "l1BlockNumber": "0x75800a"
    }
  ],
  "libraries": [],
  "pending": [],
  "returns": {},
  "timestamp": 1739468272,
  "chain": 421614,
  "commit": "a2768b5"
}