{
  "transactions": [
    {
      "hash": "0x159f2cddcf1331709fc82093318e79d00c20bef73d2dd93832043fa869e0a931",
      "transactionType": "CALL",
      "contractName": null,
      "contractAddress": "0x1da860c65ba8e821681d65e5cf8f58a5216b9168",
      "function": "updateServiceManager(address)",
      "arguments": [
        "0xe2Bc073E0d55274DBa18A0E11463A5DfD16c5057"
      ],
      "transaction": {
        "from": "0xe2bc073e0d55274dba18a0e11463a5dfd16c5057",
        "to": "0x1da860c65ba8e821681d65e5cf8f58a5216b9168",
        "gas": "0x8a95",
        "value": "0x0",
        "input": "0x7d847d1b000000000000000000000000e2bc073e0d55274dba18a0e11463a5dfd16c5057",
        "nonce": "0x1d8d",
        "chainId": "0x66eee"
      },
      "additionalContracts": [],
      "isFixedGasLimit": false
    },
    {
      "hash": "0x7bffd6f7a95728cf0b393c0d23c2e78ccb21dca2e2fe90fb859e87a35beefb75",
      "transactionType": "CALL",
      "contractName": null,
      "contractAddress": "0x1da860c65ba8e821681d65e5cf8f58a5216b9168",
      "function": "allowFunction(address,bytes4)",
      "arguments": [
        "0x6d9b43623e05e7F4008AE43f2dF4753539845cf6",
        "0x6a761202"
      ],
      "transaction": {
        "from": "0xe2bc073e0d55274dba18a0e11463a5dfd16c5057",
        "to": "0x1da860c65ba8e821681d65e5cf8f58a5216b9168",
        "gas": "0x10fd3",
        "value": "0x0",
        "input": "0x60cff9b50000000000000000000000006d9b43623e05e7f4008ae43f2df4753539845cf66a76120200000000000000000000000000000000000000000000000000000000",
        "nonce": "0x1d8e",
        "chainId": "0x66eee"
      },
      "additionalContracts": [],
      "isFixedGasLimit": false
    },
    {
      "hash": "0x8d113562f770ecfdd038fc75e3790b69af0d228e79773851f1b757a14884e2a6",
      "transactionType": "CALL",
      "contractName": null,
      "contractAddress": "0x1da860c65ba8e821681d65e5cf8f58a5216b9168",
      "function": "allowFunction(address,bytes4)",
      "arguments": [
        "0x6d9b43623e05e7F4008AE43f2dF4753539845cf6",
        "0xe19a9dd9"
      ],
      "transaction": {
        "from": "0xe2bc073e0d55274dba18a0e11463a5dfd16c5057",
        "to": "0x1da860c65ba8e821681d65e5cf8f58a5216b9168",
        "gas": "0x10fd3",
        "value": "0x0",
        "input": "0x60cff9b50000000000000000000000006d9b43623e05e7f4008ae43f2df4753539845cf6e19a9dd900000000000000000000000000000000000000000000000000000000",
        "nonce": "0x1d8f",
        "chainId": "0x66eee"
      },
      "additionalContracts": [],
      "isFixedGasLimit": false
    },
    {
      "hash": "0x25aa456c2b848bbbebacc99ea144cb03999433664ca296679b273fbc7a133b4d",
      "transactionType": "CALL",
      "contractName": null,
      "contractAddress": "0x1da860c65ba8e821681d65e5cf8f58a5216b9168",
      "function": "allowFunction(address,bytes4)",
      "arguments": [
        "0x1dA860c65Ba8e821681D65E5Cf8f58A5216b9168",
        "0x60cff9b5"
      ],
      "transaction": {
        "from": "0xe2bc073e0d55274dba18a0e11463a5dfd16c5057",
        "to": "0x1da860c65ba8e821681d65e5cf8f58a5216b9168",
        "gas": "0xa485",
        "value": "0x0",
        "input": "0x60cff9b50000000000000000000000001da860c65ba8e821681d65e5cf8f58a5216b916860cff9b500000000000000000000000000000000000000000000000000000000",
        "nonce": "0x1d90",
        "chainId": "0x66eee"
      },
      "additionalContracts": [],
      "isFixedGasLimit": false
    },
    {
      "hash": "0x3222af1755cfb454e9a2142f19c3bccbd3a2a9cfb01dc34809016908eae5b00b",
      "transactionType": "CALL",
      "contractName": null,
      "contractAddress": "0x1da860c65ba8e821681d65e5cf8f58a5216b9168",
      "function": "allowFunction(address,bytes4)",
      "arguments": [
        "0x62BA28fc85Dba80b1858E5B37134991CE90ae5A8",
        "0x338b5dea"
      ],
      "transaction": {
        "from": "0xe2bc073e0d55274dba18a0e11463a5dfd16c5057",
        "to": "0x1da860c65ba8e821681d65e5cf8f58a5216b9168",
        "gas": "0xa485",
        "value": "0x0",
        "input": "0x60cff9b500000000000000000000000062ba28fc85dba80b1858e5b37134991ce90ae5a8338b5dea00000000000000000000000000000000000000000000000000000000",
        "nonce": "0x1d91",
        "chainId": "0x66eee"
      },
      "additionalContracts": [],
      "isFixedGasLimit": false
    },
    {
      "hash": "0xec568ac31e5307e773e72176c361cbe58a010c9b5c9257226c1312836183db6a",
      "transactionType": "CALL",
      "contractName": null,
      "contractAddress": "0x1da860c65ba8e821681d65e5cf8f58a5216b9168",
      "function": "allowFunction(address,bytes4)",
      "arguments": [
        "0x222afF0377468B4d88a44C70669AaFD968faC6c4",
        "0xa9059cbb"
      ],
      "transaction": {
        "from": "0xe2bc073e0d55274dba18a0e11463a5dfd16c5057",
        "to": "0x1da860c65ba8e821681d65e5cf8f58a5216b9168",
        "gas": "0xa485",
        "value": "0x0",
        "input": "0x60cff9b5000000000000000000000000222aff0377468b4d88a44c70669aafd968fac6c4a9059cbb00000000000000000000000000000000000000000000000000000000",
        "nonce": "0x1d92",
        "chainId": "0x66eee"
      },
      "additionalContracts": [],
      "isFixedGasLimit": false
    },
    {
      "hash": "0x3f3b6e6023e7b982d0814e6e5a5f4142cca5f4be0fa63d636b882513c305e1c5",
      "transactionType": "CALL",
      "contractName": null,
      "contractAddress": "0x1da860c65ba8e821681d65e5cf8f58a5216b9168",
      "function": "allowFunction(address,bytes4)",
      "arguments": [
        "0x222afF0377468B4d88a44C70669AaFD968faC6c4",
        "0x095ea7b3"
      ],
      "transaction": {
        "from": "0xe2bc073e0d55274dba18a0e11463a5dfd16c5057",
        "to": "0x1da860c65ba8e821681d65e5cf8f58a5216b9168",
        "gas": "0xa485",
        "value": "0x0",
        "input": "0x60cff9b5000000000000000000000000222aff0377468b4d88a44c70669aafd968fac6c4095ea7b300000000000000000000000000000000000000000000000000000000",
        "nonce": "0x1d93",
        "chainId": "0x66eee"
      },
      "additionalContracts": [],
      "isFixedGasLimit": false
    },
    {
      "hash": "0x6bc85b637516f768d7c372571c978c858bd53354921cc9a2965825c10f9d852a",
      "transactionType": "CALL",
      "contractName": null,
      "contractAddress": "0x1da860c65ba8e821681d65e5cf8f58a5216b9168",
      "function": "updateServiceManager(address)",
      "arguments": [
        "0x7A2CedB6423F8AB821aF4D7783459676078b511c"
      ],
      "transaction": {
        "from": "0xe2bc073e0d55274dba18a0e11463a5dfd16c5057",
        "to": "0x1da860c65ba8e821681d65e5cf8f58a5216b9168",
        "gas": "0x8a95",
        "value": "0x0",
        "input": "0x7d847d1b0000000000000000000000007a2cedb6423f8ab821af4d7783459676078b511c",
        "nonce": "0x1d94",
        "chainId": "0x66eee"
      },
      "additionalContracts": [],
      "isFixedGasLimit": false
    },
    {
      "hash": "0x1aa0b018a14aab45860da9a07a812c80cece74ed4eeeaa3a8f6b3d81cf116838",
      "transactionType": "CALL",
      "contractName": null,
      "contractAddress": "0x6d9b43623e05e7f4008ae43f2df4753539845cf6",
      "function": "execTransaction(address,uint256,bytes,uint8,uint256,uint256,uint256,address,address,bytes)",
      "arguments": [
        "0x6d9b43623e05e7F4008AE43f2dF4753539845cf6",
        "0",
        "0xe19a9dd90000000000000000000000001da860c65ba8e821681d65e5cf8f58a5216b9168",
        "0",
        "0",
        "0",
        "0",
        "0x0000000000000000000000000000000000000000",
        "0x0000000000000000000000000000000000000000",
        "0x9df5d5037cfbb65ae57f7c093ba5461453cbcff9cf42c46e066e83e4386c7361087554d149ec77f9b497ce589b9aeec8f71a31e2b3f7334341aa7a9a265fd3ae1c59ae50a3a05ec350eb45fdf200cfacedc0eb491689f26fda186b357d35f007ba6e2946584ef8fba0dc6e29aad022aa21c8b3f65d482a5570fc6cae98f94dd3dc1c"
      ],
      "transaction": {
        "from": "0xe2bc073e0d55274dba18a0e11463a5dfd16c5057",
        "to": "0x6d9b43623e05e7f4008ae43f2df4753539845cf6",
        "gas": "0x20060",
        "value": "0x0",
        "input": "0x6a7612020000000000000000000000006d9b43623e05e7f4008ae43f2df4753539845cf60000000000000000000000000000000000000000000000000000000000000000000000000000000000000000000000000000000000000000000000000000014000000000000000000000000000000000000000000000000000000000000000000000000000000000000000000000000000000000000000000000000000000000000000000000000000000000000000000000000000000000000000000000000000000000000000000000000000000000000000000000000000000000000000000000000000000000000000000000000000000000000000000000000000000000000000000000000000000000000000000000000000000000000000000000000000000000000000000000000000000000000000000000000000000000000001a00000000000000000000000000000000000000000000000000000000000000024e19a9dd90000000000000000000000001da860c65ba8e821681d65e5cf8f58a5216b91680000000000000000000000000000000000000000000000000000000000000000000000000000000000000000000000000000000000000000000000829df5d5037cfbb65ae57f7c093ba5461453cbcff9cf42c46e066e83e4386c7361087554d149ec77f9b497ce589b9aeec8f71a31e2b3f7334341aa7a9a265fd3ae1c59ae50a3a05ec350eb45fdf200cfacedc0eb491689f26fda186b357d35f007ba6e2946584ef8fba0dc6e29aad022aa21c8b3f65d482a5570fc6cae98f94dd3dc1c000000000000000000000000000000000000000000000000000000000000",
        "nonce": "0x1d95",
        "chainId": "0x66eee"
      },
      "additionalContracts": [],
      "isFixedGasLimit": false
    }
  ],
  "receipts": [
    {
      "status": "0x1",
      "cumulativeGasUsed": "0x6942",
      "logs": [],
      "logsBloom": "0x00000000000000000000000000000000000000000000000000000000000000000000000000000000000000000000000000000000000000000000000000000000000000000000000000000000000000000000000000000000000000000000000000000000000000000000000000000000000000000000000000000000000000000000000000000000000000000000000000000000000000000000000000000000000000000000000000000000000000000000000000000000000000000000000000000000000000000000000000000000000000000000000000000000000000000000000000000000000000000000000000000000000000000000000000000000",
      "type": "0x2",
      "transactionHash": "0x159f2cddcf1331709fc82093318e79d00c20bef73d2dd93832043fa869e0a931",
      "transactionIndex": "0x1",
      "blockHash": "0x3cd7195238354e907decc25b7c3b47e1dcca344fb9cfc7b544ca6bbf98895423",
      "blockNumber": "0x75e67dc",
      "gasUsed": "0x6942",
      "effectiveGasPrice": "0x5f5e100",
      "from": "0xe2bc073e0d55274dba18a0e11463a5dfd16c5057",
      "to": "0x1da860c65ba8e821681d65e5cf8f58a5216b9168",
      "contractAddress": null,
      "gasUsedForL1": "0x0",
      "l1BlockNumber": "0x7586a2"
    },
    {
      "status": "0x1",
      "cumulativeGasUsed": "0xc4cd",
      "logs": [
        {
          "address": "0x1da860c65ba8e821681d65e5cf8f58a5216b9168",
          "topics": [
            "0x8b9ed51018e2194e0c99cb3dd5a611c44d2eacf3d5ea3d2ab993857c58ff5cfe",
            "0x0000000000000000000000006d9b43623e05e7f4008ae43f2df4753539845cf6",
            "0x6a76120200000000000000000000000000000000000000000000000000000000"
          ],
          "data": "0x",
          "blockHash": "0xee863c837cb4d1ab25ffcfe56bf82463db76dffed3d0f4f1976a02fa690f4adf",
          "blockNumber": "0x75e67e7",
          "transactionHash": "0x7bffd6f7a95728cf0b393c0d23c2e78ccb21dca2e2fe90fb859e87a35beefb75",
          "transactionIndex": "0x1",
          "logIndex": "0x0",
          "removed": false
        }
      ],
      "logsBloom": "0x00000000000000000000000000000000001000000000000000000000000000000000040000000000000000000000000000000000000000000000000000000000000000000000004000200000004000000000000000000000000000000000000000000000002000000000010080000000000000000000000000000000000000000000000000000000000000000000000000000010000000000000000000000000000000000000000800000000000000000000000000000000000000000000000000000000000000000000000000000080000000000000000000000000000000000000000000000000000000000008000000000000000000000000000000000000",
      "type": "0x2",
      "transactionHash": "0x7bffd6f7a95728cf0b393c0d23c2e78ccb21dca2e2fe90fb859e87a35beefb75",
      "transactionIndex": "0x1",
      "blockHash": "0xee863c837cb4d1ab25ffcfe56bf82463db76dffed3d0f4f1976a02fa690f4adf",
      "blockNumber": "0x75e67e7",
      "gasUsed": "0xc4cd",
      "effectiveGasPrice": "0x5f5e100",
      "from": "0xe2bc073e0d55274dba18a0e11463a5dfd16c5057",
      "to": "0x1da860c65ba8e821681d65e5cf8f58a5216b9168",
      "contractAddress": null,
      "gasUsedForL1": "0x0",
      "l1BlockNumber": "0x7586a4"
    },
    {
      "status": "0x1",
      "cumulativeGasUsed": "0xc4cd",
      "logs": [
        {
          "address": "0x1da860c65ba8e821681d65e5cf8f58a5216b9168",
          "topics": [
            "0x8b9ed51018e2194e0c99cb3dd5a611c44d2eacf3d5ea3d2ab993857c58ff5cfe",
            "0x0000000000000000000000006d9b43623e05e7f4008ae43f2df4753539845cf6",
            "0xe19a9dd900000000000000000000000000000000000000000000000000000000"
          ],
          "data": "0x",
          "blockHash": "0xe22fd21c9d7fe9f37faebe49b8687e5afe5511a344f834c55c524241c1639558",
          "blockNumber": "0x75e67ee",
          "transactionHash": "0x8d113562f770ecfdd038fc75e3790b69af0d228e79773851f1b757a14884e2a6",
          "transactionIndex": "0x1",
          "logIndex": "0x0",
          "removed": false
        }
      ],
      "logsBloom": "0x00000000000000000000000000000000001000000000000000000000000000000000040000000000000000000000000000000000000000000000000000000000000000000000004000200000004000000000000000008000000000000000000000002000002000000000000000000000000000000000000000000000000000000000000000000000004000000000000000000000000000000000000000000000000000000000000800000000000000000000000000000000000000000000000000000000000000000000000000000080000000000000000000000000000000000000000000000000000000000008000000000000000000000000000000000000",
      "type": "0x2",
      "transactionHash": "0x8d113562f770ecfdd038fc75e3790b69af0d228e79773851f1b757a14884e2a6",
      "transactionIndex": "0x1",
      "blockHash": "0xe22fd21c9d7fe9f37faebe49b8687e5afe5511a344f834c55c524241c1639558",
      "blockNumber": "0x75e67ee",
      "gasUsed": "0xc4cd",
      "effectiveGasPrice": "0x5f5e100",
      "from": "0xe2bc073e0d55274dba18a0e11463a5dfd16c5057",
      "to": "0x1da860c65ba8e821681d65e5cf8f58a5216b9168",
      "contractAddress": null,
      "gasUsedForL1": "0x0",
      "l1BlockNumber": "0x7586a4"
    },
    {
      "status": "0x1",
      "cumulativeGasUsed": "0x771d",
      "logs": [
        {
          "address": "0x1da860c65ba8e821681d65e5cf8f58a5216b9168",
          "topics": [
            "0x8b9ed51018e2194e0c99cb3dd5a611c44d2eacf3d5ea3d2ab993857c58ff5cfe",
            "0x0000000000000000000000001da860c65ba8e821681d65e5cf8f58a5216b9168",
            "0x60cff9b500000000000000000000000000000000000000000000000000000000"
          ],
          "data": "0x",
          "blockHash": "0xbec18fdf525edf9b999d467b25e2ce449dcf27bcf4962d567d24ee7a7b07d572",
          "blockNumber": "0x75e67f1",
          "transactionHash": "0x25aa456c2b848bbbebacc99ea144cb03999433664ca296679b273fbc7a133b4d",
          "transactionIndex": "0x1",
          "logIndex": "0x0",
          "removed": false
        }
      ],
      "logsBloom": "0x00000000000000000000000000000000001000000000000000000000000000000000000000000000000000000000000040000000000000000000000000000000000000000000004010200000000000000000000000000000000000000000000000000000000000000000000000000000000000000000000000000000001000000000000000000000000000000000008000000000000000000040000000000000000000000000000800000000000000000000000000000000000000000000000000000000000000000000000000000080000000000000000000000000000000000000000000000000000000000008000000000000000000000000000000008000",
      "type": "0x2",
      "transactionHash": "0x25aa456c2b848bbbebacc99ea144cb03999433664ca296679b273fbc7a133b4d",
      "transactionIndex": "0x1",
      "blockHash": "0xbec18fdf525edf9b999d467b25e2ce449dcf27bcf4962d567d24ee7a7b07d572",
      "blockNumber": "0x75e67f1",
      "gasUsed": "0x771d",
      "effectiveGasPrice": "0x5f5e100",
      "from": "0xe2bc073e0d55274dba18a0e11463a5dfd16c5057",
      "to": "0x1da860c65ba8e821681d65e5cf8f58a5216b9168",
      "contractAddress": null,
      "gasUsedForL1": "0x0",
      "l1BlockNumber": "0x7586a4"
    },
    {
      "status": "0x1",
      "cumulativeGasUsed": "0x771d",
      "logs": [
        {
          "address": "0x1da860c65ba8e821681d65e5cf8f58a5216b9168",
          "topics": [
            "0x8b9ed51018e2194e0c99cb3dd5a611c44d2eacf3d5ea3d2ab993857c58ff5cfe",
            "0x00000000000000000000000062ba28fc85dba80b1858e5b37134991ce90ae5a8",
            "0x338b5dea00000000000000000000000000000000000000000000000000000000"
          ],
          "data": "0x",
          "blockHash": "0x7bbe9d36f26a0702e7894cd33d6f78238182d002d861ac4433c52c56699277fa",
          "blockNumber": "0x75e67f6",
          "transactionHash": "0x3222af1755cfb454e9a2142f19c3bccbd3a2a9cfb01dc34809016908eae5b00b",
          "transactionIndex": "0x1",
          "logIndex": "0x0",
          "removed": false
        }
      ],
      "logsBloom": "0x00000000000100000000000000000008001000000000000000000000000000000000000000000000000000000000000000000000000000000000001000000000000000000000004000200000000000000000000000000000000000000000000000000000000000000000000000000000000000000000000100000000000000000000000000004000000000000000000000000000000000000000000000008000000000000000000800000000000000000000000000000000000000000000000000000000000000000000000000000080000000000000000000000000000000000000000000000000000000000008000000000000000000000000000000000000",
      "type": "0x2",
      "transactionHash": "0x3222af1755cfb454e9a2142f19c3bccbd3a2a9cfb01dc34809016908eae5b00b",
      "transactionIndex": "0x1",
      "blockHash": "0x7bbe9d36f26a0702e7894cd33d6f78238182d002d861ac4433c52c56699277fa",
      "blockNumber": "0x75e67f6",
      "gasUsed": "0x771d",
      "effectiveGasPrice": "0x5f5e100",
      "from": "0xe2bc073e0d55274dba18a0e11463a5dfd16c5057",
      "to": "0x1da860c65ba8e821681d65e5cf8f58a5216b9168",
      "contractAddress": null,
      "gasUsedForL1": "0x0",
      "l1BlockNumber": "0x7586a4"
    },
    {
      "status": "0x1",
      "cumulativeGasUsed": "0x771d",
      "logs": [
        {
          "address": "0x1da860c65ba8e821681d65e5cf8f58a5216b9168",
          "topics": [
            "0x8b9ed51018e2194e0c99cb3dd5a611c44d2eacf3d5ea3d2ab993857c58ff5cfe",
            "0x000000000000000000000000222aff0377468b4d88a44c70669aafd968fac6c4",
            "0xa9059cbb00000000000000000000000000000000000000000000000000000000"
          ],
          "data": "0x",
          "blockHash": "0x122650c325902edbdc09bd1981b648ada66fafec81d74e716714c7ed95cab245",
          "blockNumber": "0x75e67fc",
          "transactionHash": "0xec568ac31e5307e773e72176c361cbe58a010c9b5c9257226c1312836183db6a",
          "transactionIndex": "0x1",
          "logIndex": "0x0",
          "removed": false
        }
      ],
      "logsBloom": "0x00000000000000000000000000000000001000000000000000000000000000000000000000000000000000000000000000000000000000000000000000000000000000000000004000304000000000000000000000000040040000000000000000000000000000000000000000000000000000000000000000000000000000000000000000000000000000000000000000000000000000100000000000000000000000000000000800000000000000000000000000000000000000000000000000000000000000000000000000000080000000000000000000000000000400000000000000000000000000000008000000000000000000000000000000000000",
      "type": "0x2",
      "transactionHash": "0xec568ac31e5307e773e72176c361cbe58a010c9b5c9257226c1312836183db6a",
      "transactionIndex": "0x1",
      "blockHash": "0x122650c325902edbdc09bd1981b648ada66fafec81d74e716714c7ed95cab245",
      "blockNumber": "0x75e67fc",
      "gasUsed": "0x771d",
      "effectiveGasPrice": "0x5f5e100",
      "from": "0xe2bc073e0d55274dba18a0e11463a5dfd16c5057",
      "to": "0x1da860c65ba8e821681d65e5cf8f58a5216b9168",
      "contractAddress": null,
      "gasUsedForL1": "0x0",
      "l1BlockNumber": "0x7586a4"
    },
    {
      "status": "0x1",
      "cumulativeGasUsed": "0x771d",
      "logs": [
        {
          "address": "0x1da860c65ba8e821681d65e5cf8f58a5216b9168",
          "topics": [
            "0x8b9ed51018e2194e0c99cb3dd5a611c44d2eacf3d5ea3d2ab993857c58ff5cfe",
            "0x000000000000000000000000222aff0377468b4d88a44c70669aafd968fac6c4",
            "0x095ea7b300000000000000000000000000000000000000000000000000000000"
          ],
          "data": "0x",
          "blockHash": "0x2230755308def42da1fe793c347b2c7aa4dd1124d75fa31bb947f8b14aca4157",
          "blockNumber": "0x75e6801",
          "transactionHash": "0x3f3b6e6023e7b982d0814e6e5a5f4142cca5f4be0fa63d636b882513c305e1c5",
          "transactionIndex": "0x1",
          "logIndex": "0x0",
          "removed": false
        }
      ],
      "logsBloom": "0x00000000000000000000000000000000001000000000000000000000000000000000000000000000000000000400000000000000000000000008000000000000000000000000004000200000000000000000000000000040040000000000000000000000000000000000000000000000000000000000000000000000000000000000000000000000000000000000000000000000000000000000000000000000000000000000000800000000000000000000000000000000000000000000000000000008000000000000000000000080000000000000000000000000000400000000000000000000000000000008000000000000000000000000000000000000",
      "type": "0x2",
      "transactionHash": "0x3f3b6e6023e7b982d0814e6e5a5f4142cca5f4be0fa63d636b882513c305e1c5",
      "transactionIndex": "0x1",
      "blockHash": "0x2230755308def42da1fe793c347b2c7aa4dd1124d75fa31bb947f8b14aca4157",
      "blockNumber": "0x75e6801",
      "gasUsed": "0x771d",
      "effectiveGasPrice": "0x5f5e100",
      "from": "0xe2bc073e0d55274dba18a0e11463a5dfd16c5057",
      "to": "0x1da860c65ba8e821681d65e5cf8f58a5216b9168",
      "contractAddress": null,
      "gasUsedForL1": "0x0",
      "l1BlockNumber": "0x7586a4"
    },
    {
      "status": "0x1",
      "cumulativeGasUsed": "0x6942",
      "logs": [],
      "logsBloom": "0x00000000000000000000000000000000000000000000000000000000000000000000000000000000000000000000000000000000000000000000000000000000000000000000000000000000000000000000000000000000000000000000000000000000000000000000000000000000000000000000000000000000000000000000000000000000000000000000000000000000000000000000000000000000000000000000000000000000000000000000000000000000000000000000000000000000000000000000000000000000000000000000000000000000000000000000000000000000000000000000000000000000000000000000000000000000",
      "type": "0x2",
      "transactionHash": "0x6bc85b637516f768d7c372571c978c858bd53354921cc9a2965825c10f9d852a",
      "transactionIndex": "0x1",
      "blockHash": "0x2716d93dd94c7cf2aac73b5a689103acf2fef8ac5b96911a949a6647d664d95a",
      "blockNumber": "0x75e6807",
      "gasUsed": "0x6942",
      "effectiveGasPrice": "0x5f5e100",
      "from": "0xe2bc073e0d55274dba18a0e11463a5dfd16c5057",
      "to": "0x1da860c65ba8e821681d65e5cf8f58a5216b9168",
      "contractAddress": null,
      "gasUsedForL1": "0x0",
      "l1BlockNumber": "0x7586a4"
    },
    {
      "status": "0x1",
      "cumulativeGasUsed": "0x18282",
      "logs": [
        {
          "address": "0x6d9b43623e05e7f4008ae43f2df4753539845cf6",
          "topics": [
            "0x1151116914515bc0891ff9047a6cb32cf902546f83066499bcf8ba33d2353fa2",
            "0x0000000000000000000000001da860c65ba8e821681d65e5cf8f58a5216b9168"
          ],
          "data": "0x",
          "blockHash": "0x5866b017b2db1543873b4f6c8ad9f5aa535e015a5b7262a8162dcba53dc28ff0",
          "blockNumber": "0x75e680e",
          "transactionHash": "0x1aa0b018a14aab45860da9a07a812c80cece74ed4eeeaa3a8f6b3d81cf116838",
          "transactionIndex": "0x1",
          "logIndex": "0x0",
          "removed": false
        },
        {
          "address": "0x6d9b43623e05e7f4008ae43f2df4753539845cf6",
          "topics": [
            "0x442e715f626346e8c54381002da614f62bee8d27386535b2521ec8540898556e",
            "0xda28dac1978f1806a69e70dd309a41404fb1130aff321ba13b379b3b952d9a04"
          ],
          "data": "0x0000000000000000000000000000000000000000000000000000000000000000",
          "blockHash": "0x5866b017b2db1543873b4f6c8ad9f5aa535e015a5b7262a8162dcba53dc28ff0",
          "blockNumber": "0x75e680e",
          "transactionHash": "0x1aa0b018a14aab45860da9a07a812c80cece74ed4eeeaa3a8f6b3d81cf116838",
          "transactionIndex": "0x1",
          "logIndex": "0x1",
          "removed": false
        }
      ],
      "logsBloom": "0x00000000400000000000000000000000000000000000000000000000040000000000000000000000000000000000000040000000000000000000000000000000000000000020000010000000000000000000000000000000000000000000000000000000000000000000000000000000000000000000000000000000801000100000000000000002000000000000000000000000000000000000000000000000000000000000820000000000000004000000000000020000000000004000000000000000000000000000000000000000000000000000000000000000000000000000000000000000002000000000000000000000000000000000000000000000",
      "type": "0x2",
      "transactionHash": "0x1aa0b018a14aab45860da9a07a812c80cece74ed4eeeaa3a8f6b3d81cf116838",
      "transactionIndex": "0x1",
      "blockHash": "0x5866b017b2db1543873b4f6c8ad9f5aa535e015a5b7262a8162dcba53dc28ff0",
      "blockNumber": "0x75e680e",
      "gasUsed": "0x18282",
      "effectiveGasPrice": "0x5f5e100",
      "from": "0xe2bc073e0d55274dba18a0e11463a5dfd16c5057",
      "to": "0x6d9b43623e05e7f4008ae43f2df4753539845cf6",
      "contractAddress": null,
      "gasUsedForL1": "0x0",
      "l1BlockNumber": "0x7586a4"
    }
  ],
  "libraries": [],
  "pending": [],
  "returns": {},
  "timestamp": 1739489212,
  "chain": 421614,
  "commit": "a2768b5"
}