{
  "transactions": [
    {
      "hash": "0x4450bd87215bf7b14e3dcb1905624d984b6ea3101e3d26b4d1017dd4d090c7c2",
      "transactionType": "CALL",
      "contractName": null,
      "contractAddress": "0x1da860c65ba8e821681d65e5cf8f58a5216b9168",
      "function": "updateServiceManager(address)",
      "arguments": [
        "0xe2Bc073E0d55274DBa18A0E11463A5DfD16c5057"
      ],
      "transaction": {
        "from": "0xe2bc073e0d55274dba18a0e11463a5dfd16c5057",
        "to": "0x1da860c65ba8e821681d65e5cf8f58a5216b9168",
        "gas": "0x8a95",
        "value": "0x0",
        "input": "0x7d847d1b000000000000000000000000e2bc073e0d55274dba18a0e11463a5dfd16c5057",
        "nonce": "0x1d7a",
        "chainId": "0x66eee"
      },
      "additionalContracts": [],
      "isFixedGasLimit": false
    },
    {
      "hash": "0x5d3d5b819d76639c14dbf2a04318403e8d9ff3fa7474e2b29216eb5839933f9c",
      "transactionType": "CALL",
      "contractName": null,
      "contractAddress": "0x1da860c65ba8e821681d65e5cf8f58a5216b9168",
      "function": "allowFunction(address,bytes4)",
      "arguments": [
        "0x01031aE2A4a15144056a63D7dAFAf238f1c99010",
        "0x6a761202"
      ],
      "transaction": {
        "from": "0xe2bc073e0d55274dba18a0e11463a5dfd16c5057",
        "to": "0x1da860c65ba8e821681d65e5cf8f58a5216b9168",
        "gas": "0x11fe3",
        "value": "0x0",
        "input": "0x60cff9b500000000000000000000000001031ae2a4a15144056a63d7dafaf238f1c990106a76120200000000000000000000000000000000000000000000000000000000",
        "nonce": "0x1d7b",
        "chainId": "0x66eee"
      },
      "additionalContracts": [],
      "isFixedGasLimit": false
    },
    {
      "hash": "0x9324e00f7451e7208abecc900692b2e036c2eafd70a64ddabe6321ad32af9a36",
      "transactionType": "CALL",
      "contractName": null,
      "contractAddress": "0x1da860c65ba8e821681d65e5cf8f58a5216b9168",
      "function": "allowFunction(address,bytes4)",
      "arguments": [
        "0x01031aE2A4a15144056a63D7dAFAf238f1c99010",
        "0xe19a9dd9"
      ],
      "transaction": {
        "from": "0xe2bc073e0d55274dba18a0e11463a5dfd16c5057",
        "to": "0x1da860c65ba8e821681d65e5cf8f58a5216b9168",
        "gas": "0x11fe3",
        "value": "0x0",
        "input": "0x60cff9b500000000000000000000000001031ae2a4a15144056a63d7dafaf238f1c99010e19a9dd900000000000000000000000000000000000000000000000000000000",
        "nonce": "0x1d7c",
        "chainId": "0x66eee"
      },
      "additionalContracts": [],
      "isFixedGasLimit": false
    },
    {
      "hash": "0xe2b0091eccc3e3ec704f7992d0f4c62bb1fa9306ebd13e5433d3d0dd0b6b3b87",
      "transactionType": "CALL",
      "contractName": null,
      "contractAddress": "0x1da860c65ba8e821681d65e5cf8f58a5216b9168",
      "function": "allowFunction(address,bytes4)",
      "arguments": [
        "0x1dA860c65Ba8e821681D65E5Cf8f58A5216b9168",
        "0x60cff9b5"
      ],
      "transaction": {
        "from": "0xe2bc073e0d55274dba18a0e11463a5dfd16c5057",
        "to": "0x1da860c65ba8e821681d65e5cf8f58a5216b9168",
        "gas": "0x11fe3",
        "value": "0x0",
        "input": "0x60cff9b50000000000000000000000001da860c65ba8e821681d65e5cf8f58a5216b916860cff9b500000000000000000000000000000000000000000000000000000000",
        "nonce": "0x1d7d",
        "chainId": "0x66eee"
      },
      "additionalContracts": [],
      "isFixedGasLimit": false
    },
    {
      "hash": "0x00084748ec1435532caf9654d07b8ac272db21f42426227f47fcb28eb250fa72",
      "transactionType": "CALL",
      "contractName": null,
      "contractAddress": "0x1da860c65ba8e821681d65e5cf8f58a5216b9168",
      "function": "allowFunction(address,bytes4)",
      "arguments": [
        "0x62BA28fc85Dba80b1858E5B37134991CE90ae5A8",
        "0x338b5dea"
      ],
      "transaction": {
        "from": "0xe2bc073e0d55274dba18a0e11463a5dfd16c5057",
        "to": "0x1da860c65ba8e821681d65e5cf8f58a5216b9168",
        "gas": "0x11fe3",
        "value": "0x0",
        "input": "0x60cff9b500000000000000000000000062ba28fc85dba80b1858e5b37134991ce90ae5a8338b5dea00000000000000000000000000000000000000000000000000000000",
        "nonce": "0x1d7e",
        "chainId": "0x66eee"
      },
      "additionalContracts": [],
      "isFixedGasLimit": false
    },
    {
      "hash": "0xe11b549d7583d7578b9d036b3726a09f1aab3a2c7c21ccfbe6ade8d9367b7312",
      "transactionType": "CALL",
      "contractName": null,
      "contractAddress": "0x1da860c65ba8e821681d65e5cf8f58a5216b9168",
      "function": "allowFunction(address,bytes4)",
      "arguments": [
        "0x222afF0377468B4d88a44C70669AaFD968faC6c4",
        "0xa9059cbb"
      ],
      "transaction": {
        "from": "0xe2bc073e0d55274dba18a0e11463a5dfd16c5057",
        "to": "0x1da860c65ba8e821681d65e5cf8f58a5216b9168",
        "gas": "0x11fe3",
        "value": "0x0",
        "input": "0x60cff9b5000000000000000000000000222aff0377468b4d88a44c70669aafd968fac6c4a9059cbb00000000000000000000000000000000000000000000000000000000",
        "nonce": "0x1d7f",
        "chainId": "0x66eee"
      },
      "additionalContracts": [],
      "isFixedGasLimit": false
    },
    {
      "hash": "0x4c214330e5d0407155afc46c7aa78a096ef9d6079441c6c09e88ee62f988de5b",
      "transactionType": "CALL",
      "contractName": null,
      "contractAddress": "0x1da860c65ba8e821681d65e5cf8f58a5216b9168",
      "function": "allowFunction(address,bytes4)",
      "arguments": [
        "0x222afF0377468B4d88a44C70669AaFD968faC6c4",
        "0x095ea7b3"
      ],
      "transaction": {
        "from": "0xe2bc073e0d55274dba18a0e11463a5dfd16c5057",
        "to": "0x1da860c65ba8e821681d65e5cf8f58a5216b9168",
        "gas": "0x11fe3",
        "value": "0x0",
        "input": "0x60cff9b5000000000000000000000000222aff0377468b4d88a44c70669aafd968fac6c4095ea7b300000000000000000000000000000000000000000000000000000000",
        "nonce": "0x1d80",
        "chainId": "0x66eee"
      },
      "additionalContracts": [],
      "isFixedGasLimit": false
    },
    {
      "hash": "0xea295d843502c88011d088071926ec9e2441b9e4e7cec6677b60a432706ed84a",
      "transactionType": "CALL",
      "contractName": null,
      "contractAddress": "0x1da860c65ba8e821681d65e5cf8f58a5216b9168",
      "function": "updateServiceManager(address)",
      "arguments": [
        "0xaA63b3587DD9074728547b8280a71b53A9965cF4"
      ],
      "transaction": {
        "from": "0xe2bc073e0d55274dba18a0e11463a5dfd16c5057",
        "to": "0x1da860c65ba8e821681d65e5cf8f58a5216b9168",
        "gas": "0x86b2",
        "value": "0x0",
        "input": "0x7d847d1b000000000000000000000000aa63b3587dd9074728547b8280a71b53a9965cf4",
        "nonce": "0x1d81",
        "chainId": "0x66eee"
      },
      "additionalContracts": [],
      "isFixedGasLimit": false
    },
    {
      "hash": "0xe112d4a6920cd73c074775165aa8728ba9e732ab1e7e9962e2ce2e086de1613d",
      "transactionType": "CALL",
      "contractName": null,
      "contractAddress": "0x01031ae2a4a15144056a63d7dafaf238f1c99010",
      "function": "execTransaction(address,uint256,bytes,uint8,uint256,uint256,uint256,address,address,bytes)",
      "arguments": [
        "0x01031aE2A4a15144056a63D7dAFAf238f1c99010",
        "0",
        "0xe19a9dd90000000000000000000000001da860c65ba8e821681d65e5cf8f58a5216b9168",
        "0",
        "0",
        "0",
        "0",
        "0x0000000000000000000000000000000000000000",
        "0x0000000000000000000000000000000000000000",
        "0xe061bb2e59a45d258553f8eb75e345e1220e429b0c8ba3e484c2c706798415232675fc706c4b9e85d3123d24844f4ac98b317046225750da58156452ee01bcd21bf4754757a1541fe3c95e2f3a154b368b769ab1e4c7a55dee88e0f2f8100fede17bd3c5bad078b0d9f78eeace893f361af230817c01fd4d489b7d7e4d771f1f9c1b"
      ],
      "transaction": {
        "from": "0xe2bc073e0d55274dba18a0e11463a5dfd16c5057",
        "to": "0x01031ae2a4a15144056a63d7dafaf238f1c99010",
        "gas": "0x2004b",
        "value": "0x0",
        "input": "0x6a76120200000000000000000000000001031ae2a4a15144056a63d7dafaf238f1c990100000000000000000000000000000000000000000000000000000000000000000000000000000000000000000000000000000000000000000000000000000014000000000000000000000000000000000000000000000000000000000000000000000000000000000000000000000000000000000000000000000000000000000000000000000000000000000000000000000000000000000000000000000000000000000000000000000000000000000000000000000000000000000000000000000000000000000000000000000000000000000000000000000000000000000000000000000000000000000000000000000000000000000000000000000000000000000000000000000000000000000000000000000000000000000000001a00000000000000000000000000000000000000000000000000000000000000024e19a9dd90000000000000000000000001da860c65ba8e821681d65e5cf8f58a5216b9168000000000000000000000000000000000000000000000000000000000000000000000000000000000000000000000000000000000000000000000082e061bb2e59a45d258553f8eb75e345e1220e429b0c8ba3e484c2c706798415232675fc706c4b9e85d3123d24844f4ac98b317046225750da58156452ee01bcd21bf4754757a1541fe3c95e2f3a154b368b769ab1e4c7a55dee88e0f2f8100fede17bd3c5bad078b0d9f78eeace893f361af230817c01fd4d489b7d7e4d771f1f9c1b000000000000000000000000000000000000000000000000000000000000",
        "nonce": "0x1d82",
        "chainId": "0x66eee"
      },
      "additionalContracts": [],
      "isFixedGasLimit": false
    }
  ],
  "receipts": [
    {
      "status": "0x1",
      "cumulativeGasUsed": "0x51d1e",
      "logs": [],
      "logsBloom": "0x00000000000000000000000000000000000000000000000000000000000000000000000000000000000000000000000000000000000000000000000000000000000000000000000000000000000000000000000000000000000000000000000000000000000000000000000000000000000000000000000000000000000000000000000000000000000000000000000000000000000000000000000000000000000000000000000000000000000000000000000000000000000000000000000000000000000000000000000000000000000000000000000000000000000000000000000000000000000000000000000000000000000000000000000000000000",
      "type": "0x2",
      "transactionHash": "0x4450bd87215bf7b14e3dcb1905624d984b6ea3101e3d26b4d1017dd4d090c7c2",
      "transactionIndex": "0x3",
      "blockHash": "0xf219d1fce3f476d51c2a624ef2dae70782cd6f5ce31b82049781145eae955cc5",
      "blockNumber": "0x75d7d47",
      "gasUsed": "0x6942",
      "effectiveGasPrice": "0x5f5e100",
      "from": "0xe2bc073e0d55274dba18a0e11463a5dfd16c5057",
      "to": "0x1da860c65ba8e821681d65e5cf8f58a5216b9168",
      "contractAddress": null,
      "gasUsedForL1": "0x0",
      "l1BlockNumber": "0x7580a1"
    },
    {
      "status": "0x1",
      "cumulativeGasUsed": "0xc4d9",
      "logs": [
        {
          "address": "0x1da860c65ba8e821681d65e5cf8f58a5216b9168",
          "topics": [
            "0x8b9ed51018e2194e0c99cb3dd5a611c44d2eacf3d5ea3d2ab993857c58ff5cfe",
            "0x00000000000000000000000001031ae2a4a15144056a63d7dafaf238f1c99010",
            "0x6a76120200000000000000000000000000000000000000000000000000000000"
          ],
          "data": "0x",
          "blockHash": "0x844023d76626f545f1e6315d8cffe3f77ea9fadc62467cb4b8cbc0b942dab625",
          "blockNumber": "0x75d7d4f",
          "transactionHash": "0x5d3d5b819d76639c14dbf2a04318403e8d9ff3fa7474e2b29216eb5839933f9c",
          "transactionIndex": "0x1",
          "logIndex": "0x0",
          "removed": false
        }
      ],
      "logsBloom": "0x00004800000000000000000000000000001000000000000000000000000000000000000000000000000000000000000000000000000000000000000000000000000000000000004000200000000000000000000000000000000000000000000000000000000000000000010080000000000000000000000000000000000000000000000000000000000000000000000000000010000000000000000000000000000000000000000800000000000000000000000000000000000000000000000000000000000000000000000000000080000000000000000000000000000000000000000000000000000000000008000000000004000000000000000000000000",
      "type": "0x2",
      "transactionHash": "0x5d3d5b819d76639c14dbf2a04318403e8d9ff3fa7474e2b29216eb5839933f9c",
      "transactionIndex": "0x1",
      "blockHash": "0x844023d76626f545f1e6315d8cffe3f77ea9fadc62467cb4b8cbc0b942dab625",
      "blockNumber": "0x75d7d4f",
      "gasUsed": "0xc4d9",
      "effectiveGasPrice": "0x5f5e100",
      "from": "0xe2bc073e0d55274dba18a0e11463a5dfd16c5057",
      "to": "0x1da860c65ba8e821681d65e5cf8f58a5216b9168",
      "contractAddress": null,
      "gasUsedForL1": "0x0",
      "l1BlockNumber": "0x7580a1"
    },
    {
      "status": "0x1",
      "cumulativeGasUsed": "0xc4d9",
      "logs": [
        {
          "address": "0x1da860c65ba8e821681d65e5cf8f58a5216b9168",
          "topics": [
            "0x8b9ed51018e2194e0c99cb3dd5a611c44d2eacf3d5ea3d2ab993857c58ff5cfe",
            "0x00000000000000000000000001031ae2a4a15144056a63d7dafaf238f1c99010",
            "0xe19a9dd900000000000000000000000000000000000000000000000000000000"
          ],
          "data": "0x",
          "blockHash": "0x6c2acc906ba4223da0c28aa8e9e1b64cf0e5a6d16491a3b0dc1c45510aab8048",
          "blockNumber": "0x75d7d55",
          "transactionHash": "0x9324e00f7451e7208abecc900692b2e036c2eafd70a64ddabe6321ad32af9a36",
          "transactionIndex": "0x1",
          "logIndex": "0x0",
          "removed": false
        }
      ],
      "logsBloom": "0x00004800000000000000000000000000001000000000000000000000000000000000000000000000000000000000000000000000000000000000000000000000000000000000004000200000000000000000000000008000000000000000000000002000000000000000000000000000000000000000000000000000000000000000000000000000004000000000000000000000000000000000000000000000000000000000000800000000000000000000000000000000000000000000000000000000000000000000000000000080000000000000000000000000000000000000000000000000000000000008000000000004000000000000000000000000",
      "type": "0x2",
      "transactionHash": "0x9324e00f7451e7208abecc900692b2e036c2eafd70a64ddabe6321ad32af9a36",
      "transactionIndex": "0x1",
      "blockHash": "0x6c2acc906ba4223da0c28aa8e9e1b64cf0e5a6d16491a3b0dc1c45510aab8048",
      "blockNumber": "0x75d7d55",
      "gasUsed": "0xc4d9",
      "effectiveGasPrice": "0x5f5e100",
      "from": "0xe2bc073e0d55274dba18a0e11463a5dfd16c5057",
      "to": "0x1da860c65ba8e821681d65e5cf8f58a5216b9168",
      "contractAddress": null,
      "gasUsedForL1": "0x0",
      "l1BlockNumber": "0x7580a1"
    },
    {
      "status": "0x1",
      "cumulativeGasUsed": "0x21747",
      "logs": [
        {
          "address": "0x1da860c65ba8e821681d65e5cf8f58a5216b9168",
          "topics": [
            "0x8b9ed51018e2194e0c99cb3dd5a611c44d2eacf3d5ea3d2ab993857c58ff5cfe",
            "0x0000000000000000000000001da860c65ba8e821681d65e5cf8f58a5216b9168",
            "0x60cff9b500000000000000000000000000000000000000000000000000000000"
          ],
          "data": "0x",
          "blockHash": "0xc2642a894627850f90be8d4c84241df59cbbd2c7eb995aaad077174fcbdd69ef",
          "blockNumber": "0x75d7d5b",
          "transactionHash": "0xe2b0091eccc3e3ec704f7992d0f4c62bb1fa9306ebd13e5433d3d0dd0b6b3b87",
          "transactionIndex": "0x2",
          "logIndex": "0x1",
          "removed": false
        }
      ],
      "logsBloom": "0x00000000000000000000000000000000001000000000000000000000000000000000000000000000000000000000000040000000000000000000000000000000000000000000004010200000000000000000000000000000000000000000000000000000000000000000000000000000000000000000000000000000001000000000000000000000000000000000008000000000000000000040000000000000000000000000000800000000000000000000000000000000000000000000000000000000000000000000000000000080000000000000000000000000000000000000000000000000000000000008000000000000000000000000000000008000",
      "type": "0x2",
      "transactionHash": "0xe2b0091eccc3e3ec704f7992d0f4c62bb1fa9306ebd13e5433d3d0dd0b6b3b87",
      "transactionIndex": "0x2",
      "blockHash": "0xc2642a894627850f90be8d4c84241df59cbbd2c7eb995aaad077174fcbdd69ef",
      "blockNumber": "0x75d7d5b",
      "gasUsed": "0xc4d9",
      "effectiveGasPrice": "0x5f5e100",
      "from": "0xe2bc073e0d55274dba18a0e11463a5dfd16c5057",
      "to": "0x1da860c65ba8e821681d65e5cf8f58a5216b9168",
      "contractAddress": null,
      "gasUsedForL1": "0x0",
      "l1BlockNumber": "0x7580a1"
    },
    {
      "status": "0x1",
      "cumulativeGasUsed": "0xc4d9",
      "logs": [
        {
          "address": "0x1da860c65ba8e821681d65e5cf8f58a5216b9168",
          "topics": [
            "0x8b9ed51018e2194e0c99cb3dd5a611c44d2eacf3d5ea3d2ab993857c58ff5cfe",
            "0x00000000000000000000000062ba28fc85dba80b1858e5b37134991ce90ae5a8",
            "0x338b5dea00000000000000000000000000000000000000000000000000000000"
          ],
          "data": "0x",
          "blockHash": "0xbaca1c940d7ed6c107440848736b69025d46ee6a6ed580a6ed2a66c266f692e9",
          "blockNumber": "0x75d7d61",
          "transactionHash": "0x00084748ec1435532caf9654d07b8ac272db21f42426227f47fcb28eb250fa72",
          "transactionIndex": "0x1",
          "logIndex": "0x0",
          "removed": false
        }
      ],
      "logsBloom": "0x00000000000100000000000000000008001000000000000000000000000000000000000000000000000000000000000000000000000000000000001000000000000000000000004000200000000000000000000000000000000000000000000000000000000000000000000000000000000000000000000100000000000000000000000000004000000000000000000000000000000000000000000000008000000000000000000800000000000000000000000000000000000000000000000000000000000000000000000000000080000000000000000000000000000000000000000000000000000000000008000000000000000000000000000000000000",
      "type": "0x2",
      "transactionHash": "0x00084748ec1435532caf9654d07b8ac272db21f42426227f47fcb28eb250fa72",
      "transactionIndex": "0x1",
      "blockHash": "0xbaca1c940d7ed6c107440848736b69025d46ee6a6ed580a6ed2a66c266f692e9",
      "blockNumber": "0x75d7d61",
      "gasUsed": "0xc4d9",
      "effectiveGasPrice": "0x5f5e100",
      "from": "0xe2bc073e0d55274dba18a0e11463a5dfd16c5057",
      "to": "0x1da860c65ba8e821681d65e5cf8f58a5216b9168",
      "contractAddress": null,
      "gasUsedForL1": "0x0",
      "l1BlockNumber": "0x7580a1"
    },
    {
      "status": "0x1",
      "cumulativeGasUsed": "0x1a0e2",
      "logs": [
        {
          "address": "0x1da860c65ba8e821681d65e5cf8f58a5216b9168",
          "topics": [
            "0x8b9ed51018e2194e0c99cb3dd5a611c44d2eacf3d5ea3d2ab993857c58ff5cfe",
            "0x000000000000000000000000222aff0377468b4d88a44c70669aafd968fac6c4",
            "0xa9059cbb00000000000000000000000000000000000000000000000000000000"
          ],
          "data": "0x",
          "blockHash": "0x402aa45f996bfb4cdb675ae7b05a43b92420505be26b47343a71c9fb15a43b35",
          "blockNumber": "0x75d7d67",
          "transactionHash": "0xe11b549d7583d7578b9d036b3726a09f1aab3a2c7c21ccfbe6ade8d9367b7312",
          "transactionIndex": "0x2",
          "logIndex": "0x1",
          "removed": false
        }
      ],
      "logsBloom": "0x00000000000000000000000000000000001000000000000000000000000000000000000000000000000000000000000000000000000000000000000000000000000000000000004000304000000000000000000000000040040000000000000000000000000000000000000000000000000000000000000000000000000000000000000000000000000000000000000000000000000000100000000000000000000000000000000800000000000000000000000000000000000000000000000000000000000000000000000000000080000000000000000000000000000400000000000000000000000000000008000000000000000000000000000000000000",
      "type": "0x2",
      "transactionHash": "0xe11b549d7583d7578b9d036b3726a09f1aab3a2c7c21ccfbe6ade8d9367b7312",
      "transactionIndex": "0x2",
      "blockHash": "0x402aa45f996bfb4cdb675ae7b05a43b92420505be26b47343a71c9fb15a43b35",
      "blockNumber": "0x75d7d67",
      "gasUsed": "0xc4d9",
      "effectiveGasPrice": "0x5f5e100",
      "from": "0xe2bc073e0d55274dba18a0e11463a5dfd16c5057",
      "to": "0x1da860c65ba8e821681d65e5cf8f58a5216b9168",
      "contractAddress": null,
      "gasUsedForL1": "0x0",
      "l1BlockNumber": "0x7580a1"
    },
    {
      "status": "0x1",
      "cumulativeGasUsed": "0xb18bd",
      "logs": [
        {
          "address": "0x1da860c65ba8e821681d65e5cf8f58a5216b9168",
          "topics": [
            "0x8b9ed51018e2194e0c99cb3dd5a611c44d2eacf3d5ea3d2ab993857c58ff5cfe",
            "0x000000000000000000000000222aff0377468b4d88a44c70669aafd968fac6c4",
            "0x095ea7b300000000000000000000000000000000000000000000000000000000"
          ],
          "data": "0x",
          "blockHash": "0xa7b743ef9abaceaf15ceaae30f6092c33b79ae0fb4555bf0f22ea1efc6e3408d",
          "blockNumber": "0x75d7d6d",
          "transactionHash": "0x4c214330e5d0407155afc46c7aa78a096ef9d6079441c6c09e88ee62f988de5b",
          "transactionIndex": "0x2",
          "logIndex": "0x1",
          "removed": false
        }
      ],
      "logsBloom": "0x00000000000000000000000000000000001000000000000000000000000000000000000000000000000000000400000000000000000000000008000000000000000000000000004000200000000000000000000000000040040000000000000000000000000000000000000000000000000000000000000000000000000000000000000000000000000000000000000000000000000000000000000000000000000000000000000800000000000000000000000000000000000000000000000000000008000000000000000000000080000000000000000000000000000400000000000000000000000000000008000000000000000000000000000000000000",
      "type": "0x2",
      "transactionHash": "0x4c214330e5d0407155afc46c7aa78a096ef9d6079441c6c09e88ee62f988de5b",
      "transactionIndex": "0x2",
      "blockHash": "0xa7b743ef9abaceaf15ceaae30f6092c33b79ae0fb4555bf0f22ea1efc6e3408d",
      "blockNumber": "0x75d7d6d",
      "gasUsed": "0xc4d9",
      "effectiveGasPrice": "0x5f5e100",
      "from": "0xe2bc073e0d55274dba18a0e11463a5dfd16c5057",
      "to": "0x1da860c65ba8e821681d65e5cf8f58a5216b9168",
      "contractAddress": null,
      "gasUsedForL1": "0x0",
      "l1BlockNumber": "0x7580a1"
    },
    {
      "status": "0x1",
      "cumulativeGasUsed": "0x278d2",
      "logs": [],
      "logsBloom": "0x00000000000000000000000000000000000000000000000000000000000000000000000000000000000000000000000000000000000000000000000000000000000000000000000000000000000000000000000000000000000000000000000000000000000000000000000000000000000000000000000000000000000000000000000000000000000000000000000000000000000000000000000000000000000000000000000000000000000000000000000000000000000000000000000000000000000000000000000000000000000000000000000000000000000000000000000000000000000000000000000000000000000000000000000000000000",
      "type": "0x2",
      "transactionHash": "0xea295d843502c88011d088071926ec9e2441b9e4e7cec6677b60a432706ed84a",
      "transactionIndex": "0x3",
      "blockHash": "0xa0c5b110331b78465d898c7e9808b8cb749f3727e0a57b3c16d2744ea634c4d6",
      "blockNumber": "0x75d7d73",
      "gasUsed": "0x6942",
      "effectiveGasPrice": "0x5f5e100",
      "from": "0xe2bc073e0d55274dba18a0e11463a5dfd16c5057",
      "to": "0x1da860c65ba8e821681d65e5cf8f58a5216b9168",
      "contractAddress": null,
      "gasUsedForL1": "0x0",
      "l1BlockNumber": "0x7580a2"
    },
    {
      "status": "0x1",
      "cumulativeGasUsed": "0x18273",
      "logs": [
        {
          "address": "0x01031ae2a4a15144056a63d7dafaf238f1c99010",
          "topics": [
            "0x1151116914515bc0891ff9047a6cb32cf902546f83066499bcf8ba33d2353fa2",
            "0x0000000000000000000000001da860c65ba8e821681d65e5cf8f58a5216b9168"
          ],
          "data": "0x",
          "blockHash": "0xc4829b72ff7e6a695e55320bfb3b187c2b0577fc6de4ce1534dbd0102d66906e",
          "blockNumber": "0x75d7d7b",
          "transactionHash": "0xe112d4a6920cd73c074775165aa8728ba9e732ab1e7e9962e2ce2e086de1613d",
          "transactionIndex": "0x1",
          "logIndex": "0x0",
          "removed": false
        },
        {
          "address": "0x01031ae2a4a15144056a63d7dafaf238f1c99010",
          "topics": [
            "0x442e715f626346e8c54381002da614f62bee8d27386535b2521ec8540898556e",
            "0xbc73fa26a895ae8fc36606d10e4210ffc5cf5ef76b502ef6459c4545c7f0f42a"
          ],
          "data": "0x0000000000000000000000000000000000000000000000000000000000000000",
          "blockHash": "0xc4829b72ff7e6a695e55320bfb3b187c2b0577fc6de4ce1534dbd0102d66906e",
          "blockNumber": "0x75d7d7b",
          "transactionHash": "0xe112d4a6920cd73c074775165aa8728ba9e732ab1e7e9962e2ce2e086de1613d",
          "transactionIndex": "0x1",
          "logIndex": "0x1",
          "removed": false
        }
      ],
      "logsBloom": "0x00000000500000000000000000000000000000000000000000000000040000000000000000000000000000000000000040000000020000000000000001000000000000000020000010000000000000000000000000000000000000000000000000000000000000000000000000000000000000001000000000000000001000000000000000000000000000000000000000000000000000000000000000000000000000000000800000000000000004000000000000000000000000000000000000000000000000000000000000000000000000000000000000000000000000000000000000000004002000000000000000020000000000000000000000000000",
      "type": "0x2",
      "transactionHash": "0xe112d4a6920cd73c074775165aa8728ba9e732ab1e7e9962e2ce2e086de1613d",
      "transactionIndex": "0x1",
      "blockHash": "0xc4829b72ff7e6a695e55320bfb3b187c2b0577fc6de4ce1534dbd0102d66906e",
      "blockNumber": "0x75d7d7b",
      "gasUsed": "0x18273",
      "effectiveGasPrice": "0x5f5e100",
      "from": "0xe2bc073e0d55274dba18a0e11463a5dfd16c5057",
      "to": "0x01031ae2a4a15144056a63d7dafaf238f1c99010",
      "contractAddress": null,
      "gasUsedForL1": "0x0",
      "l1BlockNumber": "0x7580a2"
    }
  ],
  "libraries": [],
  "pending": [],
  "returns": {},
  "timestamp": 1739470150,
  "chain": 421614,
  "commit": "a2768b5"
}