{
  "transactions": [
    {
      "hash": "0xbb4e7a0a97808ce5d0995b2daa5d6d0a065258ba4c100a59c469f8c76438627e",
      "transactionType": "CALL",
      "contractName": null,
      "contractAddress": "0x62ba738e2085c901a90a65db28a27f949a135edc",
      "function": "updateServiceManager(address)",
      "arguments": [
        "0xe2Bc073E0d55274DBa18A0E11463A5DfD16c5057"
      ],
      "transaction": {
        "from": "0xe2bc073e0d55274dba18a0e11463a5dfd16c5057",
        "to": "0x62ba738e2085c901a90a65db28a27f949a135edc",
        "gas": "0x86b5",
        "value": "0x0",
        "input": "0x7d847d1b000000000000000000000000e2bc073e0d55274dba18a0e11463a5dfd16c5057",
        "nonce": "0x1d53",
        "chainId": "0x66eee"
      },
      "additionalContracts": [],
      "isFixedGasLimit": false
    },
    {
      "hash": "0x4e05dda8fcd54eb18b75db859b6080b809675b04e54cae138981c9b416676b75",
      "transactionType": "CALL",
      "contractName": null,
      "contractAddress": "0x62ba738e2085c901a90a65db28a27f949a135edc",
      "function": "allowFunction(address,bytes4)",
      "arguments": [
        "0xE885e8B5855aE72b28E26C02b5c8D3d66bE4C7E8",
        "0x6a761202"
      ],
      "transaction": {
        "from": "0xe2bc073e0d55274dba18a0e11463a5dfd16c5057",
        "to": "0x62ba738e2085c901a90a65db28a27f949a135edc",
        "gas": "0x9e70",
        "value": "0x0",
        "input": "0x60cff9b5000000000000000000000000e885e8b5855ae72b28e26c02b5c8d3d66be4c7e86a76120200000000000000000000000000000000000000000000000000000000",
        "nonce": "0x1d54",
        "chainId": "0x66eee"
      },
      "additionalContracts": [],
      "isFixedGasLimit": false
    },
    {
      "hash": "0x56efca5b86acbdf26f625bd2e12d5753c063974cdad8b275e1031d6e0a8ac079",
      "transactionType": "CALL",
      "contractName": null,
      "contractAddress": "0x62ba738e2085c901a90a65db28a27f949a135edc",
      "function": "allowFunction(address,bytes4)",
      "arguments": [
        "0xE885e8B5855aE72b28E26C02b5c8D3d66bE4C7E8",
        "0xe19a9dd9"
      ],
      "transaction": {
        "from": "0xe2bc073e0d55274dba18a0e11463a5dfd16c5057",
        "to": "0x62ba738e2085c901a90a65db28a27f949a135edc",
        "gas": "0x9e70",
        "value": "0x0",
        "input": "0x60cff9b5000000000000000000000000e885e8b5855ae72b28e26c02b5c8d3d66be4c7e8e19a9dd900000000000000000000000000000000000000000000000000000000",
        "nonce": "0x1d55",
        "chainId": "0x66eee"
      },
      "additionalContracts": [],
      "isFixedGasLimit": false
    },
    {
      "hash": "0xf91622f7783d70545174380e6434b48dd54b574caa8b552d148694c2f36efae8",
      "transactionType": "CALL",
      "contractName": null,
      "contractAddress": "0x62ba738e2085c901a90a65db28a27f949a135edc",
      "function": "allowFunction(address,bytes4)",
      "arguments": [
        "0x62BA738e2085c901a90a65db28A27f949a135edC",
        "0x60cff9b5"
      ],
      "transaction": {
        "from": "0xe2bc073e0d55274dba18a0e11463a5dfd16c5057",
        "to": "0x62ba738e2085c901a90a65db28a27f949a135edc",
        "gas": "0x9e70",
        "value": "0x0",
        "input": "0x60cff9b500000000000000000000000062ba738e2085c901a90a65db28a27f949a135edc60cff9b500000000000000000000000000000000000000000000000000000000",
        "nonce": "0x1d56",
        "chainId": "0x66eee"
      },
      "additionalContracts": [],
      "isFixedGasLimit": false
    },
    {
      "hash": "0x7bff5418d3882dc8ae83feb151b556dedd72a563ed5ab384d1c73624f02112d9",
      "transactionType": "CALL",
      "contractName": null,
      "contractAddress": "0x62ba738e2085c901a90a65db28a27f949a135edc",
      "function": "allowFunction(address,bytes4)",
      "arguments": [
        "0x62BA28fc85Dba80b1858E5B37134991CE90ae5A8",
        "0x338b5dea"
      ],
      "transaction": {
        "from": "0xe2bc073e0d55274dba18a0e11463a5dfd16c5057",
        "to": "0x62ba738e2085c901a90a65db28a27f949a135edc",
        "gas": "0x9e70",
        "value": "0x0",
        "input": "0x60cff9b500000000000000000000000062ba28fc85dba80b1858e5b37134991ce90ae5a8338b5dea00000000000000000000000000000000000000000000000000000000",
        "nonce": "0x1d57",
        "chainId": "0x66eee"
      },
      "additionalContracts": [],
      "isFixedGasLimit": false
    },
    {
      "hash": "0xc2c833183085b6aece0a18014e7dc4d30a5e8d72d7dc64e0f8e5398066be5085",
      "transactionType": "CALL",
      "contractName": null,
      "contractAddress": "0x62ba738e2085c901a90a65db28a27f949a135edc",
      "function": "allowFunction(address,bytes4)",
      "arguments": [
        "0x222afF0377468B4d88a44C70669AaFD968faC6c4",
        "0xa9059cbb"
      ],
      "transaction": {
        "from": "0xe2bc073e0d55274dba18a0e11463a5dfd16c5057",
        "to": "0x62ba738e2085c901a90a65db28a27f949a135edc",
        "gas": "0x9e70",
        "value": "0x0",
        "input": "0x60cff9b5000000000000000000000000222aff0377468b4d88a44c70669aafd968fac6c4a9059cbb00000000000000000000000000000000000000000000000000000000",
        "nonce": "0x1d58",
        "chainId": "0x66eee"
      },
      "additionalContracts": [],
      "isFixedGasLimit": false
    },
    {
      "hash": "0xee8f0c64fc1333dfeda5d61b64e27708957754ba881d45b27a849ad63aa6d977",
      "transactionType": "CALL",
      "contractName": null,
      "contractAddress": "0x62ba738e2085c901a90a65db28a27f949a135edc",
      "function": "allowFunction(address,bytes4)",
      "arguments": [
        "0x222afF0377468B4d88a44C70669AaFD968faC6c4",
        "0x095ea7b3"
      ],
      "transaction": {
        "from": "0xe2bc073e0d55274dba18a0e11463a5dfd16c5057",
        "to": "0x62ba738e2085c901a90a65db28a27f949a135edc",
        "gas": "0x9e70",
        "value": "0x0",
        "input": "0x60cff9b5000000000000000000000000222aff0377468b4d88a44c70669aafd968fac6c4095ea7b300000000000000000000000000000000000000000000000000000000",
        "nonce": "0x1d59",
        "chainId": "0x66eee"
      },
      "additionalContracts": [],
      "isFixedGasLimit": false
    },
    {
      "hash": "0xe8c88f1d468e1de815e5d9c04c136dfbcdd44554a716694aa9cd95b2e655709f",
      "transactionType": "CALL",
      "contractName": null,
      "contractAddress": "0x62ba738e2085c901a90a65db28a27f949a135edc",
      "function": "updateServiceManager(address)",
      "arguments": [
        "0xaA63b3587DD9074728547b8280a71b53A9965cF4"
      ],
      "transaction": {
        "from": "0xe2bc073e0d55274dba18a0e11463a5dfd16c5057",
        "to": "0x62ba738e2085c901a90a65db28a27f949a135edc",
        "gas": "0x8a97",
        "value": "0x0",
        "input": "0x7d847d1b000000000000000000000000aa63b3587dd9074728547b8280a71b53a9965cf4",
        "nonce": "0x1d5a",
        "chainId": "0x66eee"
      },
      "additionalContracts": [],
      "isFixedGasLimit": false
    },
    {
      "hash": "0xf82b49d3930f43b1927d8724b203a915f057cfd99b78b94d595e12522af519e6",
      "transactionType": "CALL",
      "contractName": null,
      "contractAddress": "0xe885e8b5855ae72b28e26c02b5c8d3d66be4c7e8",
      "function": "execTransaction(address,uint256,bytes,uint8,uint256,uint256,uint256,address,address,bytes)",
      "arguments": [
        "0xE885e8B5855aE72b28E26C02b5c8D3d66bE4C7E8",
        "0",
        "0xe19a9dd900000000000000000000000062ba738e2085c901a90a65db28a27f949a135edc",
        "0",
        "0",
        "0",
        "0",
        "0x0000000000000000000000000000000000000000",
        "0x0000000000000000000000000000000000000000",
        "0xeadea3f4f25d56ae5c14e05b3e6df3ed6d8e12d3f46c1b5cd9ca0c54d6831fa160dae44d22e19696031dd5eb3e75539ab321e170850bb99cb783f0b306a246f11b9de29df7bc6bddfdc4df31afa2325539d856e0a66532079174376f5d651d511908c83ba15ffc2f00f6070b73f48a6869c874e3160ade1a291b12fc0fc719a3661c"
      ],
      "transaction": {
        "from": "0xe2bc073e0d55274dba18a0e11463a5dfd16c5057",
        "to": "0xe885e8b5855ae72b28e26c02b5c8d3d66be4c7e8",
        "gas": "0x17c0a",
        "value": "0x0",
        "input": "0x6a761202000000000000000000000000e885e8b5855ae72b28e26c02b5c8d3d66be4c7e80000000000000000000000000000000000000000000000000000000000000000000000000000000000000000000000000000000000000000000000000000014000000000000000000000000000000000000000000000000000000000000000000000000000000000000000000000000000000000000000000000000000000000000000000000000000000000000000000000000000000000000000000000000000000000000000000000000000000000000000000000000000000000000000000000000000000000000000000000000000000000000000000000000000000000000000000000000000000000000000000000000000000000000000000000000000000000000000000000000000000000000000000000000000000000000001a00000000000000000000000000000000000000000000000000000000000000024e19a9dd900000000000000000000000062ba738e2085c901a90a65db28a27f949a135edc000000000000000000000000000000000000000000000000000000000000000000000000000000000000000000000000000000000000000000000082eadea3f4f25d56ae5c14e05b3e6df3ed6d8e12d3f46c1b5cd9ca0c54d6831fa160dae44d22e19696031dd5eb3e75539ab321e170850bb99cb783f0b306a246f11b9de29df7bc6bddfdc4df31afa2325539d856e0a66532079174376f5d651d511908c83ba15ffc2f00f6070b73f48a6869c874e3160ade1a291b12fc0fc719a3661c000000000000000000000000000000000000000000000000000000000000",
        "nonce": "0x1d5b",
        "chainId": "0x66eee"
      },
      "additionalContracts": [],
      "isFixedGasLimit": false
    }
  ],
  "receipts": [
    {
      "status": "0x1",
      "cumulativeGasUsed": "0x5e54",
      "logs": [],
      "logsBloom": "0x00000000000000000000000000000000000000000000000000000000000000000000000000000000000000000000000000000000000000000000000000000000000000000000000000000000000000000000000000000000000000000000000000000000000000000000000000000000000000000000000000000000000000000000000000000000000000000000000000000000000000000000000000000000000000000000000000000000000000000000000000000000000000000000000000000000000000000000000000000000000000000000000000000000000000000000000000000000000000000000000000000000000000000000000000000000",
      "type": "0x2",
      "transactionHash": "0xbb4e7a0a97808ce5d0995b2daa5d6d0a065258ba4c100a59c469f8c76438627e",
      "transactionIndex": "0x1",
      "blockHash": "0x69ffbcd39f2baaaf9591b155bb91fbccdbf4b3b8454be530b64910ccfe68ed4d",
      "blockNumber": "0x75d6685",
      "gasUsed": "0x5e54",
      "effectiveGasPrice": "0x5f5e100",
      "from": "0xe2bc073e0d55274dba18a0e11463a5dfd16c5057",
      "to": "0x62ba738e2085c901a90a65db28a27f949a135edc",
      "contractAddress": null,
      "gasUsedForL1": "0x0",
      "l1BlockNumber": "0x758019"
    },
    {
      "status": "0x1",
      "cumulativeGasUsed": "0x7720",
      "logs": [
        {
          "address": "0x62ba738e2085c901a90a65db28a27f949a135edc",
          "topics": [
            "0x8b9ed51018e2194e0c99cb3dd5a611c44d2eacf3d5ea3d2ab993857c58ff5cfe",
            "0x000000000000000000000000e885e8b5855ae72b28e26c02b5c8d3d66be4c7e8",
            "0x6a76120200000000000000000000000000000000000000000000000000000000"
          ],
          "data": "0x",
          "blockHash": "0xfe26418b62747a673e8c19e12ac8a933e8955f8c893c2403945ac5b8d98ade6b",
          "blockNumber": "0x75d668a",
          "transactionHash": "0x4e05dda8fcd54eb18b75db859b6080b809675b04e54cae138981c9b416676b75",
          "transactionIndex": "0x1",
          "logIndex": "0x0",
          "removed": false
        }
      ],
      "logsBloom": "0x00000000000000000000000000000000001000000000000000000000000000000000000000000000000000000000000000000000000000000000000000000000000000000000004000000000000000000000000000000000000000000000000000000000000000000000010080000000000000000000000000000000000000000000000000000000010000000000000000000010000000800000000000000000000000000000000000000000000000000000000000000000000000000000000000000000000000000000000000000000000000000000000000000000000000000008000000000000000000000008000000000000020000040000000040000000",
      "type": "0x2",
      "transactionHash": "0x4e05dda8fcd54eb18b75db859b6080b809675b04e54cae138981c9b416676b75",
      "transactionIndex": "0x1",
      "blockHash": "0xfe26418b62747a673e8c19e12ac8a933e8955f8c893c2403945ac5b8d98ade6b",
      "blockNumber": "0x75d668a",
      "gasUsed": "0x7720",
      "effectiveGasPrice": "0x5f5e100",
      "from": "0xe2bc073e0d55274dba18a0e11463a5dfd16c5057",
      "to": "0x62ba738e2085c901a90a65db28a27f949a135edc",
      "contractAddress": null,
      "gasUsedForL1": "0x0",
      "l1BlockNumber": "0x758019"
    },
    {
      "status": "0x1",
      "cumulativeGasUsed": "0x7720",
      "logs": [
        {
          "address": "0x62ba738e2085c901a90a65db28a27f949a135edc",
          "topics": [
            "0x8b9ed51018e2194e0c99cb3dd5a611c44d2eacf3d5ea3d2ab993857c58ff5cfe",
            "0x000000000000000000000000e885e8b5855ae72b28e26c02b5c8d3d66be4c7e8",
            "0xe19a9dd900000000000000000000000000000000000000000000000000000000"
          ],
          "data": "0x",
          "blockHash": "0x4a8c13cf38229d8345c2c4fb9415f8f9de27a8ade47711b0ed7c51e1f23b52ec",
          "blockNumber": "0x75d668f",
          "transactionHash": "0x56efca5b86acbdf26f625bd2e12d5753c063974cdad8b275e1031d6e0a8ac079",
          "transactionIndex": "0x1",
          "logIndex": "0x0",
          "removed": false
        }
      ],
      "logsBloom": "0x00000000000000000000000000000000001000000000000000000000000000000000000000000000000000000000000000000000000000000000000000000000000000000000004000000000000000000000000000008000000000000000000000002000000000000000000000000000000000000000000000000000000000000000000000000000014000000000000000000000000000800000000000000000000000000000000000000000000000000000000000000000000000000000000000000000000000000000000000000000000000000000000000000000000000000008000000000000000000000008000000000000020000040000000040000000",
      "type": "0x2",
      "transactionHash": "0x56efca5b86acbdf26f625bd2e12d5753c063974cdad8b275e1031d6e0a8ac079",
      "transactionIndex": "0x1",
      "blockHash": "0x4a8c13cf38229d8345c2c4fb9415f8f9de27a8ade47711b0ed7c51e1f23b52ec",
      "blockNumber": "0x75d668f",
      "gasUsed": "0x7720",
      "effectiveGasPrice": "0x5f5e100",
      "from": "0xe2bc073e0d55274dba18a0e11463a5dfd16c5057",
      "to": "0x62ba738e2085c901a90a65db28a27f949a135edc",
      "contractAddress": null,
      "gasUsedForL1": "0x0",
      "l1BlockNumber": "0x758019"
    },
    {
      "status": "0x1",
      "cumulativeGasUsed": "0x7720",
      "logs": [
        {
          "address": "0x62ba738e2085c901a90a65db28a27f949a135edc",
          "topics": [
            "0x8b9ed51018e2194e0c99cb3dd5a611c44d2eacf3d5ea3d2ab993857c58ff5cfe",
            "0x00000000000000000000000062ba738e2085c901a90a65db28a27f949a135edc",
            "0x60cff9b500000000000000000000000000000000000000000000000000000000"
          ],
          "data": "0x",
          "blockHash": "0x30fec2abc61d1bef590dc6146cf1d44237754a2328775cbad49bfc4df0d08c0b",
          "blockNumber": "0x75d6692",
          "transactionHash": "0xf91622f7783d70545174380e6434b48dd54b574caa8b552d148694c2f36efae8",
          "transactionIndex": "0x1",
          "logIndex": "0x0",
          "removed": false
        }
      ],
      "logsBloom": "0x00000000000000000000000000000000001000000000000000000000000000000000000000000000000000000000000000008000000000000000000000000000000000000000004800000000000000000000000000000000000000000000000000000000000000000000000000000000000000000000000000000000000000000000000000000000010000000000008000000000000000000040000000000000000020000000000000000000000000000000000000000000000000000000000000000000000000000000000000000000000000000000000000000000000000000000000000000000000000000008000000000000020000040000000000008000",
      "type": "0x2",
      "transactionHash": "0xf91622f7783d70545174380e6434b48dd54b574caa8b552d148694c2f36efae8",
      "transactionIndex": "0x1",
      "blockHash": "0x30fec2abc61d1bef590dc6146cf1d44237754a2328775cbad49bfc4df0d08c0b",
      "blockNumber": "0x75d6692",
      "gasUsed": "0x7720",
      "effectiveGasPrice": "0x5f5e100",
      "from": "0xe2bc073e0d55274dba18a0e11463a5dfd16c5057",
      "to": "0x62ba738e2085c901a90a65db28a27f949a135edc",
      "contractAddress": null,
      "gasUsedForL1": "0x0",
      "l1BlockNumber": "0x758019"
    },
    {
      "status": "0x1",
      "cumulativeGasUsed": "0x7720",
      "logs": [
        {
          "address": "0x62ba738e2085c901a90a65db28a27f949a135edc",
          "topics": [
            "0x8b9ed51018e2194e0c99cb3dd5a611c44d2eacf3d5ea3d2ab993857c58ff5cfe",
            "0x00000000000000000000000062ba28fc85dba80b1858e5b37134991ce90ae5a8",
            "0x338b5dea00000000000000000000000000000000000000000000000000000000"
          ],
          "data": "0x",
          "blockHash": "0xe9bf14950b6ab2e346bef0b690dfca48f8f6c440b31ca0828a736d0d0011a0a1",
          "blockNumber": "0x75d6697",
          "transactionHash": "0x7bff5418d3882dc8ae83feb151b556dedd72a563ed5ab384d1c73624f02112d9",
          "transactionIndex": "0x1",
          "logIndex": "0x0",
          "removed": false
        }
      ],
      "logsBloom": "0x00000000000100000000000000000008001000000000000000000000000000000000000000000000000000000000000000000000000000000000001000000000000000000000004000000000000000000000000000000000000000000000000000000000000000000000000000000000000000000000000100000000000000000000000000004000010000000000000000000000000000000000000000008000000000000000000000000000000000000000000000000000000000000000000000000000000000000000000000000000000000000000000000000000000000000000000000000000000000000008000000000000020000040000000000000000",
      "type": "0x2",
      "transactionHash": "0x7bff5418d3882dc8ae83feb151b556dedd72a563ed5ab384d1c73624f02112d9",
      "transactionIndex": "0x1",
      "blockHash": "0xe9bf14950b6ab2e346bef0b690dfca48f8f6c440b31ca0828a736d0d0011a0a1",
      "blockNumber": "0x75d6697",
      "gasUsed": "0x7720",
      "effectiveGasPrice": "0x5f5e100",
      "from": "0xe2bc073e0d55274dba18a0e11463a5dfd16c5057",
      "to": "0x62ba738e2085c901a90a65db28a27f949a135edc",
      "contractAddress": null,
      "gasUsedForL1": "0x0",
      "l1BlockNumber": "0x758019"
    },
    {
      "status": "0x1",
      "cumulativeGasUsed": "0x7720",
      "logs": [
        {
          "address": "0x62ba738e2085c901a90a65db28a27f949a135edc",
          "topics": [
            "0x8b9ed51018e2194e0c99cb3dd5a611c44d2eacf3d5ea3d2ab993857c58ff5cfe",
            "0x000000000000000000000000222aff0377468b4d88a44c70669aafd968fac6c4",
            "0xa9059cbb00000000000000000000000000000000000000000000000000000000"
          ],
          "data": "0x",
          "blockHash": "0x7701ac07135931b360eb4c15f59bd10fd1c886b1d591f425acf027504b201088",
          "blockNumber": "0x75d669e",
          "transactionHash": "0xc2c833183085b6aece0a18014e7dc4d30a5e8d72d7dc64e0f8e5398066be5085",
          "transactionIndex": "0x1",
          "logIndex": "0x0",
          "removed": false
        }
      ],
      "logsBloom": "0x00000000000000000000000000000000001000000000000000000000000000000000000000000000000000000000000000000000000000000000000000000000000000000000004000104000000000000000000000000040040000000000000000000000000000000000000000000000000000000000000000000000000000000000000000000000010000000000000000000000000000100000000000000000000000000000000000000000000000000000000000000000000000000000000000000000000000000000000000000000000000000000000000000000000400000000000000000000000000000008000000000000020000040000000000000000",
      "type": "0x2",
      "transactionHash": "0xc2c833183085b6aece0a18014e7dc4d30a5e8d72d7dc64e0f8e5398066be5085",
      "transactionIndex": "0x1",
      "blockHash": "0x7701ac07135931b360eb4c15f59bd10fd1c886b1d591f425acf027504b201088",
      "blockNumber": "0x75d669e",
      "gasUsed": "0x7720",
      "effectiveGasPrice": "0x5f5e100",
      "from": "0xe2bc073e0d55274dba18a0e11463a5dfd16c5057",
      "to": "0x62ba738e2085c901a90a65db28a27f949a135edc",
      "contractAddress": null,
      "gasUsedForL1": "0x0",
      "l1BlockNumber": "0x758019"
    },
    {
      "status": "0x1",
      "cumulativeGasUsed": "0x7720",
      "logs": [
        {
          "address": "0x62ba738e2085c901a90a65db28a27f949a135edc",
          "topics": [
            "0x8b9ed51018e2194e0c99cb3dd5a611c44d2eacf3d5ea3d2ab993857c58ff5cfe",
            "0x000000000000000000000000222aff0377468b4d88a44c70669aafd968fac6c4",
            "0x095ea7b300000000000000000000000000000000000000000000000000000000"
          ],
          "data": "0x",
          "blockHash": "0x92bec718a1200cd9b604657be363de251ffc1f7a76ccca4a08f234c91c208b67",
          "blockNumber": "0x75d66a8",
          "transactionHash": "0xee8f0c64fc1333dfeda5d61b64e27708957754ba881d45b27a849ad63aa6d977",
          "transactionIndex": "0x1",
          "logIndex": "0x0",
          "removed": false
        }
      ],
      "logsBloom": "0x00000000000000000000000000000000001000000000000000000000000000000000000000000000000000000400000000000000000000000008000000000000000000000000004000000000000000000000000000000040040000000000000000000000000000000000000000000000000000000000000000000000000000000000000000000000010000000000000000000000000000000000000000000000000000000000000000000000000000000000000000000000000000000000000000000008000000000000000000000000000000000000000000000000000400000000000000000000000000000008000000000000020000040000000000000000",
      "type": "0x2",
      "transactionHash": "0xee8f0c64fc1333dfeda5d61b64e27708957754ba881d45b27a849ad63aa6d977",
      "transactionIndex": "0x1",
      "blockHash": "0x92bec718a1200cd9b604657be363de251ffc1f7a76ccca4a08f234c91c208b67",
      "blockNumber": "0x75d66a8",
      "gasUsed": "0x7720",
      "effectiveGasPrice": "0x5f5e100",
      "from": "0xe2bc073e0d55274dba18a0e11463a5dfd16c5057",
      "to": "0x62ba738e2085c901a90a65db28a27f949a135edc",
      "contractAddress": null,
      "gasUsedForL1": "0x0",
      "l1BlockNumber": "0x758019"
    },
    {
      "status": "0x1",
      "cumulativeGasUsed": "0x6944",
      "logs": [],
      "logsBloom": "0x00000000000000000000000000000000000000000000000000000000000000000000000000000000000000000000000000000000000000000000000000000000000000000000000000000000000000000000000000000000000000000000000000000000000000000000000000000000000000000000000000000000000000000000000000000000000000000000000000000000000000000000000000000000000000000000000000000000000000000000000000000000000000000000000000000000000000000000000000000000000000000000000000000000000000000000000000000000000000000000000000000000000000000000000000000000",
      "type": "0x2",
      "transactionHash": "0xe8c88f1d468e1de815e5d9c04c136dfbcdd44554a716694aa9cd95b2e655709f",
      "transactionIndex": "0x1",
      "blockHash": "0xce44750e189896a9eb4c2fe9bd3a6b3d824f06cc5caafaa4e5ef86d5c6d1f7b2",
      "blockNumber": "0x75d66b3",
      "gasUsed": "0x6944",
      "effectiveGasPrice": "0x5f5e100",
      "from": "0xe2bc073e0d55274dba18a0e11463a5dfd16c5057",
      "to": "0x62ba738e2085c901a90a65db28a27f949a135edc",
      "contractAddress": null,
      "gasUsedForL1": "0x0",
      "l1BlockNumber": "0x758019"
    },
    {
      "status": "0x1",
      "cumulativeGasUsed": "0x11d84",
      "logs": [
        {
          "address": "0xe885e8b5855ae72b28e26c02b5c8d3d66be4c7e8",
          "topics": [
            "0x1151116914515bc0891ff9047a6cb32cf902546f83066499bcf8ba33d2353fa2",
            "0x00000000000000000000000062ba738e2085c901a90a65db28a27f949a135edc"
          ],
          "data": "0x",
          "blockHash": "0x555dbb83ebc5d9d4cbf36df1cdc467cb988c9334305a18e8a8fe6f2db36e5b35",
          "blockNumber": "0x75d66bb",
          "transactionHash": "0xf82b49d3930f43b1927d8724b203a915f057cfd99b78b94d595e12522af519e6",
          "transactionIndex": "0x1",
          "logIndex": "0x0",
          "removed": false
        },
        {
          "address": "0xe885e8b5855ae72b28e26c02b5c8d3d66be4c7e8",
          "topics": [
            "0x442e715f626346e8c54381002da614f62bee8d27386535b2521ec8540898556e",
            "0x67fd5a496a9cb90963d08698514467558dd81d761e21973f465e18d92887a517"
          ],
          "data": "0x0000000000000000000000000000000000000000000000000000000000000000",
          "blockHash": "0x555dbb83ebc5d9d4cbf36df1cdc467cb988c9334305a18e8a8fe6f2db36e5b35",
          "blockNumber": "0x75d66bb",
          "transactionHash": "0xf82b49d3930f43b1927d8724b203a915f057cfd99b78b94d595e12522af519e6",
          "transactionIndex": "0x1",
          "logIndex": "0x1",
          "removed": false
        }
      ],
      "logsBloom": "0x00000000400000000000000000000000000000004000000000000000040000000000000000000000000000000000000000008000000000000000000000000000000000000020000800000000000000000000000000000000000000000000000000002000000000000000002000000000000000000008000000000000000000000000000000000000000000000000000000000000000000000000000000000000000020000008800000000000000004000000000000000000000000000000000000000000000000000000000000000000000000000000000000000000000000000000000000000000002000000000000010000000000000000000000000000000",
      "type": "0x2",
      "transactionHash": "0xf82b49d3930f43b1927d8724b203a915f057cfd99b78b94d595e12522af519e6",
      "transactionIndex": "0x1",
      "blockHash": "0x555dbb83ebc5d9d4cbf36df1cdc467cb988c9334305a18e8a8fe6f2db36e5b35",
      "blockNumber": "0x75d66bb",
      "gasUsed": "0x11d84",
      "effectiveGasPrice": "0x5f5e100",
      "from": "0xe2bc073e0d55274dba18a0e11463a5dfd16c5057",
      "to": "0xe885e8b5855ae72b28e26c02b5c8d3d66be4c7e8",
      "contractAddress": null,
      "gasUsedForL1": "0x0",
      "l1BlockNumber": "0x758019"
    }
  ],
  "libraries": [],
  "pending": [],
  "returns": {},
  "timestamp": 1739468489,
  "chain": 421614,
  "commit": "a2768b5"
}