{
  "transactions": [
    {
      "hash": "0xc7fc7f2b4ab5f09bb126997337cbe054d43e64c6922704663c4c02be5e87905f",
      "transactionType": "CALL",
      "contractName": null,
      "contractAddress": "0x62ba738e2085c901a90a65db28a27f949a135edc",
      "function": "updateServiceManager(address)",
      "arguments": [
        "0xe2Bc073E0d55274DBa18A0E11463A5DfD16c5057"
      ],
      "transaction": {
        "from": "0xe2bc073e0d55274dba18a0e11463a5dfd16c5057",
        "to": "0x62ba738e2085c901a90a65db28a27f949a135edc",
        "gas": "0x8a97",
        "value": "0x0",
        "input": "0x7d847d1b000000000000000000000000e2bc073e0d55274dba18a0e11463a5dfd16c5057",
        "nonce": "0x1d5d",
        "chainId": "0x66eee"
      },
      "additionalContracts": [],
      "isFixedGasLimit": false
    },
    {
      "hash": "0xc992dc133f511efeea8c4486c8ea40e25f70973db009dcf1e1320873123c10ff",
      "transactionType": "CALL",
      "contractName": null,
      "contractAddress": "0x62ba738e2085c901a90a65db28a27f949a135edc",
      "function": "allowFunction(address,bytes4)",
      "arguments": [
        "0xE885e8B5855aE72b28E26C02b5c8D3d66bE4C7E8",
        "0x6a761202"
      ],
      "transaction": {
        "from": "0xe2bc073e0d55274dba18a0e11463a5dfd16c5057",
        "to": "0x62ba738e2085c901a90a65db28a27f949a135edc",
        "gas": "0xa48a",
        "value": "0x0",
        "input": "0x60cff9b5000000000000000000000000e885e8b5855ae72b28e26c02b5c8d3d66be4c7e86a76120200000000000000000000000000000000000000000000000000000000",
        "nonce": "0x1d5e",
        "chainId": "0x66eee"
      },
      "additionalContracts": [],
      "isFixedGasLimit": false
    },
    {
      "hash": "0x55fdcd6198e096003c7a560c92db6eb7c25d95f6a51147f8a443ddbfbdeb360c",
      "transactionType": "CALL",
      "contractName": null,
      "contractAddress": "0x62ba738e2085c901a90a65db28a27f949a135edc",
      "function": "allowFunction(address,bytes4)",
      "arguments": [
        "0xE885e8B5855aE72b28E26C02b5c8D3d66bE4C7E8",
        "0xe19a9dd9"
      ],
      "transaction": {
        "from": "0xe2bc073e0d55274dba18a0e11463a5dfd16c5057",
        "to": "0x62ba738e2085c901a90a65db28a27f949a135edc",
        "gas": "0xa48a",
        "value": "0x0",
        "input": "0x60cff9b5000000000000000000000000e885e8b5855ae72b28e26c02b5c8d3d66be4c7e8e19a9dd900000000000000000000000000000000000000000000000000000000",
        "nonce": "0x1d5f",
        "chainId": "0x66eee"
      },
      "additionalContracts": [],
      "isFixedGasLimit": false
    },
    {
      "hash": "0x786af01828aff366216d67d389469c5dcd18b298abdaf1ab1a06eba6e4158f09",
      "transactionType": "CALL",
      "contractName": null,
      "contractAddress": "0x62ba738e2085c901a90a65db28a27f949a135edc",
      "function": "allowFunction(address,bytes4)",
      "arguments": [
        "0x62BA738e2085c901a90a65db28A27f949a135edC",
        "0x60cff9b5"
      ],
      "transaction": {
        "from": "0xe2bc073e0d55274dba18a0e11463a5dfd16c5057",
        "to": "0x62ba738e2085c901a90a65db28a27f949a135edc",
        "gas": "0xa48a",
        "value": "0x0",
        "input": "0x60cff9b500000000000000000000000062ba738e2085c901a90a65db28a27f949a135edc60cff9b500000000000000000000000000000000000000000000000000000000",
        "nonce": "0x1d60",
        "chainId": "0x66eee"
      },
      "additionalContracts": [],
      "isFixedGasLimit": false
    },
    {
      "hash": "0xbab476f8d56a9e77df84238bc8ad114912aca55d02bca5a00779f4f408d21685",
      "transactionType": "CALL",
      "contractName": null,
      "contractAddress": "0x62ba738e2085c901a90a65db28a27f949a135edc",
      "function": "allowFunction(address,bytes4)",
      "arguments": [
        "0x62BA28fc85Dba80b1858E5B37134991CE90ae5A8",
        "0x338b5dea"
      ],
      "transaction": {
        "from": "0xe2bc073e0d55274dba18a0e11463a5dfd16c5057",
        "to": "0x62ba738e2085c901a90a65db28a27f949a135edc",
        "gas": "0xa48a",
        "value": "0x0",
        "input": "0x60cff9b500000000000000000000000062ba28fc85dba80b1858e5b37134991ce90ae5a8338b5dea00000000000000000000000000000000000000000000000000000000",
        "nonce": "0x1d61",
        "chainId": "0x66eee"
      },
      "additionalContracts": [],
      "isFixedGasLimit": false
    },
    {
      "hash": "0x4ba4e88bb315e69f86da0bd53c81752dfe387feb40de558271a417722418df27",
      "transactionType": "CALL",
      "contractName": null,
      "contractAddress": "0x62ba738e2085c901a90a65db28a27f949a135edc",
      "function": "allowFunction(address,bytes4)",
      "arguments": [
        "0x222afF0377468B4d88a44C70669AaFD968faC6c4",
        "0xa9059cbb"
      ],
      "transaction": {
        "from": "0xe2bc073e0d55274dba18a0e11463a5dfd16c5057",
        "to": "0x62ba738e2085c901a90a65db28a27f949a135edc",
        "gas": "0xa48a",
        "value": "0x0",
        "input": "0x60cff9b5000000000000000000000000222aff0377468b4d88a44c70669aafd968fac6c4a9059cbb00000000000000000000000000000000000000000000000000000000",
        "nonce": "0x1d62",
        "chainId": "0x66eee"
      },
      "additionalContracts": [],
      "isFixedGasLimit": false
    },
    {
      "hash": "0xa4f18cdec29227f4fa7776113a2bdc29a58489e6801140e52ecf035b57ce9a0d",
      "transactionType": "CALL",
      "contractName": null,
      "contractAddress": "0x62ba738e2085c901a90a65db28a27f949a135edc",
      "function": "allowFunction(address,bytes4)",
      "arguments": [
        "0x222afF0377468B4d88a44C70669AaFD968faC6c4",
        "0x095ea7b3"
      ],
      "transaction": {
        "from": "0xe2bc073e0d55274dba18a0e11463a5dfd16c5057",
        "to": "0x62ba738e2085c901a90a65db28a27f949a135edc",
        "gas": "0xa48a",
        "value": "0x0",
        "input": "0x60cff9b5000000000000000000000000222aff0377468b4d88a44c70669aafd968fac6c4095ea7b300000000000000000000000000000000000000000000000000000000",
        "nonce": "0x1d63",
        "chainId": "0x66eee"
      },
      "additionalContracts": [],
      "isFixedGasLimit": false
    },
    {
      "hash": "0x00227cdc003c5b013e8e2e3fea584085a4ea2967a8d285e225a03592588f690e",
      "transactionType": "CALL",
      "contractName": null,
      "contractAddress": "0x62ba738e2085c901a90a65db28a27f949a135edc",
      "function": "updateServiceManager(address)",
      "arguments": [
        "0xaA63b3587DD9074728547b8280a71b53A9965cF4"
      ],
      "transaction": {
        "from": "0xe2bc073e0d55274dba18a0e11463a5dfd16c5057",
        "to": "0x62ba738e2085c901a90a65db28a27f949a135edc",
        "gas": "0x86b5",
        "value": "0x0",
        "input": "0x7d847d1b000000000000000000000000aa63b3587dd9074728547b8280a71b53a9965cf4",
        "nonce": "0x1d64",
        "chainId": "0x66eee"
      },
      "additionalContracts": [],
      "isFixedGasLimit": false
    },
    {
      "hash": "0x6915d8ce7837623afa5ab88a88d91c5dcdd9581ce629cddcd2ff308756d2efa6",
      "transactionType": "CALL",
      "contractName": null,
      "contractAddress": "0xe885e8b5855ae72b28e26c02b5c8d3d66be4c7e8",
      "function": "execTransaction(address,uint256,bytes,uint8,uint256,uint256,uint256,address,address,bytes)",
      "arguments": [
        "0xE885e8B5855aE72b28E26C02b5c8D3d66bE4C7E8",
        "0",
        "0xe19a9dd900000000000000000000000062ba738e2085c901a90a65db28a27f949a135edc",
        "0",
        "0",
        "0",
        "0",
        "0x0000000000000000000000000000000000000000",
        "0x0000000000000000000000000000000000000000",
        "0x1b1b4e81262ad780cffc35e416b456cfd84a46f1bbdc4688e76f09d71cf8983e60ffa88b19d9c944c9a1b004cf2ba153cfbe384aeb897560e0e08556336dc97c1c99ede8232cbe36e141e0ae5b52c09720c83bb464ff04a71ce2710216d3e0247313f7647ffbb67b5b213db1ec9ffc48ec3cd0e4d407da8871b8e882d0baa494d71b"
      ],
      "transaction": {
        "from": "0xe2bc073e0d55274dba18a0e11463a5dfd16c5057",
        "to": "0xe885e8b5855ae72b28e26c02b5c8d3d66be4c7e8",
        "gas": "0x17c1a",
        "value": "0x0",
        "input": "0x6a761202000000000000000000000000e885e8b5855ae72b28e26c02b5c8d3d66be4c7e80000000000000000000000000000000000000000000000000000000000000000000000000000000000000000000000000000000000000000000000000000014000000000000000000000000000000000000000000000000000000000000000000000000000000000000000000000000000000000000000000000000000000000000000000000000000000000000000000000000000000000000000000000000000000000000000000000000000000000000000000000000000000000000000000000000000000000000000000000000000000000000000000000000000000000000000000000000000000000000000000000000000000000000000000000000000000000000000000000000000000000000000000000000000000000000001a00000000000000000000000000000000000000000000000000000000000000024e19a9dd900000000000000000000000062ba738e2085c901a90a65db28a27f949a135edc0000000000000000000000000000000000000000000000000000000000000000000000000000000000000000000000000000000000000000000000821b1b4e81262ad780cffc35e416b456cfd84a46f1bbdc4688e76f09d71cf8983e60ffa88b19d9c944c9a1b004cf2ba153cfbe384aeb897560e0e08556336dc97c1c99ede8232cbe36e141e0ae5b52c09720c83bb464ff04a71ce2710216d3e0247313f7647ffbb67b5b213db1ec9ffc48ec3cd0e4d407da8871b8e882d0baa494d71b000000000000000000000000000000000000000000000000000000000000",
        "nonce": "0x1d65",
        "chainId": "0x66eee"
      },
      "additionalContracts": [],
      "isFixedGasLimit": false
    }
  ],
  "receipts": [
    {
      "status": "0x1",
      "cumulativeGasUsed": "0x6944",
      "logs": [],
      "logsBloom": "0x00000000000000000000000000000000000000000000000000000000000000000000000000000000000000000000000000000000000000000000000000000000000000000000000000000000000000000000000000000000000000000000000000000000000000000000000000000000000000000000000000000000000000000000000000000000000000000000000000000000000000000000000000000000000000000000000000000000000000000000000000000000000000000000000000000000000000000000000000000000000000000000000000000000000000000000000000000000000000000000000000000000000000000000000000000000",
      "type": "0x2",
      "transactionHash": "0xc7fc7f2b4ab5f09bb126997337cbe054d43e64c6922704663c4c02be5e87905f",
      "transactionIndex": "0x1",
      "blockHash": "0x0d566644185311c609d7e603fb5e51b3ffff19959679959ce71f9945240e05c3",
      "blockNumber": "0x75d6dde",
      "gasUsed": "0x6944",
      "effectiveGasPrice": "0x5f5e100",
      "from": "0xe2bc073e0d55274dba18a0e11463a5dfd16c5057",
      "to": "0x62ba738e2085c901a90a65db28a27f949a135edc",
      "contractAddress": null,
      "gasUsedForL1": "0x0",
      "l1BlockNumber": "0x75804b"
    },
    {
      "status": "0x1",
      "cumulativeGasUsed": "0x7720",
      "logs": [
        {
          "address": "0x62ba738e2085c901a90a65db28a27f949a135edc",
          "topics": [
            "0x8b9ed51018e2194e0c99cb3dd5a611c44d2eacf3d5ea3d2ab993857c58ff5cfe",
            "0x000000000000000000000000e885e8b5855ae72b28e26c02b5c8d3d66be4c7e8",
            "0x6a76120200000000000000000000000000000000000000000000000000000000"
          ],
          "data": "0x",
          "blockHash": "0x4d56011cd5e626af8b02efb9b97149ec6e246e122627a1565ad783f8d245efd5",
          "blockNumber": "0x75d6de7",
          "transactionHash": "0xc992dc133f511efeea8c4486c8ea40e25f70973db009dcf1e1320873123c10ff",
          "transactionIndex": "0x1",
          "logIndex": "0x0",
          "removed": false
        }
      ],
      "logsBloom": "0x00000000000000000000000000000000001000000000000000000000000000000000000000000000000000000000000000000000000000000000000000000000000000000000004000000000000000000000000000000000000000000000000000000000000000000000010080000000000000000000000000000000000000000000000000000000010000000000000000000010000000800000000000000000000000000000000000000000000000000000000000000000000000000000000000000000000000000000000000000000000000000000000000000000000000000008000000000000000000000008000000000000020000040000000040000000",
      "type": "0x2",
      "transactionHash": "0xc992dc133f511efeea8c4486c8ea40e25f70973db009dcf1e1320873123c10ff",
      "transactionIndex": "0x1",
      "blockHash": "0x4d56011cd5e626af8b02efb9b97149ec6e246e122627a1565ad783f8d245efd5",
      "blockNumber": "0x75d6de7",
      "gasUsed": "0x7720",
      "effectiveGasPrice": "0x5f5e100",
      "from": "0xe2bc073e0d55274dba18a0e11463a5dfd16c5057",
      "to": "0x62ba738e2085c901a90a65db28a27f949a135edc",
      "contractAddress": null,
      "gasUsedForL1": "0x0",
      "l1BlockNumber": "0x75804d"
    },
    {
      "status": "0x1",
      "cumulativeGasUsed": "0x7720",
      "logs": [
        {
          "address": "0x62ba738e2085c901a90a65db28a27f949a135edc",
          "topics": [
            "0x8b9ed51018e2194e0c99cb3dd5a611c44d2eacf3d5ea3d2ab993857c58ff5cfe",
            "0x000000000000000000000000e885e8b5855ae72b28e26c02b5c8d3d66be4c7e8",
            "0xe19a9dd900000000000000000000000000000000000000000000000000000000"
          ],
          "data": "0x",
          "blockHash": "0x96e8099d7fde9cde5d5ee1c0fe2135273f7d04f213f7789d600a310eae25dc30",
          "blockNumber": "0x75d6df0",
          "transactionHash": "0x55fdcd6198e096003c7a560c92db6eb7c25d95f6a51147f8a443ddbfbdeb360c",
          "transactionIndex": "0x1",
          "logIndex": "0x0",
          "removed": false
        }
      ],
      "logsBloom": "0x00000000000000000000000000000000001000000000000000000000000000000000000000000000000000000000000000000000000000000000000000000000000000000000004000000000000000000000000000008000000000000000000000002000000000000000000000000000000000000000000000000000000000000000000000000000014000000000000000000000000000800000000000000000000000000000000000000000000000000000000000000000000000000000000000000000000000000000000000000000000000000000000000000000000000000008000000000000000000000008000000000000020000040000000040000000",
      "type": "0x2",
      "transactionHash": "0x55fdcd6198e096003c7a560c92db6eb7c25d95f6a51147f8a443ddbfbdeb360c",
      "transactionIndex": "0x1",
      "blockHash": "0x96e8099d7fde9cde5d5ee1c0fe2135273f7d04f213f7789d600a310eae25dc30",
      "blockNumber": "0x75d6df0",
      "gasUsed": "0x7720",
      "effectiveGasPrice": "0x5f5e100",
      "from": "0xe2bc073e0d55274dba18a0e11463a5dfd16c5057",
      "to": "0x62ba738e2085c901a90a65db28a27f949a135edc",
      "contractAddress": null,
      "gasUsedForL1": "0x0",
      "l1BlockNumber": "0x75804d"
    },
    {
      "status": "0x1",
      "cumulativeGasUsed": "0x7720",
      "logs": [
        {
          "address": "0x62ba738e2085c901a90a65db28a27f949a135edc",
          "topics": [
            "0x8b9ed51018e2194e0c99cb3dd5a611c44d2eacf3d5ea3d2ab993857c58ff5cfe",
            "0x00000000000000000000000062ba738e2085c901a90a65db28a27f949a135edc",
            "0x60cff9b500000000000000000000000000000000000000000000000000000000"
          ],
          "data": "0x",
          "blockHash": "0x9edd6b1e6f18eacf559ca3adfd103d6c10275aeaf091508175677130faefaacc",
          "blockNumber": "0x75d6df9",
          "transactionHash": "0x786af01828aff366216d67d389469c5dcd18b298abdaf1ab1a06eba6e4158f09",
          "transactionIndex": "0x1",
          "logIndex": "0x0",
          "removed": false
        }
      ],
      "logsBloom": "0x00000000000000000000000000000000001000000000000000000000000000000000000000000000000000000000000000008000000000000000000000000000000000000000004800000000000000000000000000000000000000000000000000000000000000000000000000000000000000000000000000000000000000000000000000000000010000000000008000000000000000000040000000000000000020000000000000000000000000000000000000000000000000000000000000000000000000000000000000000000000000000000000000000000000000000000000000000000000000000008000000000000020000040000000000008000",
      "type": "0x2",
      "transactionHash": "0x786af01828aff366216d67d389469c5dcd18b298abdaf1ab1a06eba6e4158f09",
      "transactionIndex": "0x1",
      "blockHash": "0x9edd6b1e6f18eacf559ca3adfd103d6c10275aeaf091508175677130faefaacc",
      "blockNumber": "0x75d6df9",
      "gasUsed": "0x7720",
      "effectiveGasPrice": "0x5f5e100",
      "from": "0xe2bc073e0d55274dba18a0e11463a5dfd16c5057",
      "to": "0x62ba738e2085c901a90a65db28a27f949a135edc",
      "contractAddress": null,
      "gasUsedForL1": "0x0",
      "l1BlockNumber": "0x75804d"
    },
    {
      "status": "0x1",
      "cumulativeGasUsed": "0x7720",
      "logs": [
        {
          "address": "0x62ba738e2085c901a90a65db28a27f949a135edc",
          "topics": [
            "0x8b9ed51018e2194e0c99cb3dd5a611c44d2eacf3d5ea3d2ab993857c58ff5cfe",
            "0x00000000000000000000000062ba28fc85dba80b1858e5b37134991ce90ae5a8",
            "0x338b5dea00000000000000000000000000000000000000000000000000000000"
          ],
          "data": "0x",
          "blockHash": "0x2aa9ddaeb177ae8d1882028ba6e4d751fe884e672ff14eb8d5024a9256d98029",
          "blockNumber": "0x75d6dff",
          "transactionHash": "0xbab476f8d56a9e77df84238bc8ad114912aca55d02bca5a00779f4f408d21685",
          "transactionIndex": "0x1",
          "logIndex": "0x0",
          "removed": false
        }
      ],
      "logsBloom": "0x00000000000100000000000000000008001000000000000000000000000000000000000000000000000000000000000000000000000000000000001000000000000000000000004000000000000000000000000000000000000000000000000000000000000000000000000000000000000000000000000100000000000000000000000000004000010000000000000000000000000000000000000000008000000000000000000000000000000000000000000000000000000000000000000000000000000000000000000000000000000000000000000000000000000000000000000000000000000000000008000000000000020000040000000000000000",
      "type": "0x2",
      "transactionHash": "0xbab476f8d56a9e77df84238bc8ad114912aca55d02bca5a00779f4f408d21685",
      "transactionIndex": "0x1",
      "blockHash": "0x2aa9ddaeb177ae8d1882028ba6e4d751fe884e672ff14eb8d5024a9256d98029",
      "blockNumber": "0x75d6dff",
      "gasUsed": "0x7720",
      "effectiveGasPrice": "0x5f5e100",
      "from": "0xe2bc073e0d55274dba18a0e11463a5dfd16c5057",
      "to": "0x62ba738e2085c901a90a65db28a27f949a135edc",
      "contractAddress": null,
      "gasUsedForL1": "0x0",
      "l1BlockNumber": "0x75804d"
    },
    {
      "status": "0x1",
      "cumulativeGasUsed": "0x7720",
      "logs": [
        {
          "address": "0x62ba738e2085c901a90a65db28a27f949a135edc",
          "topics": [
            "0x8b9ed51018e2194e0c99cb3dd5a611c44d2eacf3d5ea3d2ab993857c58ff5cfe",
            "0x000000000000000000000000222aff0377468b4d88a44c70669aafd968fac6c4",
            "0xa9059cbb00000000000000000000000000000000000000000000000000000000"
          ],
          "data": "0x",
          "blockHash": "0xe2495632707336c518802f4b5e7b2d65da417c78c18bdddd2d193ef0a6159266",
          "blockNumber": "0x75d6e05",
          "transactionHash": "0x4ba4e88bb315e69f86da0bd53c81752dfe387feb40de558271a417722418df27",
          "transactionIndex": "0x1",
          "logIndex": "0x0",
          "removed": false
        }
      ],
      "logsBloom": "0x00000000000000000000000000000000001000000000000000000000000000000000000000000000000000000000000000000000000000000000000000000000000000000000004000104000000000000000000000000040040000000000000000000000000000000000000000000000000000000000000000000000000000000000000000000000010000000000000000000000000000100000000000000000000000000000000000000000000000000000000000000000000000000000000000000000000000000000000000000000000000000000000000000000000400000000000000000000000000000008000000000000020000040000000000000000",
      "type": "0x2",
      "transactionHash": "0x4ba4e88bb315e69f86da0bd53c81752dfe387feb40de558271a417722418df27",
      "transactionIndex": "0x1",
      "blockHash": "0xe2495632707336c518802f4b5e7b2d65da417c78c18bdddd2d193ef0a6159266",
      "blockNumber": "0x75d6e05",
      "gasUsed": "0x7720",
      "effectiveGasPrice": "0x5f5e100",
      "from": "0xe2bc073e0d55274dba18a0e11463a5dfd16c5057",
      "to": "0x62ba738e2085c901a90a65db28a27f949a135edc",
      "contractAddress": null,
      "gasUsedForL1": "0x0",
      "l1BlockNumber": "0x75804d"
    },
    {
      "status": "0x1",
      "cumulativeGasUsed": "0x7720",
      "logs": [
        {
          "address": "0x62ba738e2085c901a90a65db28a27f949a135edc",
          "topics": [
            "0x8b9ed51018e2194e0c99cb3dd5a611c44d2eacf3d5ea3d2ab993857c58ff5cfe",
            "0x000000000000000000000000222aff0377468b4d88a44c70669aafd968fac6c4",
            "0x095ea7b300000000000000000000000000000000000000000000000000000000"
          ],
          "data": "0x",
          "blockHash": "0x1ca93c841989c161966c0d108754f29cb879b82f52e091ef65b52db68c3c74fb",
          "blockNumber": "0x75d6e0a",
          "transactionHash": "0xa4f18cdec29227f4fa7776113a2bdc29a58489e6801140e52ecf035b57ce9a0d",
          "transactionIndex": "0x1",
          "logIndex": "0x0",
          "removed": false
        }
      ],
      "logsBloom": "0x00000000000000000000000000000000001000000000000000000000000000000000000000000000000000000400000000000000000000000008000000000000000000000000004000000000000000000000000000000040040000000000000000000000000000000000000000000000000000000000000000000000000000000000000000000000010000000000000000000000000000000000000000000000000000000000000000000000000000000000000000000000000000000000000000000008000000000000000000000000000000000000000000000000000400000000000000000000000000000008000000000000020000040000000000000000",
      "type": "0x2",
      "transactionHash": "0xa4f18cdec29227f4fa7776113a2bdc29a58489e6801140e52ecf035b57ce9a0d",
      "transactionIndex": "0x1",
      "blockHash": "0x1ca93c841989c161966c0d108754f29cb879b82f52e091ef65b52db68c3c74fb",
      "blockNumber": "0x75d6e0a",
      "gasUsed": "0x7720",
      "effectiveGasPrice": "0x5f5e100",
      "from": "0xe2bc073e0d55274dba18a0e11463a5dfd16c5057",
      "to": "0x62ba738e2085c901a90a65db28a27f949a135edc",
      "contractAddress": null,
      "gasUsedForL1": "0x0",
      "l1BlockNumber": "0x75804d"
    },
    {
      "status": "0x1",
      "cumulativeGasUsed": "0x6944",
      "logs": [],
      "logsBloom": "0x00000000000000000000000000000000000000000000000000000000000000000000000000000000000000000000000000000000000000000000000000000000000000000000000000000000000000000000000000000000000000000000000000000000000000000000000000000000000000000000000000000000000000000000000000000000000000000000000000000000000000000000000000000000000000000000000000000000000000000000000000000000000000000000000000000000000000000000000000000000000000000000000000000000000000000000000000000000000000000000000000000000000000000000000000000000",
      "type": "0x2",
      "transactionHash": "0x00227cdc003c5b013e8e2e3fea584085a4ea2967a8d285e225a03592588f690e",
      "transactionIndex": "0x1",
      "blockHash": "0xfc699bef0ef32aadc38e2b36e187dbf1e1e8517c0d158c3dd50492d0685339a7",
      "blockNumber": "0x75d6e10",
      "gasUsed": "0x6944",
      "effectiveGasPrice": "0x5f5e100",
      "from": "0xe2bc073e0d55274dba18a0e11463a5dfd16c5057",
      "to": "0x62ba738e2085c901a90a65db28a27f949a135edc",
      "contractAddress": null,
      "gasUsedForL1": "0x0",
      "l1BlockNumber": "0x75804d"
    },
    {
      "status": "0x1",
      "cumulativeGasUsed": "0x11d90",
      "logs": [
        {
          "address": "0xe885e8b5855ae72b28e26c02b5c8d3d66be4c7e8",
          "topics": [
            "0x1151116914515bc0891ff9047a6cb32cf902546f83066499bcf8ba33d2353fa2",
            "0x00000000000000000000000062ba738e2085c901a90a65db28a27f949a135edc"
          ],
          "data": "0x",
          "blockHash": "0x6a8a194db0c154d9ce0013aaac86392221a1e3eac5a2eea5669b22dc3af25feb",
          "blockNumber": "0x75d6e17",
          "transactionHash": "0x6915d8ce7837623afa5ab88a88d91c5dcdd9581ce629cddcd2ff308756d2efa6",
          "transactionIndex": "0x1",
          "logIndex": "0x0",
          "removed": false
        },
        {
          "address": "0xe885e8b5855ae72b28e26c02b5c8d3d66be4c7e8",
          "topics": [
            "0x442e715f626346e8c54381002da614f62bee8d27386535b2521ec8540898556e",
            "0x4323a29368ace02916bacde73b4ec9327c79bb512afc4fa5b30fe7283efc5d5c"
          ],
          "data": "0x0000000000000000000000000000000000000000000000000000000000000000",
          "blockHash": "0x6a8a194db0c154d9ce0013aaac86392221a1e3eac5a2eea5669b22dc3af25feb",
          "blockNumber": "0x75d6e17",
          "transactionHash": "0x6915d8ce7837623afa5ab88a88d91c5dcdd9581ce629cddcd2ff308756d2efa6",
          "transactionIndex": "0x1",
          "logIndex": "0x1",
          "removed": false
        }
      ],
      "logsBloom": "0x00000010400000000000000000000000000000000000000000000000040000000000000000000000000000000000000000008000000000000000000000000000000000000020000800000000000000000000000000000000000000000000000000000000000000000000002000000000000000000008000000000000000000000000000000000000000000000000000000000000000000000000000000000000000020000000800000000000000004000000020000000000010000000000000000000000000000000000000000000000000000000000000000000000000000000000000000000000002000000000000010000000000000000000000000000000",
      "type": "0x2",
      "transactionHash": "0x6915d8ce7837623afa5ab88a88d91c5dcdd9581ce629cddcd2ff308756d2efa6",
      "transactionIndex": "0x1",
      "blockHash": "0x6a8a194db0c154d9ce0013aaac86392221a1e3eac5a2eea5669b22dc3af25feb",
      "blockNumber": "0x75d6e17",
      "gasUsed": "0x11d90",
      "effectiveGasPrice": "0x5f5e100",
      "from": "0xe2bc073e0d55274dba18a0e11463a5dfd16c5057",
      "to": "0xe885e8b5855ae72b28e26c02b5c8d3d66be4c7e8",
      "contractAddress": null,
      "gasUsedForL1": "0x0",
      "l1BlockNumber": "0x75804d"
    }
  ],
  "libraries": [],
  "pending": [],
  "returns": {},
  "timestamp": 1739469112,
  "chain": 421614,
  "commit": "a2768b5"
}