{
  "transactions": [
    {
      "hash": "0x81f72402548154d5e3e61325b1b564ea93adc7c0a8597cc0a86c26ffa0f41306",
      "transactionType": "CALL",
      "contractName": null,
      "contractAddress": "0x57bc4daff97b2addb3f27cf49da1f76a02047848",
      "function": "updateServiceManager(address)",
      "arguments": [
        "0xe2Bc073E0d55274DBa18A0E11463A5DfD16c5057"
      ],
      "transaction": {
        "from": "0xe2bc073e0d55274dba18a0e11463a5dfd16c5057",
        "to": "0x57bc4daff97b2addb3f27cf49da1f76a02047848",
        "gas": "0x8a97",
        "value": "0x0",
        "input": "0x7d847d1b000000000000000000000000e2bc073e0d55274dba18a0e11463a5dfd16c5057",
        "nonce": "0x1d68",
        "chainId": "0x66eee"
      },
      "additionalContracts": [],
      "isFixedGasLimit": false
    },
    {
      "hash": "0xb1292b3cbb72358525f93e6280e0bb7561acdfc57fe28359af378990b3fcb79a",
      "transactionType": "CALL",
      "contractName": null,
      "contractAddress": "0x57bc4daff97b2addb3f27cf49da1f76a02047848",
      "function": "allowFunction(address,bytes4)",
      "arguments": [
        "0xE885e8B5855aE72b28E26C02b5c8D3d66bE4C7E8",
        "0x6a761202"
      ],
      "transaction": {
        "from": "0xe2bc073e0d55274dba18a0e11463a5dfd16c5057",
        "to": "0x57bc4daff97b2addb3f27cf49da1f76a02047848",
        "gas": "0x10fe8",
        "value": "0x0",
        "input": "0x60cff9b5000000000000000000000000e885e8b5855ae72b28e26c02b5c8d3d66be4c7e86a76120200000000000000000000000000000000000000000000000000000000",
        "nonce": "0x1d69",
        "chainId": "0x66eee"
      },
      "additionalContracts": [],
      "isFixedGasLimit": false
    },
    {
      "hash": "0x0fac6a72ef9905de3eef11e6fe66bade1800cab035fdc51b2352167951058dac",
      "transactionType": "CALL",
      "contractName": null,
      "contractAddress": "0x57bc4daff97b2addb3f27cf49da1f76a02047848",
      "function": "allowFunction(address,bytes4)",
      "arguments": [
        "0xE885e8B5855aE72b28E26C02b5c8D3d66bE4C7E8",
        "0xe19a9dd9"
      ],
      "transaction": {
        "from": "0xe2bc073e0d55274dba18a0e11463a5dfd16c5057",
        "to": "0x57bc4daff97b2addb3f27cf49da1f76a02047848",
        "gas": "0x10fe8",
        "value": "0x0",
        "input": "0x60cff9b5000000000000000000000000e885e8b5855ae72b28e26c02b5c8d3d66be4c7e8e19a9dd900000000000000000000000000000000000000000000000000000000",
        "nonce": "0x1d6a",
        "chainId": "0x66eee"
      },
      "additionalContracts": [],
      "isFixedGasLimit": false
    },
    {
      "hash": "0x66c23cc42e083f2f8695d35bb1e053b749647cbdab77a4498acc122162429a61",
      "transactionType": "CALL",
      "contractName": null,
      "contractAddress": "0x57bc4daff97b2addb3f27cf49da1f76a02047848",
      "function": "allowFunction(address,bytes4)",
      "arguments": [
        "0x57bc4dAfF97B2aDdB3F27cF49dA1f76A02047848",
        "0x60cff9b5"
      ],
      "transaction": {
        "from": "0xe2bc073e0d55274dba18a0e11463a5dfd16c5057",
        "to": "0x57bc4daff97b2addb3f27cf49da1f76a02047848",
        "gas": "0x10fe8",
        "value": "0x0",
        "input": "0x60cff9b500000000000000000000000057bc4daff97b2addb3f27cf49da1f76a0204784860cff9b500000000000000000000000000000000000000000000000000000000",
        "nonce": "0x1d6b",
        "chainId": "0x66eee"
      },
      "additionalContracts": [],
      "isFixedGasLimit": false
    },
    {
      "hash": "0xf96f1aed485760eee7679ed4d62023980374b96dcb3c9fc39853d32ff14e9931",
      "transactionType": "CALL",
      "contractName": null,
      "contractAddress": "0x57bc4daff97b2addb3f27cf49da1f76a02047848",
      "function": "allowFunction(address,bytes4)",
      "arguments": [
        "0x62BA28fc85Dba80b1858E5B37134991CE90ae5A8",
        "0x338b5dea"
      ],
      "transaction": {
        "from": "0xe2bc073e0d55274dba18a0e11463a5dfd16c5057",
        "to": "0x57bc4daff97b2addb3f27cf49da1f76a02047848",
        "gas": "0x10fe8",
        "value": "0x0",
        "input": "0x60cff9b500000000000000000000000062ba28fc85dba80b1858e5b37134991ce90ae5a8338b5dea00000000000000000000000000000000000000000000000000000000",
        "nonce": "0x1d6c",
        "chainId": "0x66eee"
      },
      "additionalContracts": [],
      "isFixedGasLimit": false
    },
    {
      "hash": "0xeea153463a7fce2f8554bcec0c612153a6cf6b9f88048c0b4f3869a245ed25d4",
      "transactionType": "CALL",
      "contractName": null,
      "contractAddress": "0x57bc4daff97b2addb3f27cf49da1f76a02047848",
      "function": "allowFunction(address,bytes4)",
      "arguments": [
        "0x222afF0377468B4d88a44C70669AaFD968faC6c4",
        "0xa9059cbb"
      ],
      "transaction": {
        "from": "0xe2bc073e0d55274dba18a0e11463a5dfd16c5057",
        "to": "0x57bc4daff97b2addb3f27cf49da1f76a02047848",
        "gas": "0x10fe8",
        "value": "0x0",
        "input": "0x60cff9b5000000000000000000000000222aff0377468b4d88a44c70669aafd968fac6c4a9059cbb00000000000000000000000000000000000000000000000000000000",
        "nonce": "0x1d6d",
        "chainId": "0x66eee"
      },
      "additionalContracts": [],
      "isFixedGasLimit": false
    },
    {
      "hash": "0x40c33de70b5fb9a57d1e4c29043dbb80affbcd1c4b7fd1793ecf5784763bb08b",
      "transactionType": "CALL",
      "contractName": null,
      "contractAddress": "0x57bc4daff97b2addb3f27cf49da1f76a02047848",
      "function": "allowFunction(address,bytes4)",
      "arguments": [
        "0x222afF0377468B4d88a44C70669AaFD968faC6c4",
        "0x095ea7b3"
      ],
      "transaction": {
        "from": "0xe2bc073e0d55274dba18a0e11463a5dfd16c5057",
        "to": "0x57bc4daff97b2addb3f27cf49da1f76a02047848",
        "gas": "0x10fe8",
        "value": "0x0",
        "input": "0x60cff9b5000000000000000000000000222aff0377468b4d88a44c70669aafd968fac6c4095ea7b300000000000000000000000000000000000000000000000000000000",
        "nonce": "0x1d6e",
        "chainId": "0x66eee"
      },
      "additionalContracts": [],
      "isFixedGasLimit": false
    },
    {
      "hash": "0x6cbf6bdc08edeb69eba3182225425784906fc3e4f0d12c2cb6c8603ffb2635a1",
      "transactionType": "CALL",
      "contractName": null,
      "contractAddress": "0x57bc4daff97b2addb3f27cf49da1f76a02047848",
      "function": "updateServiceManager(address)",
      "arguments": [
        "0xaA63b3587DD9074728547b8280a71b53A9965cF4"
      ],
      "transaction": {
        "from": "0xe2bc073e0d55274dba18a0e11463a5dfd16c5057",
        "to": "0x57bc4daff97b2addb3f27cf49da1f76a02047848",
        "gas": "0x86b5",
        "value": "0x0",
        "input": "0x7d847d1b000000000000000000000000aa63b3587dd9074728547b8280a71b53a9965cf4",
        "nonce": "0x1d6f",
        "chainId": "0x66eee"
      },
      "additionalContracts": [],
      "isFixedGasLimit": false
    },
    {
      "hash": "0x0ce34809c58fcd4e6989ef9d1e5490fbfc614a01137e096621c85a75489c060d",
      "transactionType": "CALL",
      "contractName": null,
      "contractAddress": "0xe885e8b5855ae72b28e26c02b5c8d3d66be4c7e8",
      "function": "execTransaction(address,uint256,bytes,uint8,uint256,uint256,uint256,address,address,bytes)",
      "arguments": [
        "0xE885e8B5855aE72b28E26C02b5c8D3d66bE4C7E8",
        "0",
        "0xe19a9dd900000000000000000000000057bc4daff97b2addb3f27cf49da1f76a02047848",
        "0",
        "0",
        "0",
        "0",
        "0x0000000000000000000000000000000000000000",
        "0x0000000000000000000000000000000000000000",
        "0x5368a8127de33248693150ffdcc7d567fcd69221ab5546f289baa8731e1c93042b4a8223d1c030a19b98d1eb8dad6c4737cd5cbc3ceed35a9eefc68bfb25f1591c93c2fc1989641155fd10c585a0ce962de220fa71b213f078ddc351e483c5ff85797535c0090a494c9b0f99e6961284b7f283855a91232a6de8440fd92be871e81b"
      ],
      "transaction": {
        "from": "0xe2bc073e0d55274dba18a0e11463a5dfd16c5057",
        "to": "0xe885e8b5855ae72b28e26c02b5c8d3d66be4c7e8",
        "gas": "0x192af",
        "value": "0x0",
        "input": "0x6a761202000000000000000000000000e885e8b5855ae72b28e26c02b5c8d3d66be4c7e80000000000000000000000000000000000000000000000000000000000000000000000000000000000000000000000000000000000000000000000000000014000000000000000000000000000000000000000000000000000000000000000000000000000000000000000000000000000000000000000000000000000000000000000000000000000000000000000000000000000000000000000000000000000000000000000000000000000000000000000000000000000000000000000000000000000000000000000000000000000000000000000000000000000000000000000000000000000000000000000000000000000000000000000000000000000000000000000000000000000000000000000000000000000000000000001a00000000000000000000000000000000000000000000000000000000000000024e19a9dd900000000000000000000000057bc4daff97b2addb3f27cf49da1f76a020478480000000000000000000000000000000000000000000000000000000000000000000000000000000000000000000000000000000000000000000000825368a8127de33248693150ffdcc7d567fcd69221ab5546f289baa8731e1c93042b4a8223d1c030a19b98d1eb8dad6c4737cd5cbc3ceed35a9eefc68bfb25f1591c93c2fc1989641155fd10c585a0ce962de220fa71b213f078ddc351e483c5ff85797535c0090a494c9b0f99e6961284b7f283855a91232a6de8440fd92be871e81b000000000000000000000000000000000000000000000000000000000000",
        "nonce": "0x1d70",
        "chainId": "0x66eee"
      },
      "additionalContracts": [],
      "isFixedGasLimit": false
    }
  ],
  "receipts": [
    {
      "status": "0x1",
      "cumulativeGasUsed": "0x6944",
      "logs": [],
      "logsBloom": "0x00000000000000000000000000000000000000000000000000000000000000000000000000000000000000000000000000000000000000000000000000000000000000000000000000000000000000000000000000000000000000000000000000000000000000000000000000000000000000000000000000000000000000000000000000000000000000000000000000000000000000000000000000000000000000000000000000000000000000000000000000000000000000000000000000000000000000000000000000000000000000000000000000000000000000000000000000000000000000000000000000000000000000000000000000000000",
      "type": "0x2",
      "transactionHash": "0x81f72402548154d5e3e61325b1b564ea93adc7c0a8597cc0a86c26ffa0f41306",
      "transactionIndex": "0x1",
      "blockHash": "0x560f72167aba21be592a595f03eafa9066117f0d38456d11f5da660f63d5662b",
      "blockNumber": "0x75d6f8d",
      "gasUsed": "0x6944",
      "effectiveGasPrice": "0x5f5e100",
      "from": "0xe2bc073e0d55274dba18a0e11463a5dfd16c5057",
      "to": "0x57bc4daff97b2addb3f27cf49da1f76a02047848",
      "contractAddress": null,
      "gasUsedForL1": "0x0",
      "l1BlockNumber": "0x758057"
    },
    {
      "status": "0x1",
      "cumulativeGasUsed": "0x25f49",
      "logs": [
        {
          "address": "0x57bc4daff97b2addb3f27cf49da1f76a02047848",
          "topics": [
            "0x8b9ed51018e2194e0c99cb3dd5a611c44d2eacf3d5ea3d2ab993857c58ff5cfe",
            "0x000000000000000000000000e885e8b5855ae72b28e26c02b5c8d3d66be4c7e8",
            "0x6a76120200000000000000000000000000000000000000000000000000000000"
          ],
          "data": "0x",
          "blockHash": "0x4463255db08dc169b5cfd523132c4795955b78db009080915c2ffbf6177933e4",
          "blockNumber": "0x75d6f99",
          "transactionHash": "0xb1292b3cbb72358525f93e6280e0bb7561acdfc57fe28359af378990b3fcb79a",
          "transactionIndex": "0x2",
          "logIndex": "0x3",
          "removed": false
        }
      ],
      "logsBloom": "0x00000000000000400000000000000000009100000000000000000000000000000000000000000000000000000000000000000000000000000000000000000000000000000000004000000000000000000000000000000000000000000000000000000000000000000000010080000000000000000000000000000000000000000000000000000000000000000000000000000010000000800000000000000000000000000000000000000000000000000000000000000000000000000000000000000000000000000000000000000000000000000000000000000000000000000008000000000000000000000008000000000000000000000000000040000000",
      "type": "0x2",
      "transactionHash": "0xb1292b3cbb72358525f93e6280e0bb7561acdfc57fe28359af378990b3fcb79a",
      "transactionIndex": "0x2",
      "blockHash": "0x4463255db08dc169b5cfd523132c4795955b78db009080915c2ffbf6177933e4",
      "blockNumber": "0x75d6f99",
      "gasUsed": "0xc4dc",
      "effectiveGasPrice": "0x5f5e100",
      "from": "0xe2bc073e0d55274dba18a0e11463a5dfd16c5057",
      "to": "0x57bc4daff97b2addb3f27cf49da1f76a02047848",
      "contractAddress": null,
      "gasUsedForL1": "0x0",
      "l1BlockNumber": "0x758057"
    },
    {
      "status": "0x1",
      "cumulativeGasUsed": "0x3e0c2",
      "logs": [
        {
          "address": "0x57bc4daff97b2addb3f27cf49da1f76a02047848",
          "topics": [
            "0x8b9ed51018e2194e0c99cb3dd5a611c44d2eacf3d5ea3d2ab993857c58ff5cfe",
            "0x000000000000000000000000e885e8b5855ae72b28e26c02b5c8d3d66be4c7e8",
            "0xe19a9dd900000000000000000000000000000000000000000000000000000000"
          ],
          "data": "0x",
          "blockHash": "0x1f39b91930efa0257bc1876e5676bbfe8282cf7402f0b6d94267c54790abec8d",
          "blockNumber": "0x75d6fa7",
          "transactionHash": "0x0fac6a72ef9905de3eef11e6fe66bade1800cab035fdc51b2352167951058dac",
          "transactionIndex": "0x2",
          "logIndex": "0x2",
          "removed": false
        }
      ],
      "logsBloom": "0x00000000000000400000000000000000009100000000000000000000000000000000000000000000000000000000000000000000000000000000000000000000000000000000004000000000000000000000000000008000000000000000000000002000000000000000000000000000000000000000000000000000000000000000000000000000004000000000000000000000000000800000000000000000000000000000000000000000000000000000000000000000000000000000000000000000000000000000000000000000000000000000000000000000000000000008000000000000000000000008000000000000000000000000000040000000",
      "type": "0x2",
      "transactionHash": "0x0fac6a72ef9905de3eef11e6fe66bade1800cab035fdc51b2352167951058dac",
      "transactionIndex": "0x2",
      "blockHash": "0x1f39b91930efa0257bc1876e5676bbfe8282cf7402f0b6d94267c54790abec8d",
      "blockNumber": "0x75d6fa7",
      "gasUsed": "0xc4dc",
      "effectiveGasPrice": "0x5f5e100",
      "from": "0xe2bc073e0d55274dba18a0e11463a5dfd16c5057",
      "to": "0x57bc4daff97b2addb3f27cf49da1f76a02047848",
      "contractAddress": null,
      "gasUsedForL1": "0x0",
      "l1BlockNumber": "0x758057"
    },
    {
      "status": "0x1",
      "cumulativeGasUsed": "0x1a0e5",
      "logs": [
        {
          "address": "0x57bc4daff97b2addb3f27cf49da1f76a02047848",
          "topics": [
            "0x8b9ed51018e2194e0c99cb3dd5a611c44d2eacf3d5ea3d2ab993857c58ff5cfe",
            "0x00000000000000000000000057bc4daff97b2addb3f27cf49da1f76a02047848",
            "0x60cff9b500000000000000000000000000000000000000000000000000000000"
          ],
          "data": "0x",
          "blockHash": "0x49fe52db6fe3da063b5878269f6744c6b5e33b789a7c6b060564966fef96b9e1",
          "blockNumber": "0x75d6fb1",
          "transactionHash": "0x66c23cc42e083f2f8695d35bb1e053b749647cbdab77a4498acc122162429a61",
          "transactionIndex": "0x2",
          "logIndex": "0x1",
          "removed": false
        }
      ],
      "logsBloom": "0x00000000000000400000000000000000009100000000000000000000000000000000000000000000000000000000000000000000000000000000000000000000000000000000004000000000000000000000000000000000000000000000000000000000000000000000000000000000000000400000000000000000000000000000000000000000000000000000008000000000000000000040000000000000000000000000100000000000000000000000000000000000000000000000000000000000000000000000000000000000000000000800000000000000000000000000000000000000000000000008000000000000000000000000000000008000",
      "type": "0x2",
      "transactionHash": "0x66c23cc42e083f2f8695d35bb1e053b749647cbdab77a4498acc122162429a61",
      "transactionIndex": "0x2",
      "blockHash": "0x49fe52db6fe3da063b5878269f6744c6b5e33b789a7c6b060564966fef96b9e1",
      "blockNumber": "0x75d6fb1",
      "gasUsed": "0xc4dc",
      "effectiveGasPrice": "0x5f5e100",
      "from": "0xe2bc073e0d55274dba18a0e11463a5dfd16c5057",
      "to": "0x57bc4daff97b2addb3f27cf49da1f76a02047848",
      "contractAddress": null,
      "gasUsedForL1": "0x0",
      "l1BlockNumber": "0x758058"
    },
    {
      "status": "0x1",
      "cumulativeGasUsed": "0x3fbc7",
      "logs": [
        {
          "address": "0x57bc4daff97b2addb3f27cf49da1f76a02047848",
          "topics": [
            "0x8b9ed51018e2194e0c99cb3dd5a611c44d2eacf3d5ea3d2ab993857c58ff5cfe",
            "0x00000000000000000000000062ba28fc85dba80b1858e5b37134991ce90ae5a8",
            "0x338b5dea00000000000000000000000000000000000000000000000000000000"
          ],
          "data": "0x",
          "blockHash": "0xacd61eb65fc00df1c1cca71a6d74dbf6a4342c7527b41dbcff8045454c38a7ce",
          "blockNumber": "0x75d6fb9",
          "transactionHash": "0xf96f1aed485760eee7679ed4d62023980374b96dcb3c9fc39853d32ff14e9931",
          "transactionIndex": "0x3",
          "logIndex": "0x4",
          "removed": false
        }
      ],
      "logsBloom": "0x00000000000100400000000000000008009100000000000000000000000000000000000000000000000000000000000000000000000000000000001000000000000000000000004000000000000000000000000000000000000000000000000000000000000000000000000000000000000000000000000100000000000000000000000000004000000000000000000000000000000000000000000000008000000000000000000000000000000000000000000000000000000000000000000000000000000000000000000000000000000000000000000000000000000000000000000000000000000000000008000000000000000000000000000000000000",
      "type": "0x2",
      "transactionHash": "0xf96f1aed485760eee7679ed4d62023980374b96dcb3c9fc39853d32ff14e9931",
      "transactionIndex": "0x3",
      "blockHash": "0xacd61eb65fc00df1c1cca71a6d74dbf6a4342c7527b41dbcff8045454c38a7ce",
      "blockNumber": "0x75d6fb9",
      "gasUsed": "0xc4dc",
      "effectiveGasPrice": "0x5f5e100",
      "from": "0xe2bc073e0d55274dba18a0e11463a5dfd16c5057",
      "to": "0x57bc4daff97b2addb3f27cf49da1f76a02047848",
      "contractAddress": null,
      "gasUsedForL1": "0x0",
      "l1BlockNumber": "0x758058"
    },
    {
      "status": "0x1",
      "cumulativeGasUsed": "0xc4dc",
      "logs": [
        {
          "address": "0x57bc4daff97b2addb3f27cf49da1f76a02047848",
          "topics": [
            "0x8b9ed51018e2194e0c99cb3dd5a611c44d2eacf3d5ea3d2ab993857c58ff5cfe",
            "0x000000000000000000000000222aff0377468b4d88a44c70669aafd968fac6c4",
            "0xa9059cbb00000000000000000000000000000000000000000000000000000000"
          ],
          "data": "0x",
          "blockHash": "0xe7d0cf48849c56f4af49005ae08d4c18d5eac23386d2bb7a9fe5e311f1dc5889",
          "blockNumber": "0x75d6fc3",
          "transactionHash": "0xeea153463a7fce2f8554bcec0c612153a6cf6b9f88048c0b4f3869a245ed25d4",
          "transactionIndex": "0x1",
          "logIndex": "0x0",
          "removed": false
        }
      ],
      "logsBloom": "0x00000000000000400000000000000000009100000000000000000000000000000000000000000000000000000000000000000000000000000000000000000000000000000000004000104000000000000000000000000040040000000000000000000000000000000000000000000000000000000000000000000000000000000000000000000000000000000000000000000000000000100000000000000000000000000000000000000000000000000000000000000000000000000000000000000000000000000000000000000000000000000000000000000000000400000000000000000000000000000008000000000000000000000000000000000000",
      "type": "0x2",
      "transactionHash": "0xeea153463a7fce2f8554bcec0c612153a6cf6b9f88048c0b4f3869a245ed25d4",
      "transactionIndex": "0x1",
      "blockHash": "0xe7d0cf48849c56f4af49005ae08d4c18d5eac23386d2bb7a9fe5e311f1dc5889",
      "blockNumber": "0x75d6fc3",
      "gasUsed": "0xc4dc",
      "effectiveGasPrice": "0x5f5e100",
      "from": "0xe2bc073e0d55274dba18a0e11463a5dfd16c5057",
      "to": "0x57bc4daff97b2addb3f27cf49da1f76a02047848",
      "contractAddress": null,
      "gasUsedForL1": "0x0",
      "l1BlockNumber": "0x758058"
    },
    {
      "status": "0x1",
      "cumulativeGasUsed": "0xc4dc",
      "logs": [
        {
          "address": "0x57bc4daff97b2addb3f27cf49da1f76a02047848",
          "topics": [
            "0x8b9ed51018e2194e0c99cb3dd5a611c44d2eacf3d5ea3d2ab993857c58ff5cfe",
            "0x000000000000000000000000222aff0377468b4d88a44c70669aafd968fac6c4",
            "0x095ea7b300000000000000000000000000000000000000000000000000000000"
          ],
          "data": "0x",
          "blockHash": "0x88d1b95f0f7f6c7ddbfb6d58dcc169ad4802ca58ef2dbaee431ad5b8180c2f78",
          "blockNumber": "0x75d6fcb",
          "transactionHash": "0x40c33de70b5fb9a57d1e4c29043dbb80affbcd1c4b7fd1793ecf5784763bb08b",
          "transactionIndex": "0x1",
          "logIndex": "0x0",
          "removed": false
        }
      ],
      "logsBloom": "0x00000000000000400000000000000000009100000000000000000000000000000000000000000000000000000400000000000000000000000008000000000000000000000000004000000000000000000000000000000040040000000000000000000000000000000000000000000000000000000000000000000000000000000000000000000000000000000000000000000000000000000000000000000000000000000000000000000000000000000000000000000000000000000000000000000008000000000000000000000000000000000000000000000000000400000000000000000000000000000008000000000000000000000000000000000000",
      "type": "0x2",
      "transactionHash": "0x40c33de70b5fb9a57d1e4c29043dbb80affbcd1c4b7fd1793ecf5784763bb08b",
      "transactionIndex": "0x1",
      "blockHash": "0x88d1b95f0f7f6c7ddbfb6d58dcc169ad4802ca58ef2dbaee431ad5b8180c2f78",
      "blockNumber": "0x75d6fcb",
      "gasUsed": "0xc4dc",
      "effectiveGasPrice": "0x5f5e100",
      "from": "0xe2bc073e0d55274dba18a0e11463a5dfd16c5057",
      "to": "0x57bc4daff97b2addb3f27cf49da1f76a02047848",
      "contractAddress": null,
      "gasUsedForL1": "0x0",
      "l1BlockNumber": "0x758058"
    },
    {
      "status": "0x1",
      "cumulativeGasUsed": "0x6944",
      "logs": [],
      "logsBloom": "0x00000000000000000000000000000000000000000000000000000000000000000000000000000000000000000000000000000000000000000000000000000000000000000000000000000000000000000000000000000000000000000000000000000000000000000000000000000000000000000000000000000000000000000000000000000000000000000000000000000000000000000000000000000000000000000000000000000000000000000000000000000000000000000000000000000000000000000000000000000000000000000000000000000000000000000000000000000000000000000000000000000000000000000000000000000000",
      "type": "0x2",
      "transactionHash": "0x6cbf6bdc08edeb69eba3182225425784906fc3e4f0d12c2cb6c8603ffb2635a1",
      "transactionIndex": "0x1",
      "blockHash": "0x8412bfa023204bfa2eb2760e80d7e6bce6320b89922cc35b9695277da612c7b0",
      "blockNumber": "0x75d6fd2",
      "gasUsed": "0x6944",
      "effectiveGasPrice": "0x5f5e100",
      "from": "0xe2bc073e0d55274dba18a0e11463a5dfd16c5057",
      "to": "0x57bc4daff97b2addb3f27cf49da1f76a02047848",
      "contractAddress": null,
      "gasUsedForL1": "0x0",
      "l1BlockNumber": "0x758058"
    },
    {
      "status": "0x1",
      "cumulativeGasUsed": "0x1aa909",
      "logs": [
        {
          "address": "0xe885e8b5855ae72b28e26c02b5c8d3d66be4c7e8",
          "topics": [
            "0x1151116914515bc0891ff9047a6cb32cf902546f83066499bcf8ba33d2353fa2",
            "0x00000000000000000000000057bc4daff97b2addb3f27cf49da1f76a02047848"
          ],
          "data": "0x",
          "blockHash": "0x5802c2d74db7816293a6cef4825511406b35783c7172ec7f8bdb10dc64cdc485",
          "blockNumber": "0x75d6fdc",
          "transactionHash": "0x0ce34809c58fcd4e6989ef9d1e5490fbfc614a01137e096621c85a75489c060d",
          "transactionIndex": "0x3",
          "logIndex": "0x22",
          "removed": false
        },
        {
          "address": "0xe885e8b5855ae72b28e26c02b5c8d3d66be4c7e8",
          "topics": [
            "0x442e715f626346e8c54381002da614f62bee8d27386535b2521ec8540898556e",
            "0xd6aa86fb2d36c5f9461c112258a5741a8c58db68907ec2938759e02f84dca536"
          ],
          "data": "0x0000000000000000000000000000000000000000000000000000000000000000",
          "blockHash": "0x5802c2d74db7816293a6cef4825511406b35783c7172ec7f8bdb10dc64cdc485",
          "blockNumber": "0x75d6fdc",
          "transactionHash": "0x0ce34809c58fcd4e6989ef9d1e5490fbfc614a01137e096621c85a75489c060d",
          "transactionIndex": "0x3",
          "logIndex": "0x23",
          "removed": false
        }
      ],
      "logsBloom": "0x00000000400000000000000000000000000000000000000000000000040000000000000000000000000000000000000000000000000000000000000000000000000000000020000000000200000000000000000000000000000000000000000000000000000000000000002000000000000000400008000000000000000000000000000000000000000000000000000000000000000000000000000000000000000000000000900000000000000004000000000000000000000000000000000000000000000000040000000000000000000000000800000000002000000000000000000000000000002000000000000010000000000000000000000000000000",
      "type": "0x2",
      "transactionHash": "0x0ce34809c58fcd4e6989ef9d1e5490fbfc614a01137e096621c85a75489c060d",
      "transactionIndex": "0x3",
      "blockHash": "0x5802c2d74db7816293a6cef4825511406b35783c7172ec7f8bdb10dc64cdc485",
      "blockNumber": "0x75d6fdc",
      "gasUsed": "0x13244",
      "effectiveGasPrice": "0x5f5e100",
      "from": "0xe2bc073e0d55274dba18a0e11463a5dfd16c5057",
      "to": "0xe885e8b5855ae72b28e26c02b5c8d3d66be4c7e8",
      "contractAddress": null,
      "gasUsedForL1": "0x0",
      "l1BlockNumber": "0x758058"
    }
  ],
  "libraries": [],
  "pending": [],
  "returns": {},
  "timestamp": 1739469259,
  "chain": 421614,
  "commit": "a2768b5"
}