{
  "transactions": [
    {
      "hash": "0xf744d47b63d9ee3fdbc3e2dbc86dd0e9b18219845b6350ea9db5852175592e46",
      "transactionType": "CALL",
      "contractName": null,
      "contractAddress": "0x078c2140d561cb55ad9fef647bace84bcceebb62",
      "function": "updateServiceManager(address)",
      "arguments": [
        "0x1D1967ff22Df0354c54dCD81Bd295bF13C03024c"
      ],
      "transaction": {
        "from": "0x1d1967ff22df0354c54dcd81bd295bf13c03024c",
        "to": "0x078c2140d561cb55ad9fef647bace84bcceebb62",
        "gas": "0x89f1",
        "value": "0x0",
        "input": "0x7d847d1b0000000000000000000000001d1967ff22df0354c54dcd81bd295bf13c03024c",
        "nonce": "0x79",
        "chainId": "0xaa36a7"
      },
      "additionalContracts": [],
      "isFixedGasLimit": false
    },
    {
      "hash": "0xdf8dfab0cf6c2b686fe3aa411146aac133ed67a9e3869d5c6e635b020c5211fa",
      "transactionType": "CALL",
      "contractName": null,
      "contractAddress": "0x078c2140d561cb55ad9fef647bace84bcceebb62",
      "function": "allowFunction(address,bytes4)",
      "arguments": [
        "0x8653CF22b3de60F4bd73E27198816f8dd56868B5",
        "0x6a761202"
      ],
      "transaction": {
        "from": "0x1d1967ff22df0354c54dcd81bd295bf13c03024c",
        "to": "0x078c2140d561cb55ad9fef647bace84bcceebb62",
        "gas": "0xa485",
        "value": "0x0",
        "input": "0x60cff9b50000000000000000000000008653cf22b3de60f4bd73e27198816f8dd56868b56a76120200000000000000000000000000000000000000000000000000000000",
        "nonce": "0x7a",
        "chainId": "0xaa36a7"
      },
      "additionalContracts": [],
      "isFixedGasLimit": false
    },
    {
      "hash": "0x82a31eeef3f6b5fa6dcf38ec4dd3d99b7060efbf1793088982802d350ed3e4d9",
      "transactionType": "CALL",
      "contractName": null,
      "contractAddress": "0x078c2140d561cb55ad9fef647bace84bcceebb62",
      "function": "allowFunction(address,bytes4)",
      "arguments": [
        "0x8653CF22b3de60F4bd73E27198816f8dd56868B5",
        "0xe19a9dd9"
      ],
      "transaction": {
        "from": "0x1d1967ff22df0354c54dcd81bd295bf13c03024c",
        "to": "0x078c2140d561cb55ad9fef647bace84bcceebb62",
        "gas": "0xa485",
        "value": "0x0",
        "input": "0x60cff9b50000000000000000000000008653cf22b3de60f4bd73e27198816f8dd56868b5e19a9dd900000000000000000000000000000000000000000000000000000000",
        "nonce": "0x7b",
        "chainId": "0xaa36a7"
      },
      "additionalContracts": [],
      "isFixedGasLimit": false
    },
    {
      "hash": "0xed40ad135ee5806d3119a0de84835c1e600be82bc657ea546548c6951436bf40",
      "transactionType": "CALL",
      "contractName": null,
      "contractAddress": "0x078c2140d561cb55ad9fef647bace84bcceebb62",
      "function": "allowFunction(address,bytes4)",
      "arguments": [
        "0x078c2140D561cb55aD9fef647BAce84Bcceebb62",
        "0x60cff9b5"
      ],
      "transaction": {
        "from": "0x1d1967ff22df0354c54dcd81bd295bf13c03024c",
        "to": "0x078c2140d561cb55ad9fef647bace84bcceebb62",
        "gas": "0xa485",
        "value": "0x0",
        "input": "0x60cff9b5000000000000000000000000078c2140d561cb55ad9fef647bace84bcceebb6260cff9b500000000000000000000000000000000000000000000000000000000",
        "nonce": "0x7c",
        "chainId": "0xaa36a7"
      },
      "additionalContracts": [],
      "isFixedGasLimit": false
    },
    {
      "hash": null,
      "transactionType": "CALL",
      "contractName": null,
      "contractAddress": "0x078c2140d561cb55ad9fef647bace84bcceebb62",
      "function": "allowFunction(address,bytes4)",
      "arguments": [
        "0x92d9b9BB76D75C03FcF8Fb4acf577b3c2938160a",
        "0x338b5dea"
      ],
      "transaction": {
        "from": "0x1d1967ff22df0354c54dcd81bd295bf13c03024c",
        "to": "0x078c2140d561cb55ad9fef647bace84bcceebb62",
        "gas": "0xa485",
        "value": "0x0",
        "input": "0x60cff9b500000000000000000000000092d9b9bb76d75c03fcf8fb4acf577b3c2938160a338b5dea00000000000000000000000000000000000000000000000000000000",
        "nonce": "0x7d",
        "chainId": "0xaa36a7"
      },
      "additionalContracts": [],
      "isFixedGasLimit": false
    },
    {
      "hash": null,
      "transactionType": "CALL",
      "contractName": null,
      "contractAddress": "0x078c2140d561cb55ad9fef647bace84bcceebb62",
      "function": "allowFunction(address,bytes4)",
      "arguments": [
        "0x4DD5C6B7e11BE865b18e8Af1FF5CD781E8ED36be",
        "0xa9059cbb"
      ],
      "transaction": {
        "from": "0x1d1967ff22df0354c54dcd81bd295bf13c03024c",
        "to": "0x078c2140d561cb55ad9fef647bace84bcceebb62",
        "gas": "0xa485",
        "value": "0x0",
        "input": "0x60cff9b50000000000000000000000004dd5c6b7e11be865b18e8af1ff5cd781e8ed36bea9059cbb00000000000000000000000000000000000000000000000000000000",
        "nonce": "0x7e",
        "chainId": "0xaa36a7"
      },
      "additionalContracts": [],
      "isFixedGasLimit": false
    },
    {
      "hash": null,
      "transactionType": "CALL",
      "contractName": null,
      "contractAddress": "0x078c2140d561cb55ad9fef647bace84bcceebb62",
      "function": "allowFunction(address,bytes4)",
      "arguments": [
        "0x4DD5C6B7e11BE865b18e8Af1FF5CD781E8ED36be",
        "0x095ea7b3"
      ],
      "transaction": {
        "from": "0x1d1967ff22df0354c54dcd81bd295bf13c03024c",
        "to": "0x078c2140d561cb55ad9fef647bace84bcceebb62",
        "gas": "0x99ba",
        "value": "0x0",
        "input": "0x60cff9b50000000000000000000000004dd5c6b7e11be865b18e8af1ff5cd781e8ed36be095ea7b300000000000000000000000000000000000000000000000000000000",
        "nonce": "0x7f",
        "chainId": "0xaa36a7"
      },
      "additionalContracts": [],
      "isFixedGasLimit": false
    },
    {
      "hash": null,
      "transactionType": "CALL",
      "contractName": null,
      "contractAddress": "0x078c2140d561cb55ad9fef647bace84bcceebb62",
      "function": "updateServiceManager(address)",
      "arguments": [
        "0x741EdE815E530A3f3fb8A36c8403203f3670B1dB"
      ],
      "transaction": {
        "from": "0x1d1967ff22df0354c54dcd81bd295bf13c03024c",
        "to": "0x078c2140d561cb55ad9fef647bace84bcceebb62",
        "gas": "0x99f0",
        "value": "0x0",
        "input": "0x7d847d1b000000000000000000000000741ede815e530a3f3fb8a36c8403203f3670b1db",
        "nonce": "0x80",
        "chainId": "0xaa36a7"
      },
      "additionalContracts": [],
      "isFixedGasLimit": false
    },
    {
      "hash": null,
      "transactionType": "CALL",
      "contractName": null,
      "contractAddress": "0x8653cf22b3de60f4bd73e27198816f8dd56868b5",
      "function": "execTransaction(address,uint256,bytes,uint8,uint256,uint256,uint256,address,address,bytes)",
      "arguments": [
        "0x8653CF22b3de60F4bd73E27198816f8dd56868B5",
        "0",
        "0xe19a9dd9000000000000000000000000078c2140d561cb55ad9fef647bace84bcceebb62",
        "0",
        "0",
        "0",
        "0",
        "0x0000000000000000000000000000000000000000",
        "0x0000000000000000000000000000000000000000",
        "0x20aa8483312261e37daf378823917f156fd899bf5ae99027e9be9b137d5602893c548bfe8a85a2d59e2b51eb6302f654593179bdbc38fe04253568ae7baff0211c"
      ],
      "transaction": {
        "from": "0x1d1967ff22df0354c54dcd81bd295bf13c03024c",
        "to": "0x8653cf22b3de60f4bd73e27198816f8dd56868b5",
        "gas": "0x23d94",
        "value": "0x0",
        "input": "0x6a7612020000000000000000000000008653cf22b3de60f4bd73e27198816f8dd56868b50000000000000000000000000000000000000000000000000000000000000000000000000000000000000000000000000000000000000000000000000000014000000000000000000000000000000000000000000000000000000000000000000000000000000000000000000000000000000000000000000000000000000000000000000000000000000000000000000000000000000000000000000000000000000000000000000000000000000000000000000000000000000000000000000000000000000000000000000000000000000000000000000000000000000000000000000000000000000000000000000000000000000000000000000000000000000000000000000000000000000000000000000000000000000000000001a00000000000000000000000000000000000000000000000000000000000000024e19a9dd9000000000000000000000000078c2140d561cb55ad9fef647bace84bcceebb6200000000000000000000000000000000000000000000000000000000000000000000000000000000000000000000000000000000000000000000004120aa8483312261e37daf378823917f156fd899bf5ae99027e9be9b137d5602893c548bfe8a85a2d59e2b51eb6302f654593179bdbc38fe04253568ae7baff0211c00000000000000000000000000000000000000000000000000000000000000",
        "nonce": "0x81",
        "chainId": "0xaa36a7"
      },
      "additionalContracts": [],
      "isFixedGasLimit": false
    }
  ],
  "receipts": [],
  "libraries": [],
  "pending": [
    "0xf744d47b63d9ee3fdbc3e2dbc86dd0e9b18219845b6350ea9db5852175592e46",
    "0xdf8dfab0cf6c2b686fe3aa411146aac133ed67a9e3869d5c6e635b020c5211fa",
    "0x82a31eeef3f6b5fa6dcf38ec4dd3d99b7060efbf1793088982802d350ed3e4d9",
    "0xed40ad135ee5806d3119a0de84835c1e600be82bc657ea546548c6951436bf40"
  ],
  "returns": {},
  "timestamp": 1739546980,
  "chain": 11155111,
  "commit": "bd03a28"
}