{
  "transactions": [
    {
      "hash": "0x5a8341c3f022537ae0b7e50ac859e113cf3ba9985a1785010faa85dafc9bc910",
      "transactionType": "CALL",
      "contractName": null,
      "contractAddress": "0x48c56e8ba59ecbb67464dce187320d94c51b3ac0",
      "function": "updateServiceManager(address)",
      "arguments": [
        "0x1D1967ff22Df0354c54dCD81Bd295bF13C03024c"
      ],
      "transaction": {
        "from": "0x1d1967ff22df0354c54dcd81bd295bf13c03024c",
        "to": "0x48c56e8ba59ecbb67464dce187320d94c51b3ac0",
        "gas": "0x99f0",
        "value": "0x0",
        "input": "0x7d847d1b0000000000000000000000001d1967ff22df0354c54dcd81bd295bf13c03024c",
        "nonce": "0x14",
        "chainId": "0xaa36a7"
      },
      "additionalContracts": [],
      "isFixedGasLimit": false
    },
    {
      "hash": "0x815b10709f02889878ed02970499862f5f0fc968b50e271a6ea392f0beac6f4b",
      "transactionType": "CALL",
      "contractName": null,
      "contractAddress": "0x48c56e8ba59ecbb67464dce187320d94c51b3ac0",
      "function": "allowFunction(address,bytes4)",
      "arguments": [
        "0x299c72F316Bc77D6AC8F1E210e94794171f05614",
        "0x6a761202"
      ],
      "transaction": {
        "from": "0x1d1967ff22df0354c54dcd81bd295bf13c03024c",
        "to": "0x48c56e8ba59ecbb67464dce187320d94c51b3ac0",
        "gas": "0x11fe3",
        "value": "0x0",
        "input": "0x60cff9b5000000000000000000000000299c72f316bc77d6ac8f1e210e94794171f056146a76120200000000000000000000000000000000000000000000000000000000",
        "nonce": "0x15",
        "chainId": "0xaa36a7"
      },
      "additionalContracts": [],
      "isFixedGasLimit": false
    },
    {
      "hash": "0xdbcf6d0b0e3a6bd4279f044e211d7bb35cfd683fcb40433f0d9028246b8a66fa",
      "transactionType": "CALL",
      "contractName": null,
      "contractAddress": "0x48c56e8ba59ecbb67464dce187320d94c51b3ac0",
      "function": "allowFunction(address,bytes4)",
      "arguments": [
        "0x299c72F316Bc77D6AC8F1E210e94794171f05614",
        "0xe19a9dd9"
      ],
      "transaction": {
        "from": "0x1d1967ff22df0354c54dcd81bd295bf13c03024c",
        "to": "0x48c56e8ba59ecbb67464dce187320d94c51b3ac0",
        "gas": "0x11fe3",
        "value": "0x0",
        "input": "0x60cff9b5000000000000000000000000299c72f316bc77d6ac8f1e210e94794171f05614e19a9dd900000000000000000000000000000000000000000000000000000000",
        "nonce": "0x16",
        "chainId": "0xaa36a7"
      },
      "additionalContracts": [],
      "isFixedGasLimit": false
    },
    {
      "hash": "0x692de2ee7040767c4d7bd65c95a7032aa3878005b4dee9080c18dae74adae553",
      "transactionType": "CALL",
      "contractName": null,
      "contractAddress": "0x48c56e8ba59ecbb67464dce187320d94c51b3ac0",
      "function": "allowFunction(address,bytes4)",
      "arguments": [
        "0x48c56e8bA59ecBB67464dCE187320D94C51b3Ac0",
        "0x60cff9b5"
      ],
      "transaction": {
        "from": "0x1d1967ff22df0354c54dcd81bd295bf13c03024c",
        "to": "0x48c56e8ba59ecbb67464dce187320d94c51b3ac0",
        "gas": "0x11fe3",
        "value": "0x0",
        "input": "0x60cff9b500000000000000000000000048c56e8ba59ecbb67464dce187320d94c51b3ac060cff9b500000000000000000000000000000000000000000000000000000000",
        "nonce": "0x17",
        "chainId": "0xaa36a7"
      },
      "additionalContracts": [],
      "isFixedGasLimit": false
    },
    {
      "hash": "0x9c3bf6a40badb81e08cbd23ced0105f1be3ff5b95eedcfe02cf6caa022e439ea",
      "transactionType": "CALL",
      "contractName": null,
      "contractAddress": "0x48c56e8ba59ecbb67464dce187320d94c51b3ac0",
      "function": "allowFunction(address,bytes4)",
      "arguments": [
        "0x92d9b9BB76D75C03FcF8Fb4acf577b3c2938160a",
        "0x338b5dea"
      ],
      "transaction": {
        "from": "0x1d1967ff22df0354c54dcd81bd295bf13c03024c",
        "to": "0x48c56e8ba59ecbb67464dce187320d94c51b3ac0",
        "gas": "0x11fe3",
        "value": "0x0",
        "input": "0x60cff9b500000000000000000000000092d9b9bb76d75c03fcf8fb4acf577b3c2938160a338b5dea00000000000000000000000000000000000000000000000000000000",
        "nonce": "0x18",
        "chainId": "0xaa36a7"
      },
      "additionalContracts": [],
      "isFixedGasLimit": false
    },
    {
      "hash": "0xe3973f877359f8b42fca2531feda0fde56ee68d6997bbb467efff055d56aa854",
      "transactionType": "CALL",
      "contractName": null,
      "contractAddress": "0x48c56e8ba59ecbb67464dce187320d94c51b3ac0",
      "function": "allowFunction(address,bytes4)",
      "arguments": [
        "0x4DD5C6B7e11BE865b18e8Af1FF5CD781E8ED36be",
        "0xa9059cbb"
      ],
      "transaction": {
        "from": "0x1d1967ff22df0354c54dcd81bd295bf13c03024c",
        "to": "0x48c56e8ba59ecbb67464dce187320d94c51b3ac0",
        "gas": "0x11fe3",
        "value": "0x0",
        "input": "0x60cff9b50000000000000000000000004dd5c6b7e11be865b18e8af1ff5cd781e8ed36bea9059cbb00000000000000000000000000000000000000000000000000000000",
        "nonce": "0x19",
        "chainId": "0xaa36a7"
      },
      "additionalContracts": [],
      "isFixedGasLimit": false
    },
    {
      "hash": "0xb2bedf41784532b881ad1c56da025e9416fb477e3201bb0ab5ea313f0fccaf66",
      "transactionType": "CALL",
      "contractName": null,
      "contractAddress": "0x48c56e8ba59ecbb67464dce187320d94c51b3ac0",
      "function": "allowFunction(address,bytes4)",
      "arguments": [
        "0x4DD5C6B7e11BE865b18e8Af1FF5CD781E8ED36be",
        "0x095ea7b3"
      ],
      "transaction": {
        "from": "0x1d1967ff22df0354c54dcd81bd295bf13c03024c",
        "to": "0x48c56e8ba59ecbb67464dce187320d94c51b3ac0",
        "gas": "0x11fe3",
        "value": "0x0",
        "input": "0x60cff9b50000000000000000000000004dd5c6b7e11be865b18e8af1ff5cd781e8ed36be095ea7b300000000000000000000000000000000000000000000000000000000",
        "nonce": "0x1a",
        "chainId": "0xaa36a7"
      },
      "additionalContracts": [],
      "isFixedGasLimit": false
    },
    {
      "hash": "0x08cf903b8881022ad38871a785812d199fa366e380e2b1d5a3d989dfdf74565c",
      "transactionType": "CALL",
      "contractName": null,
      "contractAddress": "0x48c56e8ba59ecbb67464dce187320d94c51b3ac0",
      "function": "updateServiceManager(address)",
      "arguments": [
        "0x7A2CedB6423F8AB821aF4D7783459676078b511c"
      ],
      "transaction": {
        "from": "0x1d1967ff22df0354c54dcd81bd295bf13c03024c",
        "to": "0x48c56e8ba59ecbb67464dce187320d94c51b3ac0",
        "gas": "0x99f0",
        "value": "0x0",
        "input": "0x7d847d1b0000000000000000000000007a2cedb6423f8ab821af4d7783459676078b511c",
        "nonce": "0x1b",
        "chainId": "0xaa36a7"
      },
      "additionalContracts": [],
      "isFixedGasLimit": false
    },
    {
      "hash": "0x7369ee05bb72789ff49a0242f9c79e138114df32eb90a59c205f226da6e6c314",
      "transactionType": "CALL",
      "contractName": null,
      "contractAddress": "0x299c72f316bc77d6ac8f1e210e94794171f05614",
      "function": "execTransaction(address,uint256,bytes,uint8,uint256,uint256,uint256,address,address,bytes)",
      "arguments": [
        "0x299c72F316Bc77D6AC8F1E210e94794171f05614",
        "0",
        "0xe19a9dd900000000000000000000000048c56e8ba59ecbb67464dce187320d94c51b3ac0",
        "0",
        "0",
        "0",
        "0",
        "0x0000000000000000000000000000000000000000",
        "0x0000000000000000000000000000000000000000",
        "0x4afb20cc8f378917672fd2288e27e7d005130546be2a9a4f49416673c6cabc522c7a92776e263e70bc9aabd119f030f50bbd94193c4132f92a11de91a78a64cb1b"
      ],
      "transaction": {
        "from": "0x1d1967ff22df0354c54dcd81bd295bf13c03024c",
        "to": "0x299c72f316bc77d6ac8f1e210e94794171f05614",
        "gas": "0x23d94",
        "value": "0x0",
        "input": "0x6a761202000000000000000000000000299c72f316bc77d6ac8f1e210e94794171f056140000000000000000000000000000000000000000000000000000000000000000000000000000000000000000000000000000000000000000000000000000014000000000000000000000000000000000000000000000000000000000000000000000000000000000000000000000000000000000000000000000000000000000000000000000000000000000000000000000000000000000000000000000000000000000000000000000000000000000000000000000000000000000000000000000000000000000000000000000000000000000000000000000000000000000000000000000000000000000000000000000000000000000000000000000000000000000000000000000000000000000000000000000000000000000000001a00000000000000000000000000000000000000000000000000000000000000024e19a9dd900000000000000000000000048c56e8ba59ecbb67464dce187320d94c51b3ac00000000000000000000000000000000000000000000000000000000000000000000000000000000000000000000000000000000000000000000000414afb20cc8f378917672fd2288e27e7d005130546be2a9a4f49416673c6cabc522c7a92776e263e70bc9aabd119f030f50bbd94193c4132f92a11de91a78a64cb1b00000000000000000000000000000000000000000000000000000000000000",
        "nonce": "0x1c",
        "chainId": "0xaa36a7"
      },
      "additionalContracts": [],
      "isFixedGasLimit": false
    }
  ],
  "receipts": [
    {
      "status": "0x1",
      "cumulativeGasUsed": "0x914e0b",
      "logs": [],
      "logsBloom": "0x00000000000000000000000000000000000000000000000000000000000000000000000000000000000000000000000000000000000000000000000000000000000000000000000000000000000000000000000000000000000000000000000000000000000000000000000000000000000000000000000000000000000000000000000000000000000000000000000000000000000000000000000000000000000000000000000000000000000000000000000000000000000000000000000000000000000000000000000000000000000000000000000000000000000000000000000000000000000000000000000000000000000000000000000000000000",
      "type": "0x2",
      "transactionHash": "0x5a8341c3f022537ae0b7e50ac859e113cf3ba9985a1785010faa85dafc9bc910",
      "transactionIndex": "0x85",
      "blockHash": "0x5adf40d0cc07e1e746982fa50ef8bc8ab0c3e37a1a8f52eec672ee73b017fb14",
      "blockNumber": "0x758c66",
      "gasUsed": "0x6942",
      "effectiveGasPrice": "0x4685cbc7",
      "from": "0x1d1967ff22df0354c54dcd81bd295bf13c03024c",
      "to": "0x48c56e8ba59ecbb67464dce187320d94c51b3ac0",
      "contractAddress": null
    },
    {
      "status": "0x1",
      "cumulativeGasUsed": "0x9212e4",
      "logs": [
        {
          "address": "0x48c56e8ba59ecbb67464dce187320d94c51b3ac0",
          "topics": [
            "0x8b9ed51018e2194e0c99cb3dd5a611c44d2eacf3d5ea3d2ab993857c58ff5cfe",
            "0x000000000000000000000000299c72f316bc77d6ac8f1e210e94794171f05614",
            "0x6a76120200000000000000000000000000000000000000000000000000000000"
          ],
          "data": "0x",
          "blockHash": "0x5adf40d0cc07e1e746982fa50ef8bc8ab0c3e37a1a8f52eec672ee73b017fb14",
          "blockNumber": "0x758c66",
          "transactionHash": "0x815b10709f02889878ed02970499862f5f0fc968b50e271a6ea392f0beac6f4b",
          "transactionIndex": "0x86",
          "logIndex": "0xb4",
          "removed": false
        }
      ],
      "logsBloom": "0x00000000000000000000000000000000001000000000000000000000000000000004000000000000000000000000000000000000000000000000000000000000000000000000004200000000000000000000000000000000000000000000000000010000000000000000010080000000000000000000000000000000000200000000000000000000000000000000000000000010000000000000000000000000000000000000000000000000000002000000000000000000000000000000000000000000002000000000000000000000000000000000000000000000000000000000000000000000000000000008000000000000000000000000000000000000",
      "type": "0x2",
      "transactionHash": "0x815b10709f02889878ed02970499862f5f0fc968b50e271a6ea392f0beac6f4b",
      "transactionIndex": "0x86",
      "blockHash": "0x5adf40d0cc07e1e746982fa50ef8bc8ab0c3e37a1a8f52eec672ee73b017fb14",
      "blockNumber": "0x758c66",
      "gasUsed": "0xc4d9",
      "effectiveGasPrice": "0x4685cbc7",
      "from": "0x1d1967ff22df0354c54dcd81bd295bf13c03024c",
      "to": "0x48c56e8ba59ecbb67464dce187320d94c51b3ac0",
      "contractAddress": null
    },
    {
      "status": "0x1",
      "cumulativeGasUsed": "0x92d7bd",
      "logs": [
        {
          "address": "0x48c56e8ba59ecbb67464dce187320d94c51b3ac0",
          "topics": [
            "0x8b9ed51018e2194e0c99cb3dd5a611c44d2eacf3d5ea3d2ab993857c58ff5cfe",
            "0x000000000000000000000000299c72f316bc77d6ac8f1e210e94794171f05614",
            "0xe19a9dd900000000000000000000000000000000000000000000000000000000"
          ],
          "data": "0x",
          "blockHash": "0x5adf40d0cc07e1e746982fa50ef8bc8ab0c3e37a1a8f52eec672ee73b017fb14",
          "blockNumber": "0x758c66",
          "transactionHash": "0xdbcf6d0b0e3a6bd4279f044e211d7bb35cfd683fcb40433f0d9028246b8a66fa",
          "transactionIndex": "0x87",
          "logIndex": "0xb5",
          "removed": false
        }
      ],
      "logsBloom": "0x00000000000000000000000000000000001000000000000000000000000000000004000000000000000000000000000000000000000000000000000000000000000000000000004200000000000000000000000000008000000000000000000000012000000000000000000000000000000000000000000000000000000200000000000000000000004000000000000000000000000000000000000000000000000000000000000000000000000002000000000000000000000000000000000000000000002000000000000000000000000000000000000000000000000000000000000000000000000000000008000000000000000000000000000000000000",
      "type": "0x2",
      "transactionHash": "0xdbcf6d0b0e3a6bd4279f044e211d7bb35cfd683fcb40433f0d9028246b8a66fa",
      "transactionIndex": "0x87",
      "blockHash": "0x5adf40d0cc07e1e746982fa50ef8bc8ab0c3e37a1a8f52eec672ee73b017fb14",
      "blockNumber": "0x758c66",
      "gasUsed": "0xc4d9",
      "effectiveGasPrice": "0x4685cbc7",
      "from": "0x1d1967ff22df0354c54dcd81bd295bf13c03024c",
      "to": "0x48c56e8ba59ecbb67464dce187320d94c51b3ac0",
      "contractAddress": null
    },
    {
      "status": "0x1",
      "cumulativeGasUsed": "0x939c96",
      "logs": [
        {
          "address": "0x48c56e8ba59ecbb67464dce187320d94c51b3ac0",
          "topics": [
            "0x8b9ed51018e2194e0c99cb3dd5a611c44d2eacf3d5ea3d2ab993857c58ff5cfe",
            "0x00000000000000000000000048c56e8ba59ecbb67464dce187320d94c51b3ac0",
            "0x60cff9b500000000000000000000000000000000000000000000000000000000"
          ],
          "data": "0x",
          "blockHash": "0x5adf40d0cc07e1e746982fa50ef8bc8ab0c3e37a1a8f52eec672ee73b017fb14",
          "blockNumber": "0x758c66",
          "transactionHash": "0x692de2ee7040767c4d7bd65c95a7032aa3878005b4dee9080c18dae74adae553",
          "transactionIndex": "0x88",
          "logIndex": "0xb6",
          "removed": false
        }
      ],
      "logsBloom": "0x00000000000000000000000100000000001000000000000000000000000000000000000000000000000000000000000000000000000000000000000000000001000000000000004200000000000000000000000000000000000000000000000000010000000000000000000000000000000000000000000000000000000200000000000000000000000000000000008000000000000000000040000000001000000000000000000000000000000000000000000000000000000000000000000000000000000000000000000000000000000000000000000000000000000000000000000000000000000000000008000000000000000000000000000000008000",
      "type": "0x2",
      "transactionHash": "0x692de2ee7040767c4d7bd65c95a7032aa3878005b4dee9080c18dae74adae553",
      "transactionIndex": "0x88",
      "blockHash": "0x5adf40d0cc07e1e746982fa50ef8bc8ab0c3e37a1a8f52eec672ee73b017fb14",
      "blockNumber": "0x758c66",
      "gasUsed": "0xc4d9",
      "effectiveGasPrice": "0x4685cbc7",
      "from": "0x1d1967ff22df0354c54dcd81bd295bf13c03024c",
      "to": "0x48c56e8ba59ecbb67464dce187320d94c51b3ac0",
      "contractAddress": null
    },
    {
      "status": "0x1",
      "cumulativeGasUsed": "0x94616f",
      "logs": [
        {
          "address": "0x48c56e8ba59ecbb67464dce187320d94c51b3ac0",
          "topics": [
            "0x8b9ed51018e2194e0c99cb3dd5a611c44d2eacf3d5ea3d2ab993857c58ff5cfe",
            "0x00000000000000000000000092d9b9bb76d75c03fcf8fb4acf577b3c2938160a",
            "0x338b5dea00000000000000000000000000000000000000000000000000000000"
          ],
          "data": "0x",
          "blockHash": "0x5adf40d0cc07e1e746982fa50ef8bc8ab0c3e37a1a8f52eec672ee73b017fb14",
          "blockNumber": "0x758c66",
          "transactionHash": "0x9c3bf6a40badb81e08cbd23ced0105f1be3ff5b95eedcfe02cf6caa022e439ea",
          "transactionIndex": "0x89",
          "logIndex": "0xb7",
          "removed": false
        }
      ],
      "logsBloom": "0x00000000000100000000000000000000001000000000000000000000000000000000000000000000000000000000000000000000000000000000000000000000000000000000004200000000000000000000000000000000000000000000000000010000000000000000000000000000000000000000020000000000000200000000000000004000000002000000000000000000000000000000000000008000000000000800000000000000000000000000000000000000000000000000000000000000000000000000000000000000000000000000000000000000000000000000000000000000000000000008000000000000000000000000000000000000",
      "type": "0x2",
      "transactionHash": "0x9c3bf6a40badb81e08cbd23ced0105f1be3ff5b95eedcfe02cf6caa022e439ea",
      "transactionIndex": "0x89",
      "blockHash": "0x5adf40d0cc07e1e746982fa50ef8bc8ab0c3e37a1a8f52eec672ee73b017fb14",
      "blockNumber": "0x758c66",
      "gasUsed": "0xc4d9",
      "effectiveGasPrice": "0x4685cbc7",
      "from": "0x1d1967ff22df0354c54dcd81bd295bf13c03024c",
      "to": "0x48c56e8ba59ecbb67464dce187320d94c51b3ac0",
      "contractAddress": null
    },
    {
      "status": "0x1",
      "cumulativeGasUsed": "0x952648",
      "logs": [
        {
          "address": "0x48c56e8ba59ecbb67464dce187320d94c51b3ac0",
          "topics": [
            "0x8b9ed51018e2194e0c99cb3dd5a611c44d2eacf3d5ea3d2ab993857c58ff5cfe",
            "0x0000000000000000000000004dd5c6b7e11be865b18e8af1ff5cd781e8ed36be",
            "0xa9059cbb00000000000000000000000000000000000000000000000000000000"
          ],
          "data": "0x",
          "blockHash": "0x5adf40d0cc07e1e746982fa50ef8bc8ab0c3e37a1a8f52eec672ee73b017fb14",
          "blockNumber": "0x758c66",
          "transactionHash": "0xe3973f877359f8b42fca2531feda0fde56ee68d6997bbb467efff055d56aa854",
          "transactionIndex": "0x8a",
          "logIndex": "0xb8",
          "removed": false
        }
      ],
      "logsBloom": "0x00000000000000000000200000000000001000000000000000000000000000000000000000000000000000000000000000000000008000000020000000000000000000000000004200104000000000000000000000000000000000000000000000010000000000000000000000000000000000000000000000000000000200000000000000000000000000000000000000000000000000100000000000000000000000000000000000000000000000000000000000000000000000000000000000000000000000000000000000000000000000000000000000000000000000000000000000000000000000000008000000000000000000000000000000000000",
      "type": "0x2",
      "transactionHash": "0xe3973f877359f8b42fca2531feda0fde56ee68d6997bbb467efff055d56aa854",
      "transactionIndex": "0x8a",
      "blockHash": "0x5adf40d0cc07e1e746982fa50ef8bc8ab0c3e37a1a8f52eec672ee73b017fb14",
      "blockNumber": "0x758c66",
      "gasUsed": "0xc4d9",
      "effectiveGasPrice": "0x4685cbc7",
      "from": "0x1d1967ff22df0354c54dcd81bd295bf13c03024c",
      "to": "0x48c56e8ba59ecbb67464dce187320d94c51b3ac0",
      "contractAddress": null
    },
    {
      "status": "0x1",
      "cumulativeGasUsed": "0x98100c",
      "logs": [
        {
          "address": "0x48c56e8ba59ecbb67464dce187320d94c51b3ac0",
          "topics": [
            "0x8b9ed51018e2194e0c99cb3dd5a611c44d2eacf3d5ea3d2ab993857c58ff5cfe",
            "0x0000000000000000000000004dd5c6b7e11be865b18e8af1ff5cd781e8ed36be",
            "0x095ea7b300000000000000000000000000000000000000000000000000000000"
          ],
          "data": "0x",
          "blockHash": "0x5adf40d0cc07e1e746982fa50ef8bc8ab0c3e37a1a8f52eec672ee73b017fb14",
          "blockNumber": "0x758c66",
          "transactionHash": "0xb2bedf41784532b881ad1c56da025e9416fb477e3201bb0ab5ea313f0fccaf66",
          "transactionIndex": "0x8c",
          "logIndex": "0xbb",
          "removed": false
        }
      ],
      "logsBloom": "0x00000000000000000000200000000000001000000000000000000000000000000000000000000000000000000400000000000000008000000028000000000000000000000000004200000000000000000000000000000000000000000000000000010000000000000000000000000000000000000000000000000000000200000000000000000000000000000000000000000000000000000000000000000000000000000000000000000000000000000000000000000000000000000000000000000008000000000000000000000000000000000000000000000000000000000000000000000000000000000008000000000000000000000000000000000000",
      "type": "0x2",
      "transactionHash": "0xb2bedf41784532b881ad1c56da025e9416fb477e3201bb0ab5ea313f0fccaf66",
      "transactionIndex": "0x8c",
      "blockHash": "0x5adf40d0cc07e1e746982fa50ef8bc8ab0c3e37a1a8f52eec672ee73b017fb14",
      "blockNumber": "0x758c66",
      "gasUsed": "0xc4d9",
      "effectiveGasPrice": "0x4685cbc7",
      "from": "0x1d1967ff22df0354c54dcd81bd295bf13c03024c",
      "to": "0x48c56e8ba59ecbb67464dce187320d94c51b3ac0",
      "contractAddress": null
    },
    {
      "status": "0x1",
      "cumulativeGasUsed": "0x98794e",
      "logs": [],
      "logsBloom": "0x00000000000000000000000000000000000000000000000000000000000000000000000000000000000000000000000000000000000000000000000000000000000000000000000000000000000000000000000000000000000000000000000000000000000000000000000000000000000000000000000000000000000000000000000000000000000000000000000000000000000000000000000000000000000000000000000000000000000000000000000000000000000000000000000000000000000000000000000000000000000000000000000000000000000000000000000000000000000000000000000000000000000000000000000000000000",
      "type": "0x2",
      "transactionHash": "0x08cf903b8881022ad38871a785812d199fa366e380e2b1d5a3d989dfdf74565c",
      "transactionIndex": "0x8d",
      "blockHash": "0x5adf40d0cc07e1e746982fa50ef8bc8ab0c3e37a1a8f52eec672ee73b017fb14",
      "blockNumber": "0x758c66",
      "gasUsed": "0x6942",
      "effectiveGasPrice": "0x4685cbc7",
      "from": "0x1d1967ff22df0354c54dcd81bd295bf13c03024c",
      "to": "0x48c56e8ba59ecbb67464dce187320d94c51b3ac0",
      "contractAddress": null
    },
    {
      "status": "0x1",
      "cumulativeGasUsed": "0x9a017f",
      "logs": [
        {
          "address": "0x299c72f316bc77d6ac8f1e210e94794171f05614",
          "topics": [
            "0x66753cd2356569ee081232e3be8909b950e0a76c1f8460c3a5e3c2be32b11bed"
          ],
          "data": "0x000000000000000000000000299c72f316bc77d6ac8f1e210e94794171f056140000000000000000000000000000000000000000000000000000000000000000000000000000000000000000000000000000000000000000000000000000016000000000000000000000000000000000000000000000000000000000000000000000000000000000000000000000000000000000000000000000000000000000000000000000000000000000000000000000000000000000000000000000000000000000000000000000000000000000000000000000000000000000000000000000000000000000000000000000000000000000000000000000000000000000000000000000000000000000000000000000000000000000000000000000000000000000000000000000000000000000000000000000000000000000000001c000000000000000000000000000000000000000000000000000000000000002400000000000000000000000000000000000000000000000000000000000000024e19a9dd900000000000000000000000048c56e8ba59ecbb67464dce187320d94c51b3ac00000000000000000000000000000000000000000000000000000000000000000000000000000000000000000000000000000000000000000000000414afb20cc8f378917672fd2288e27e7d005130546be2a9a4f49416673c6cabc522c7a92776e263e70bc9aabd119f030f50bbd94193c4132f92a11de91a78a64cb1b00000000000000000000000000000000000000000000000000000000000000000000000000000000000000000000000000000000000000000000000000006000000000000000000000000000000000000000000000000000000000000000000000000000000000000000001d1967ff22df0354c54dcd81bd295bf13c03024c0000000000000000000000000000000000000000000000000000000000000001",
          "blockHash": "0x5adf40d0cc07e1e746982fa50ef8bc8ab0c3e37a1a8f52eec672ee73b017fb14",
          "blockNumber": "0x758c66",
          "transactionHash": "0x7369ee05bb72789ff49a0242f9c79e138114df32eb90a59c205f226da6e6c314",
          "transactionIndex": "0x8e",
          "logIndex": "0xbc",
          "removed": false
        },
        {
          "address": "0x299c72f316bc77d6ac8f1e210e94794171f05614",
          "topics": [
            "0x1151116914515bc0891ff9047a6cb32cf902546f83066499bcf8ba33d2353fa2",
            "0x00000000000000000000000048c56e8ba59ecbb67464dce187320d94c51b3ac0"
          ],
          "data": "0x",
          "blockHash": "0x5adf40d0cc07e1e746982fa50ef8bc8ab0c3e37a1a8f52eec672ee73b017fb14",
          "blockNumber": "0x758c66",
          "transactionHash": "0x7369ee05bb72789ff49a0242f9c79e138114df32eb90a59c205f226da6e6c314",
          "transactionIndex": "0x8e",
          "logIndex": "0xbd",
          "removed": false
        },
        {
          "address": "0x299c72f316bc77d6ac8f1e210e94794171f05614",
          "topics": [
            "0x442e715f626346e8c54381002da614f62bee8d27386535b2521ec8540898556e",
            "0x25bede6632c22a425b833c7269db44156006717c971aa4e2f4ee8684007a26de"
          ],
          "data": "0x0000000000000000000000000000000000000000000000000000000000000000",
          "blockHash": "0x5adf40d0cc07e1e746982fa50ef8bc8ab0c3e37a1a8f52eec672ee73b017fb14",
          "blockNumber": "0x758c66",
          "transactionHash": "0x7369ee05bb72789ff49a0242f9c79e138114df32eb90a59c205f226da6e6c314",
          "transactionIndex": "0x8e",
          "logIndex": "0xbe",
          "removed": false
        }
      ],
      "logsBloom": "0x00000000400000000000000100000000000000008000000000000000040000000180000000000000000000000000000000000000000000000000000000000001000000000020000000000000000000000000040000000000000000000000000000000000000000000000000000000000000000000000000000000000000000000000000000000000000000000000000000000000000000000000000000001000000000000400800000000000000004000000000000000000082000002000000000000000000000000000000000020000000000000000000000000000000000000000000000000000002000000000000000000000000000000000000000000000",
      "type": "0x2",
      "transactionHash": "0x7369ee05bb72789ff49a0242f9c79e138114df32eb90a59c205f226da6e6c314",
      "transactionIndex": "0x8e",
      "blockHash": "0x5adf40d0cc07e1e746982fa50ef8bc8ab0c3e37a1a8f52eec672ee73b017fb14",
      "blockNumber": "0x758c66",
      "gasUsed": "0x18831",
      "effectiveGasPrice": "0x4685cbc7",
      "from": "0x1d1967ff22df0354c54dcd81bd295bf13c03024c",
      "to": "0x299c72f316bc77d6ac8f1e210e94794171f05614",
      "contractAddress": null
    }
  ],
  "libraries": [],
  "pending": [],
  "returns": {},
  "timestamp": 1739508400,
  "chain": 11155111,
  "commit": "bd03a28"
}