{
  "transactions": [
    {
      "hash": "0x22992e8cc06737249f5b37e55d78874eeab9a05ac473a4764ea4c54032bf2490",
      "transactionType": "CALL",
      "contractName": null,
      "contractAddress": "0x078c2140d561cb55ad9fef647bace84bcceebb62",
      "function": "updateServiceManager(address)",
      "arguments": [
        "0x1D1967ff22Df0354c54dCD81Bd295bF13C03024c"
      ],
      "transaction": {
        "from": "0x1d1967ff22df0354c54dcd81bd295bf13c03024c",
        "to": "0x078c2140d561cb55ad9fef647bace84bcceebb62",
        "gas": "0x99f0",
        "value": "0x0",
        "input": "0x7d847d1b0000000000000000000000001d1967ff22df0354c54dcd81bd295bf13c03024c",
        "nonce": "0x2d",
        "chainId": "0xaa36a7"
      },
      "additionalContracts": [],
      "isFixedGasLimit": false
    },
    {
      "hash": "0xc16bf8a1da89cf27678e206bb132c1749772dddbe5a796ebd6014b1aee2d33b7",
      "transactionType": "CALL",
      "contractName": null,
      "contractAddress": "0x078c2140d561cb55ad9fef647bace84bcceebb62",
      "function": "allowFunction(address,bytes4)",
      "arguments": [
        "0xb3Fdf46168F9B7ACfF2FA24b75b9Ff98545c513d",
        "0x6a761202"
      ],
      "transaction": {
        "from": "0x1d1967ff22df0354c54dcd81bd295bf13c03024c",
        "to": "0x078c2140d561cb55ad9fef647bace84bcceebb62",
        "gas": "0x11fe3",
        "value": "0x0",
        "input": "0x60cff9b5000000000000000000000000b3fdf46168f9b7acff2fa24b75b9ff98545c513d6a76120200000000000000000000000000000000000000000000000000000000",
        "nonce": "0x2e",
        "chainId": "0xaa36a7"
      },
      "additionalContracts": [],
      "isFixedGasLimit": false
    },
    {
      "hash": "0x27a409a42f6a6d8af10cc69d829fcfeb400491eb28d31ae1d523ed55d111ab1d",
      "transactionType": "CALL",
      "contractName": null,
      "contractAddress": "0x078c2140d561cb55ad9fef647bace84bcceebb62",
      "function": "allowFunction(address,bytes4)",
      "arguments": [
        "0xb3Fdf46168F9B7ACfF2FA24b75b9Ff98545c513d",
        "0xe19a9dd9"
      ],
      "transaction": {
        "from": "0x1d1967ff22df0354c54dcd81bd295bf13c03024c",
        "to": "0x078c2140d561cb55ad9fef647bace84bcceebb62",
        "gas": "0x11fe3",
        "value": "0x0",
        "input": "0x60cff9b5000000000000000000000000b3fdf46168f9b7acff2fa24b75b9ff98545c513de19a9dd900000000000000000000000000000000000000000000000000000000",
        "nonce": "0x2f",
        "chainId": "0xaa36a7"
      },
      "additionalContracts": [],
      "isFixedGasLimit": false
    },
    {
      "hash": "0x94493cc442db8fb298d2a535c4fdc3053f480bfc743d8160e2ba06ae9b6e21ee",
      "transactionType": "CALL",
      "contractName": null,
      "contractAddress": "0x078c2140d561cb55ad9fef647bace84bcceebb62",
      "function": "allowFunction(address,bytes4)",
      "arguments": [
        "0x078c2140D561cb55aD9fef647BAce84Bcceebb62",
        "0x60cff9b5"
      ],
      "transaction": {
        "from": "0x1d1967ff22df0354c54dcd81bd295bf13c03024c",
        "to": "0x078c2140d561cb55ad9fef647bace84bcceebb62",
        "gas": "0x11fe3",
        "value": "0x0",
        "input": "0x60cff9b5000000000000000000000000078c2140d561cb55ad9fef647bace84bcceebb6260cff9b500000000000000000000000000000000000000000000000000000000",
        "nonce": "0x30",
        "chainId": "0xaa36a7"
      },
      "additionalContracts": [],
      "isFixedGasLimit": false
    },
    {
      "hash": "0x0aaf3283b24a9f22cee9f037dc4d9d33cf62677e02d83f65c3970246b619b958",
      "transactionType": "CALL",
      "contractName": null,
      "contractAddress": "0x078c2140d561cb55ad9fef647bace84bcceebb62",
      "function": "allowFunction(address,bytes4)",
      "arguments": [
        "0x92d9b9BB76D75C03FcF8Fb4acf577b3c2938160a",
        "0x338b5dea"
      ],
      "transaction": {
        "from": "0x1d1967ff22df0354c54dcd81bd295bf13c03024c",
        "to": "0x078c2140d561cb55ad9fef647bace84bcceebb62",
        "gas": "0x11fe3",
        "value": "0x0",
        "input": "0x60cff9b500000000000000000000000092d9b9bb76d75c03fcf8fb4acf577b3c2938160a338b5dea00000000000000000000000000000000000000000000000000000000",
        "nonce": "0x31",
        "chainId": "0xaa36a7"
      },
      "additionalContracts": [],
      "isFixedGasLimit": false
    },
    {
      "hash": "0x9a585e009cff6cd57a33d402b572b6fcb153e75f818900ed25d6e815b9622f6f",
      "transactionType": "CALL",
      "contractName": null,
      "contractAddress": "0x078c2140d561cb55ad9fef647bace84bcceebb62",
      "function": "allowFunction(address,bytes4)",
      "arguments": [
        "0x4DD5C6B7e11BE865b18e8Af1FF5CD781E8ED36be",
        "0xa9059cbb"
      ],
      "transaction": {
        "from": "0x1d1967ff22df0354c54dcd81bd295bf13c03024c",
        "to": "0x078c2140d561cb55ad9fef647bace84bcceebb62",
        "gas": "0x11fe3",
        "value": "0x0",
        "input": "0x60cff9b50000000000000000000000004dd5c6b7e11be865b18e8af1ff5cd781e8ed36bea9059cbb00000000000000000000000000000000000000000000000000000000",
        "nonce": "0x32",
        "chainId": "0xaa36a7"
      },
      "additionalContracts": [],
      "isFixedGasLimit": false
    },
    {
      "hash": "0x2f01a6f18c98d4ab4e4fd8b10895f1ddb74c1919e3729e23ce42dc5fde9c4bc7",
      "transactionType": "CALL",
      "contractName": null,
      "contractAddress": "0x078c2140d561cb55ad9fef647bace84bcceebb62",
      "function": "allowFunction(address,bytes4)",
      "arguments": [
        "0x4DD5C6B7e11BE865b18e8Af1FF5CD781E8ED36be",
        "0x095ea7b3"
      ],
      "transaction": {
        "from": "0x1d1967ff22df0354c54dcd81bd295bf13c03024c",
        "to": "0x078c2140d561cb55ad9fef647bace84bcceebb62",
        "gas": "0x11fe3",
        "value": "0x0",
        "input": "0x60cff9b50000000000000000000000004dd5c6b7e11be865b18e8af1ff5cd781e8ed36be095ea7b300000000000000000000000000000000000000000000000000000000",
        "nonce": "0x33",
        "chainId": "0xaa36a7"
      },
      "additionalContracts": [],
      "isFixedGasLimit": false
    },
    {
      "hash": "0x5c35230015c01d2a2e7f3de286c9bb7766f86b589c2bbdada2fc14d5219fdc54",
      "transactionType": "CALL",
      "contractName": null,
      "contractAddress": "0x078c2140d561cb55ad9fef647bace84bcceebb62",
      "function": "updateServiceManager(address)",
      "arguments": [
        "0x26B4B172c7F4Ab1aeB4BfDda55deD858fDa455f6"
      ],
      "transaction": {
        "from": "0x1d1967ff22df0354c54dcd81bd295bf13c03024c",
        "to": "0x078c2140d561cb55ad9fef647bace84bcceebb62",
        "gas": "0x99f0",
        "value": "0x0",
        "input": "0x7d847d1b00000000000000000000000026b4b172c7f4ab1aeb4bfdda55ded858fda455f6",
        "nonce": "0x34",
        "chainId": "0xaa36a7"
      },
      "additionalContracts": [],
      "isFixedGasLimit": false
    },
    {
      "hash": "0x72275d634fdba98c2af76934ae7f00907cbc489a8980267fadaba82c6ebb5e3f",
      "transactionType": "CALL",
      "contractName": null,
      "contractAddress": "0xb3fdf46168f9b7acff2fa24b75b9ff98545c513d",
      "function": "execTransaction(address,uint256,bytes,uint8,uint256,uint256,uint256,address,address,bytes)",
      "arguments": [
        "0xb3Fdf46168F9B7ACfF2FA24b75b9Ff98545c513d",
        "0",
        "0xe19a9dd9000000000000000000000000078c2140d561cb55ad9fef647bace84bcceebb62",
        "0",
        "0",
        "0",
        "0",
        "0x0000000000000000000000000000000000000000",
        "0x0000000000000000000000000000000000000000",
        "0xf9176f0d6e1aa59261fc43e7c324999772a7ecf8504420a2ba9573e3f6695efd21bbe0c9e991a30cf57d047718d5041c0f4d856f07449e40abe6c7f5c5e565ca1b"
      ],
      "transaction": {
        "from": "0x1d1967ff22df0354c54dcd81bd295bf13c03024c",
        "to": "0xb3fdf46168f9b7acff2fa24b75b9ff98545c513d",
        "gas": "0x23d94",
        "value": "0x0",
        "input": "0x6a761202000000000000000000000000b3fdf46168f9b7acff2fa24b75b9ff98545c513d0000000000000000000000000000000000000000000000000000000000000000000000000000000000000000000000000000000000000000000000000000014000000000000000000000000000000000000000000000000000000000000000000000000000000000000000000000000000000000000000000000000000000000000000000000000000000000000000000000000000000000000000000000000000000000000000000000000000000000000000000000000000000000000000000000000000000000000000000000000000000000000000000000000000000000000000000000000000000000000000000000000000000000000000000000000000000000000000000000000000000000000000000000000000000000000001a00000000000000000000000000000000000000000000000000000000000000024e19a9dd9000000000000000000000000078c2140d561cb55ad9fef647bace84bcceebb62000000000000000000000000000000000000000000000000000000000000000000000000000000000000000000000000000000000000000000000041f9176f0d6e1aa59261fc43e7c324999772a7ecf8504420a2ba9573e3f6695efd21bbe0c9e991a30cf57d047718d5041c0f4d856f07449e40abe6c7f5c5e565ca1b00000000000000000000000000000000000000000000000000000000000000",
        "nonce": "0x35",
        "chainId": "0xaa36a7"
      },
      "additionalContracts": [],
      "isFixedGasLimit": false
    }
  ],
  "receipts": [
    {
      "status": "0x1",
      "cumulativeGasUsed": "0x200ec13",
      "logs": [],
      "logsBloom": "0x00000000000000000000000000000000000000000000000000000000000000000000000000000000000000000000000000000000000000000000000000000000000000000000000000000000000000000000000000000000000000000000000000000000000000000000000000000000000000000000000000000000000000000000000000000000000000000000000000000000000000000000000000000000000000000000000000000000000000000000000000000000000000000000000000000000000000000000000000000000000000000000000000000000000000000000000000000000000000000000000000000000000000000000000000000000",
      "type": "0x2",
      "transactionHash": "0x22992e8cc06737249f5b37e55d78874eeab9a05ac473a4764ea4c54032bf2490",
      "transactionIndex": "0x138",
      "blockHash": "0xdeec91776c0b86aebe3da57d963121bb76b2704aa610a1b26b8513264ee22440",
      "blockNumber": "0x759004",
      "gasUsed": "0x6942",
      "effectiveGasPrice": "0x34dbda06c",
      "from": "0x1d1967ff22df0354c54dcd81bd295bf13c03024c",
      "to": "0x078c2140d561cb55ad9fef647bace84bcceebb62",
      "contractAddress": null
    },
    {
      "status": "0x1",
      "cumulativeGasUsed": "0x201b0ec",
      "logs": [
        {
          "address": "0x078c2140d561cb55ad9fef647bace84bcceebb62",
          "topics": [
            "0x8b9ed51018e2194e0c99cb3dd5a611c44d2eacf3d5ea3d2ab993857c58ff5cfe",
            "0x000000000000000000000000b3fdf46168f9b7acff2fa24b75b9ff98545c513d",
            "0x6a76120200000000000000000000000000000000000000000000000000000000"
          ],
          "data": "0x",
          "blockHash": "0xdeec91776c0b86aebe3da57d963121bb76b2704aa610a1b26b8513264ee22440",
          "blockNumber": "0x759004",
          "transactionHash": "0xc16bf8a1da89cf27678e206bb132c1749772dddbe5a796ebd6014b1aee2d33b7",
          "transactionIndex": "0x139",
          "logIndex": "0x1c5",
          "removed": false
        }
      ],
      "logsBloom": "0x00000000000000000000000000000000001000000000000000000000000000000000000000000000000000000000000000000000000000000000000000000000000000000000004000000000000000000000000000000000000000000001000000000200000000000000010080000000000400000000000000000000000000000000000000000000000000000000000000000010000000000000000000000000000000000000000000000000000000000008000000000000000000000000000000000000000002000000000000000000000000000000000000000000000000000000000000000020000000000008000000000000000000000000000000000000",
      "type": "0x2",
      "transactionHash": "0xc16bf8a1da89cf27678e206bb132c1749772dddbe5a796ebd6014b1aee2d33b7",
      "transactionIndex": "0x139",
      "blockHash": "0xdeec91776c0b86aebe3da57d963121bb76b2704aa610a1b26b8513264ee22440",
      "blockNumber": "0x759004",
      "gasUsed": "0xc4d9",
      "effectiveGasPrice": "0x34dbda06c",
      "from": "0x1d1967ff22df0354c54dcd81bd295bf13c03024c",
      "to": "0x078c2140d561cb55ad9fef647bace84bcceebb62",
      "contractAddress": null
    },
    {
      "status": "0x1",
      "cumulativeGasUsed": "0x20275c5",
      "logs": [
        {
          "address": "0x078c2140d561cb55ad9fef647bace84bcceebb62",
          "topics": [
            "0x8b9ed51018e2194e0c99cb3dd5a611c44d2eacf3d5ea3d2ab993857c58ff5cfe",
            "0x000000000000000000000000b3fdf46168f9b7acff2fa24b75b9ff98545c513d",
            "0xe19a9dd900000000000000000000000000000000000000000000000000000000"
          ],
          "data": "0x",
          "blockHash": "0xdeec91776c0b86aebe3da57d963121bb76b2704aa610a1b26b8513264ee22440",
          "blockNumber": "0x759004",
          "transactionHash": "0x27a409a42f6a6d8af10cc69d829fcfeb400491eb28d31ae1d523ed55d111ab1d",
          "transactionIndex": "0x13a",
          "logIndex": "0x1c6",
          "removed": false
        }
      ],
      "logsBloom": "0x00000000000000000000000000000000001000000000000000000000000000000000000000000000000000000000000000000000000000000000000000000000000000000000004000000000000000000000000000008000000000000001000000002200000000000000000000000000000400000000000000000000000000000000000000000000004000000000000000000000000000000000000000000000000000000000000000000000000000000008000000000000000000000000000000000000000002000000000000000000000000000000000000000000000000000000000000000020000000000008000000000000000000000000000000000000",
      "type": "0x2",
      "transactionHash": "0x27a409a42f6a6d8af10cc69d829fcfeb400491eb28d31ae1d523ed55d111ab1d",
      "transactionIndex": "0x13a",
      "blockHash": "0xdeec91776c0b86aebe3da57d963121bb76b2704aa610a1b26b8513264ee22440",
      "blockNumber": "0x759004",
      "gasUsed": "0xc4d9",
      "effectiveGasPrice": "0x34dbda06c",
      "from": "0x1d1967ff22df0354c54dcd81bd295bf13c03024c",
      "to": "0x078c2140d561cb55ad9fef647bace84bcceebb62",
      "contractAddress": null
    },
    {
      "status": "0x1",
      "cumulativeGasUsed": "0x2033a9e",
      "logs": [
        {
          "address": "0x078c2140d561cb55ad9fef647bace84bcceebb62",
          "topics": [
            "0x8b9ed51018e2194e0c99cb3dd5a611c44d2eacf3d5ea3d2ab993857c58ff5cfe",
            "0x000000000000000000000000078c2140d561cb55ad9fef647bace84bcceebb62",
            "0x60cff9b500000000000000000000000000000000000000000000000000000000"
          ],
          "data": "0x",
          "blockHash": "0xdeec91776c0b86aebe3da57d963121bb76b2704aa610a1b26b8513264ee22440",
          "blockNumber": "0x759004",
          "transactionHash": "0x94493cc442db8fb298d2a535c4fdc3053f480bfc743d8160e2ba06ae9b6e21ee",
          "transactionIndex": "0x13b",
          "logIndex": "0x1c7",
          "removed": false
        }
      ],
      "logsBloom": "0x00000000000000000000000000000000001000000000000000000000000000000000000000000000000000000000000000000000000000000000000000000000000000000000004000000000000000000000000000000000000000000000000000000200000000000000000000000000000400000000000000000000000000008000000000000000000000000000008000000000000000000040000000000000000000000000000000000000000000000008000000000000000000000000000000000000000000000080000000000010000000000000000000000000000000000000000000000000000000000008000000000000000000000000000000008000",
      "type": "0x2",
      "transactionHash": "0x94493cc442db8fb298d2a535c4fdc3053f480bfc743d8160e2ba06ae9b6e21ee",
      "transactionIndex": "0x13b",
      "blockHash": "0xdeec91776c0b86aebe3da57d963121bb76b2704aa610a1b26b8513264ee22440",
      "blockNumber": "0x759004",
      "gasUsed": "0xc4d9",
      "effectiveGasPrice": "0x34dbda06c",
      "from": "0x1d1967ff22df0354c54dcd81bd295bf13c03024c",
      "to": "0x078c2140d561cb55ad9fef647bace84bcceebb62",
      "contractAddress": null
    },
    {
      "status": "0x1",
      "cumulativeGasUsed": "0x203ff77",
      "logs": [
        {
          "address": "0x078c2140d561cb55ad9fef647bace84bcceebb62",
          "topics": [
            "0x8b9ed51018e2194e0c99cb3dd5a611c44d2eacf3d5ea3d2ab993857c58ff5cfe",
            "0x00000000000000000000000092d9b9bb76d75c03fcf8fb4acf577b3c2938160a",
            "0x338b5dea00000000000000000000000000000000000000000000000000000000"
          ],
          "data": "0x",
          "blockHash": "0xdeec91776c0b86aebe3da57d963121bb76b2704aa610a1b26b8513264ee22440",
          "blockNumber": "0x759004",
          "transactionHash": "0x0aaf3283b24a9f22cee9f037dc4d9d33cf62677e02d83f65c3970246b619b958",
          "transactionIndex": "0x13c",
          "logIndex": "0x1c8",
          "removed": false
        }
      ],
      "logsBloom": "0x00000000000100000000000000000000001000000000000000000000000000000000000000000000000000000000000000000000000000000000000000000000000000000000004000000000000000000000000000000000000000000000000000000200000000000000000000000000000400000000020000000000000000000000000000004000000002000000000000000000000000000000000000008000000000000800000000000000000000000008000000000000000000000000000000000000000000000000000000000000000000000000000000000000000000000000000000000000000000000008000000000000000000000000000000000000",
      "type": "0x2",
      "transactionHash": "0x0aaf3283b24a9f22cee9f037dc4d9d33cf62677e02d83f65c3970246b619b958",
      "transactionIndex": "0x13c",
      "blockHash": "0xdeec91776c0b86aebe3da57d963121bb76b2704aa610a1b26b8513264ee22440",
      "blockNumber": "0x759004",
      "gasUsed": "0xc4d9",
      "effectiveGasPrice": "0x34dbda06c",
      "from": "0x1d1967ff22df0354c54dcd81bd295bf13c03024c",
      "to": "0x078c2140d561cb55ad9fef647bace84bcceebb62",
      "contractAddress": null
    },
    {
      "status": "0x1",
      "cumulativeGasUsed": "0x204c450",
      "logs": [
        {
          "address": "0x078c2140d561cb55ad9fef647bace84bcceebb62",
          "topics": [
            "0x8b9ed51018e2194e0c99cb3dd5a611c44d2eacf3d5ea3d2ab993857c58ff5cfe",
            "0x0000000000000000000000004dd5c6b7e11be865b18e8af1ff5cd781e8ed36be",
            "0xa9059cbb00000000000000000000000000000000000000000000000000000000"
          ],
          "data": "0x",
          "blockHash": "0xdeec91776c0b86aebe3da57d963121bb76b2704aa610a1b26b8513264ee22440",
          "blockNumber": "0x759004",
          "transactionHash": "0x9a585e009cff6cd57a33d402b572b6fcb153e75f818900ed25d6e815b9622f6f",
          "transactionIndex": "0x13d",
          "logIndex": "0x1c9",
          "removed": false
        }
      ],
      "logsBloom": "0x00000000000000000000200000000000001000000000000000000000000000000000000000000000000000000000000000000000008000000020000000000000000000000000004000104000000000000000000000000000000000000000000000000200000000000000000000000000000400000000000000000000000000000000000000000000000000000000000000000000000000100000000000000000000000000000000000000000000000000008000000000000000000000000000000000000000000000000000000000000000000000000000000000000000000000000000000000000000000000008000000000000000000000000000000000000",
      "type": "0x2",
      "transactionHash": "0x9a585e009cff6cd57a33d402b572b6fcb153e75f818900ed25d6e815b9622f6f",
      "transactionIndex": "0x13d",
      "blockHash": "0xdeec91776c0b86aebe3da57d963121bb76b2704aa610a1b26b8513264ee22440",
      "blockNumber": "0x759004",
      "gasUsed": "0xc4d9",
      "effectiveGasPrice": "0x34dbda06c",
      "from": "0x1d1967ff22df0354c54dcd81bd295bf13c03024c",
      "to": "0x078c2140d561cb55ad9fef647bace84bcceebb62",
      "contractAddress": null
    },
    {
      "status": "0x1",
      "cumulativeGasUsed": "0x2058929",
      "logs": [
        {
          "address": "0x078c2140d561cb55ad9fef647bace84bcceebb62",
          "topics": [
            "0x8b9ed51018e2194e0c99cb3dd5a611c44d2eacf3d5ea3d2ab993857c58ff5cfe",
            "0x0000000000000000000000004dd5c6b7e11be865b18e8af1ff5cd781e8ed36be",
            "0x095ea7b300000000000000000000000000000000000000000000000000000000"
          ],
          "data": "0x",
          "blockHash": "0xdeec91776c0b86aebe3da57d963121bb76b2704aa610a1b26b8513264ee22440",
          "blockNumber": "0x759004",
          "transactionHash": "0x2f01a6f18c98d4ab4e4fd8b10895f1ddb74c1919e3729e23ce42dc5fde9c4bc7",
          "transactionIndex": "0x13e",
          "logIndex": "0x1ca",
          "removed": false
        }
      ],
      "logsBloom": "0x00000000000000000000200000000000001000000000000000000000000000000000000000000000000000000400000000000000008000000028000000000000000000000000004000000000000000000000000000000000000000000000000000000200000000000000000000000000000400000000000000000000000000000000000000000000000000000000000000000000000000000000000000000000000000000000000000000000000000000008000000000000000000000000000000000008000000000000000000000000000000000000000000000000000000000000000000000000000000000008000000000000000000000000000000000000",
      "type": "0x2",
      "transactionHash": "0x2f01a6f18c98d4ab4e4fd8b10895f1ddb74c1919e3729e23ce42dc5fde9c4bc7",
      "transactionIndex": "0x13e",
      "blockHash": "0xdeec91776c0b86aebe3da57d963121bb76b2704aa610a1b26b8513264ee22440",
      "blockNumber": "0x759004",
      "gasUsed": "0xc4d9",
      "effectiveGasPrice": "0x34dbda06c",
      "from": "0x1d1967ff22df0354c54dcd81bd295bf13c03024c",
      "to": "0x078c2140d561cb55ad9fef647bace84bcceebb62",
      "contractAddress": null
    },
    {
      "status": "0x1",
      "cumulativeGasUsed": "0x205f26b",
      "logs": [],
      "logsBloom": "0x00000000000000000000000000000000000000000000000000000000000000000000000000000000000000000000000000000000000000000000000000000000000000000000000000000000000000000000000000000000000000000000000000000000000000000000000000000000000000000000000000000000000000000000000000000000000000000000000000000000000000000000000000000000000000000000000000000000000000000000000000000000000000000000000000000000000000000000000000000000000000000000000000000000000000000000000000000000000000000000000000000000000000000000000000000000",
      "type": "0x2",
      "transactionHash": "0x5c35230015c01d2a2e7f3de286c9bb7766f86b589c2bbdada2fc14d5219fdc54",
      "transactionIndex": "0x13f",
      "blockHash": "0xdeec91776c0b86aebe3da57d963121bb76b2704aa610a1b26b8513264ee22440",
      "blockNumber": "0x759004",
      "gasUsed": "0x6942",
      "effectiveGasPrice": "0x34dbda06c",
      "from": "0x1d1967ff22df0354c54dcd81bd295bf13c03024c",
      "to": "0x078c2140d561cb55ad9fef647bace84bcceebb62",
      "contractAddress": null
    },
    {
      "status": "0x1",
      "cumulativeGasUsed": "0x2077a9c",
      "logs": [
        {
          "address": "0xb3fdf46168f9b7acff2fa24b75b9ff98545c513d",
          "topics": [
            "0x66753cd2356569ee081232e3be8909b950e0a76c1f8460c3a5e3c2be32b11bed"
          ],
          "data": "0x000000000000000000000000b3fdf46168f9b7acff2fa24b75b9ff98545c513d0000000000000000000000000000000000000000000000000000000000000000000000000000000000000000000000000000000000000000000000000000016000000000000000000000000000000000000000000000000000000000000000000000000000000000000000000000000000000000000000000000000000000000000000000000000000000000000000000000000000000000000000000000000000000000000000000000000000000000000000000000000000000000000000000000000000000000000000000000000000000000000000000000000000000000000000000000000000000000000000000000000000000000000000000000000000000000000000000000000000000000000000000000000000000000000001c000000000000000000000000000000000000000000000000000000000000002400000000000000000000000000000000000000000000000000000000000000024e19a9dd9000000000000000000000000078c2140d561cb55ad9fef647bace84bcceebb62000000000000000000000000000000000000000000000000000000000000000000000000000000000000000000000000000000000000000000000041f9176f0d6e1aa59261fc43e7c324999772a7ecf8504420a2ba9573e3f6695efd21bbe0c9e991a30cf57d047718d5041c0f4d856f07449e40abe6c7f5c5e565ca1b00000000000000000000000000000000000000000000000000000000000000000000000000000000000000000000000000000000000000000000000000006000000000000000000000000000000000000000000000000000000000000000000000000000000000000000001d1967ff22df0354c54dcd81bd295bf13c03024c0000000000000000000000000000000000000000000000000000000000000001",
          "blockHash": "0xdeec91776c0b86aebe3da57d963121bb76b2704aa610a1b26b8513264ee22440",
          "blockNumber": "0x759004",
          "transactionHash": "0x72275d634fdba98c2af76934ae7f00907cbc489a8980267fadaba82c6ebb5e3f",
          "transactionIndex": "0x140",
          "logIndex": "0x1cb",
          "removed": false
        },
        {
          "address": "0xb3fdf46168f9b7acff2fa24b75b9ff98545c513d",
          "topics": [
            "0x1151116914515bc0891ff9047a6cb32cf902546f83066499bcf8ba33d2353fa2",
            "0x000000000000000000000000078c2140d561cb55ad9fef647bace84bcceebb62"
          ],
          "data": "0x",
          "blockHash": "0xdeec91776c0b86aebe3da57d963121bb76b2704aa610a1b26b8513264ee22440",
          "blockNumber": "0x759004",
          "transactionHash": "0x72275d634fdba98c2af76934ae7f00907cbc489a8980267fadaba82c6ebb5e3f",
          "transactionIndex": "0x140",
          "logIndex": "0x1cc",
          "removed": false
        },
        {
          "address": "0xb3fdf46168f9b7acff2fa24b75b9ff98545c513d",
          "topics": [
            "0x442e715f626346e8c54381002da614f62bee8d27386535b2521ec8540898556e",
            "0x1b6b3423d9dbc72fdab69d826daf5a98554658824a282c41887d989634819ea0"
          ],
          "data": "0x0000000000000000000000000000000000000000000000000000000000000000",
          "blockHash": "0xdeec91776c0b86aebe3da57d963121bb76b2704aa610a1b26b8513264ee22440",
          "blockNumber": "0x759004",
          "transactionHash": "0x72275d634fdba98c2af76934ae7f00907cbc489a8980267fadaba82c6ebb5e3f",
          "transactionIndex": "0x140",
          "logIndex": "0x1cd",
          "removed": false
        }
      ],
      "logsBloom": "0x00000000400000000000000000000000000000000000000000000000040000000000000000000000000000000000000000000000000100000000000000000000000000000020000000000000000000000000840000000000000000000000000000000000000000000000000000000000000000000000000000000000000000008000000000000000000000000000000000000000000000008000000000000000000000000400800000000000000004000000000000000000000000000010000000000000000000000080400000020010000000000000000000000000000000000000000000000000002000000000000000000000040000000000000000000000",
      "type": "0x2",
      "transactionHash": "0x72275d634fdba98c2af76934ae7f00907cbc489a8980267fadaba82c6ebb5e3f",
      "transactionIndex": "0x140",
      "blockHash": "0xdeec91776c0b86aebe3da57d963121bb76b2704aa610a1b26b8513264ee22440",
      "blockNumber": "0x759004",
      "gasUsed": "0x18831",
      "effectiveGasPrice": "0x34dbda06c",
      "from": "0x1d1967ff22df0354c54dcd81bd295bf13c03024c",
      "to": "0xb3fdf46168f9b7acff2fa24b75b9ff98545c513d",
      "contractAddress": null
    }
  ],
  "libraries": [],
  "pending": [],
  "returns": {},
  "timestamp": 1739519835,
  "chain": 11155111,
  "commit": "bd03a28"
}