{
  "transactions": [
    {
      "hash": "0xac1a1d5a1b6239eb3fc80d09e01c534f019d233f769488652b50ea285d3c76e6",
      "transactionType": "CALL",
      "contractName": null,
      "contractAddress": "0x48c56e8ba59ecbb67464dce187320d94c51b3ac0",
      "function": "updateServiceManager(address)",
      "arguments": [
        "0x1D1967ff22Df0354c54dCD81Bd295bF13C03024c"
      ],
      "transaction": {
        "from": "0x1d1967ff22df0354c54dcd81bd295bf13c03024c",
        "to": "0x48c56e8ba59ecbb67464dce187320d94c51b3ac0",
        "gas": "0x99f0",
        "value": "0x0",
        "input": "0x7d847d1b0000000000000000000000001d1967ff22df0354c54dcd81bd295bf13c03024c",
        "nonce": "0x1d",
        "chainId": "0xaa36a7"
      },
      "additionalContracts": [],
      "isFixedGasLimit": false
    },
    {
      "hash": "0xcc77e1a98a8d8d19fa9ce8fe545045e644ba3b9c959ffc174e0f6e3155f26710",
      "transactionType": "CALL",
      "contractName": null,
      "contractAddress": "0x48c56e8ba59ecbb67464dce187320d94c51b3ac0",
      "function": "allowFunction(address,bytes4)",
      "arguments": [
        "0x299c72F316Bc77D6AC8F1E210e94794171f05614",
        "0x6a761202"
      ],
      "transaction": {
        "from": "0x1d1967ff22df0354c54dcd81bd295bf13c03024c",
        "to": "0x48c56e8ba59ecbb67464dce187320d94c51b3ac0",
        "gas": "0xa485",
        "value": "0x0",
        "input": "0x60cff9b5000000000000000000000000299c72f316bc77d6ac8f1e210e94794171f056146a76120200000000000000000000000000000000000000000000000000000000",
        "nonce": "0x1e",
        "chainId": "0xaa36a7"
      },
      "additionalContracts": [],
      "isFixedGasLimit": false
    },
    {
      "hash": "0xa52fdb60ca855d5ad1c632465df327c6199257640d815fc3da061134b1f99fcc",
      "transactionType": "CALL",
      "contractName": null,
      "contractAddress": "0x48c56e8ba59ecbb67464dce187320d94c51b3ac0",
      "function": "allowFunction(address,bytes4)",
      "arguments": [
        "0x299c72F316Bc77D6AC8F1E210e94794171f05614",
        "0xe19a9dd9"
      ],
      "transaction": {
        "from": "0x1d1967ff22df0354c54dcd81bd295bf13c03024c",
        "to": "0x48c56e8ba59ecbb67464dce187320d94c51b3ac0",
        "gas": "0xa485",
        "value": "0x0",
        "input": "0x60cff9b5000000000000000000000000299c72f316bc77d6ac8f1e210e94794171f05614e19a9dd900000000000000000000000000000000000000000000000000000000",
        "nonce": "0x1f",
        "chainId": "0xaa36a7"
      },
      "additionalContracts": [],
      "isFixedGasLimit": false
    },
    {
      "hash": null,
      "transactionType": "CALL",
      "contractName": null,
      "contractAddress": "0x48c56e8ba59ecbb67464dce187320d94c51b3ac0",
      "function": "allowFunction(address,bytes4)",
      "arguments": [
        "0x48c56e8bA59ecBB67464dCE187320D94C51b3Ac0",
        "0x60cff9b5"
      ],
      "transaction": {
        "from": "0x1d1967ff22df0354c54dcd81bd295bf13c03024c",
        "to": "0x48c56e8ba59ecbb67464dce187320d94c51b3ac0",
        "gas": "0xa485",
        "value": "0x0",
        "input": "0x60cff9b500000000000000000000000048c56e8ba59ecbb67464dce187320d94c51b3ac060cff9b500000000000000000000000000000000000000000000000000000000",
        "nonce": "0x20",
        "chainId": "0xaa36a7"
      },
      "additionalContracts": [],
      "isFixedGasLimit": false
    },
    {
      "hash": null,
      "transactionType": "CALL",
      "contractName": null,
      "contractAddress": "0x48c56e8ba59ecbb67464dce187320d94c51b3ac0",
      "function": "allowFunction(address,bytes4)",
      "arguments": [
        "0x92d9b9BB76D75C03FcF8Fb4acf577b3c2938160a",
        "0x338b5dea"
      ],
      "transaction": {
        "from": "0x1d1967ff22df0354c54dcd81bd295bf13c03024c",
        "to": "0x48c56e8ba59ecbb67464dce187320d94c51b3ac0",
        "gas": "0xa485",
        "value": "0x0",
        "input": "0x60cff9b500000000000000000000000092d9b9bb76d75c03fcf8fb4acf577b3c2938160a338b5dea00000000000000000000000000000000000000000000000000000000",
        "nonce": "0x21",
        "chainId": "0xaa36a7"
      },
      "additionalContracts": [],
      "isFixedGasLimit": false
    },
    {
      "hash": null,
      "transactionType": "CALL",
      "contractName": null,
      "contractAddress": "0x48c56e8ba59ecbb67464dce187320d94c51b3ac0",
      "function": "allowFunction(address,bytes4)",
      "arguments": [
        "0x4DD5C6B7e11BE865b18e8Af1FF5CD781E8ED36be",
        "0xa9059cbb"
      ],
      "transaction": {
        "from": "0x1d1967ff22df0354c54dcd81bd295bf13c03024c",
        "to": "0x48c56e8ba59ecbb67464dce187320d94c51b3ac0",
        "gas": "0xa485",
        "value": "0x0",
        "input": "0x60cff9b50000000000000000000000004dd5c6b7e11be865b18e8af1ff5cd781e8ed36bea9059cbb00000000000000000000000000000000000000000000000000000000",
        "nonce": "0x22",
        "chainId": "0xaa36a7"
      },
      "additionalContracts": [],
      "isFixedGasLimit": false
    },
    {
      "hash": null,
      "transactionType": "CALL",
      "contractName": null,
      "contractAddress": "0x48c56e8ba59ecbb67464dce187320d94c51b3ac0",
      "function": "allowFunction(address,bytes4)",
      "arguments": [
        "0x4DD5C6B7e11BE865b18e8Af1FF5CD781E8ED36be",
        "0x095ea7b3"
      ],
      "transaction": {
        "from": "0x1d1967ff22df0354c54dcd81bd295bf13c03024c",
        "to": "0x48c56e8ba59ecbb67464dce187320d94c51b3ac0",
        "gas": "0xa485",
        "value": "0x0",
        "input": "0x60cff9b50000000000000000000000004dd5c6b7e11be865b18e8af1ff5cd781e8ed36be095ea7b300000000000000000000000000000000000000000000000000000000",
        "nonce": "0x23",
        "chainId": "0xaa36a7"
      },
      "additionalContracts": [],
      "isFixedGasLimit": false
    },
    {
      "hash": null,
      "transactionType": "CALL",
      "contractName": null,
      "contractAddress": "0x48c56e8ba59ecbb67464dce187320d94c51b3ac0",
      "function": "updateServiceManager(address)",
      "arguments": [
        "0x26B4B172c7F4Ab1aeB4BfDda55deD858fDa455f6"
      ],
      "transaction": {
        "from": "0x1d1967ff22df0354c54dcd81bd295bf13c03024c",
        "to": "0x48c56e8ba59ecbb67464dce187320d94c51b3ac0",
        "gas": "0x99f0",
        "value": "0x0",
        "input": "0x7d847d1b00000000000000000000000026b4b172c7f4ab1aeb4bfdda55ded858fda455f6",
        "nonce": "0x24",
        "chainId": "0xaa36a7"
      },
      "additionalContracts": [],
      "isFixedGasLimit": false
    },
    {
      "hash": null,
      "transactionType": "CALL",
      "contractName": null,
      "contractAddress": "0x299c72f316bc77d6ac8f1e210e94794171f05614",
      "function": "execTransaction(address,uint256,bytes,uint8,uint256,uint256,uint256,address,address,bytes)",
      "arguments": [
        "0x299c72F316Bc77D6AC8F1E210e94794171f05614",
        "0",
        "0xe19a9dd900000000000000000000000048c56e8ba59ecbb67464dce187320d94c51b3ac0",
        "0",
        "0",
        "0",
        "0",
        "0x0000000000000000000000000000000000000000",
        "0x0000000000000000000000000000000000000000",
        "0x599efaa06f7fd41b2fc07f3b3007eb967ccd7d4debea8abdd7c6b145e113451218e74fd39e596d9e50ccc344319f1e84421a187a836a9c352d5e4175480746d31c"
      ],
      "transaction": {
        "from": "0x1d1967ff22df0354c54dcd81bd295bf13c03024c",
        "to": "0x299c72f316bc77d6ac8f1e210e94794171f05614",
        "gas": "0x341df",
        "value": "0x0",
        "input": "0x6a761202000000000000000000000000299c72f316bc77d6ac8f1e210e94794171f056140000000000000000000000000000000000000000000000000000000000000000000000000000000000000000000000000000000000000000000000000000014000000000000000000000000000000000000000000000000000000000000000000000000000000000000000000000000000000000000000000000000000000000000000000000000000000000000000000000000000000000000000000000000000000000000000000000000000000000000000000000000000000000000000000000000000000000000000000000000000000000000000000000000000000000000000000000000000000000000000000000000000000000000000000000000000000000000000000000000000000000000000000000000000000000000001a00000000000000000000000000000000000000000000000000000000000000024e19a9dd900000000000000000000000048c56e8ba59ecbb67464dce187320d94c51b3ac0000000000000000000000000000000000000000000000000000000000000000000000000000000000000000000000000000000000000000000000041599efaa06f7fd41b2fc07f3b3007eb967ccd7d4debea8abdd7c6b145e113451218e74fd39e596d9e50ccc344319f1e84421a187a836a9c352d5e4175480746d31c00000000000000000000000000000000000000000000000000000000000000",
        "nonce": "0x25",
        "chainId": "0xaa36a7"
      },
      "additionalContracts": [],
      "isFixedGasLimit": false
    }
  ],
  "receipts": [],
  "libraries": [],
  "pending": [
    "0xac1a1d5a1b6239eb3fc80d09e01c534f019d233f769488652b50ea285d3c76e6",
    "0xcc77e1a98a8d8d19fa9ce8fe545045e644ba3b9c959ffc174e0f6e3155f26710",
    "0xa52fdb60ca855d5ad1c632465df327c6199257640d815fc3da061134b1f99fcc"
  ],
  "returns": {},
  "timestamp": 1739518310,
  "chain": 11155111,
  "commit": "bd03a28"
}