{
  "transactions": [
    {
      "hash": "0xdcddf4675210e3e11a4033474ae6ddc17a7503d9b08b62bc0dc82388b9e45524",
      "transactionType": "CALL",
      "contractName": null,
      "contractAddress": "0xb3fdf46168f9b7acff2fa24b75b9ff98545c513d",
      "function": "execTransaction(address,uint256,bytes,uint8,uint256,uint256,uint256,address,address,bytes)",
      "arguments": [
        "0x4DD5C6B7e11BE865b18e8Af1FF5CD781E8ED36be",
        "0",
        "0x095ea7b300000000000000000000000092d9b9bb76d75c03fcf8fb4acf577b3c2938160a0000000000000000000000000000000000000000000000008ac7230489e80000",
        "0",
        "0",
        "0",
        "0",
        "0x0000000000000000000000000000000000000000",
        "0x0000000000000000000000000000000000000000",
        "0xff12096f42540d8a4ed57799f8008cf852567c430d8389113f6f6514cf67d2fc6e44fb95102c06548eb457ec54848a5e268a9828b19ff1d0b0f3ae8c1091977d1c"
      ],
      "transaction": {
        "from": "0x1d1967ff22df0354c54dcd81bd295bf13c03024c",
        "to": "0xb3fdf46168f9b7acff2fa24b75b9ff98545c513d",
        "gas": "0x3cc9a",
        "value": "0x0",
        "input": "0x6a7612020000000000000000000000004dd5c6b7e11be865b18e8af1ff5cd781e8ed36be0000000000000000000000000000000000000000000000000000000000000000000000000000000000000000000000000000000000000000000000000000014000000000000000000000000000000000000000000000000000000000000000000000000000000000000000000000000000000000000000000000000000000000000000000000000000000000000000000000000000000000000000000000000000000000000000000000000000000000000000000000000000000000000000000000000000000000000000000000000000000000000000000000000000000000000000000000000000000000000000000000000000000000000000000000000000000000000000000000000000000000000000000000000000000000000001c00000000000000000000000000000000000000000000000000000000000000044095ea7b300000000000000000000000092d9b9bb76d75c03fcf8fb4acf577b3c2938160a0000000000000000000000000000000000000000000000008ac7230489e80000000000000000000000000000000000000000000000000000000000000000000000000000000000000000000000000000000000000000000000000041ff12096f42540d8a4ed57799f8008cf852567c430d8389113f6f6514cf67d2fc6e44fb95102c06548eb457ec54848a5e268a9828b19ff1d0b0f3ae8c1091977d1c00000000000000000000000000000000000000000000000000000000000000",
        "nonce": "0x36",
        "chainId": "0xaa36a7"
      },
      "additionalContracts": [],
      "isFixedGasLimit": false
    }
  ],
  "receipts": [
    {
      "status": "0x1",
      "cumulativeGasUsed": "0x68851d",
      "logs": [
        {
          "address": "0xb3fdf46168f9b7acff2fa24b75b9ff98545c513d",
          "topics": [
            "0x66753cd2356569ee081232e3be8909b950e0a76c1f8460c3a5e3c2be32b11bed"
          ],
          "data": "0x0000000000000000000000004dd5c6b7e11be865b18e8af1ff5cd781e8ed36be0000000000000000000000000000000000000000000000000000000000000000000000000000000000000000000000000000000000000000000000000000016000000000000000000000000000000000000000000000000000000000000000000000000000000000000000000000000000000000000000000000000000000000000000000000000000000000000000000000000000000000000000000000000000000000000000000000000000000000000000000000000000000000000000000000000000000000000000000000000000000000000000000000000000000000000000000000000000000000000000000000000000000000000000000000000000000000000000000000000000000000000000000000000000000000000001e000000000000000000000000000000000000000000000000000000000000002600000000000000000000000000000000000000000000000000000000000000044095ea7b300000000000000000000000092d9b9bb76d75c03fcf8fb4acf577b3c2938160a0000000000000000000000000000000000000000000000008ac7230489e80000000000000000000000000000000000000000000000000000000000000000000000000000000000000000000000000000000000000000000000000041ff12096f42540d8a4ed57799f8008cf852567c430d8389113f6f6514cf67d2fc6e44fb95102c06548eb457ec54848a5e268a9828b19ff1d0b0f3ae8c1091977d1c00000000000000000000000000000000000000000000000000000000000000000000000000000000000000000000000000000000000000000000000000006000000000000000000000000000000000000000000000000000000000000000010000000000000000000000001d1967ff22df0354c54dcd81bd295bf13c03024c0000000000000000000000000000000000000000000000000000000000000001",
          "blockHash": "0xefd629ce784015d0233dc14fd3a7d5067a53f23a3334e33a9e2a61fd3a0e3587",
          "blockNumber": "0x759008",
          "transactionHash": "0xdcddf4675210e3e11a4033474ae6ddc17a7503d9b08b62bc0dc82388b9e45524",
          "transactionIndex": "0x5a",
          "logIndex": "0x70",
          "removed": false
        },
        {
          "address": "0x078c2140d561cb55ad9fef647bace84bcceebb62",
          "topics": [
            "0x2c67655ffdd039f56f8b135f29ff1c3f969985e5882f8b1ff6b68e8aabf120d9",
            "0x0000000000000000000000004dd5c6b7e11be865b18e8af1ff5cd781e8ed36be",
            "0x095ea7b300000000000000000000000000000000000000000000000000000000"
          ],
          "data": "0x",
          "blockHash": "0xefd629ce784015d0233dc14fd3a7d5067a53f23a3334e33a9e2a61fd3a0e3587",
          "blockNumber": "0x759008",
          "transactionHash": "0xdcddf4675210e3e11a4033474ae6ddc17a7503d9b08b62bc0dc82388b9e45524",
          "transactionIndex": "0x5a",
          "logIndex": "0x71",
          "removed": false
        },
        {
          "address": "0x26b4b172c7f4ab1aeb4bfdda55ded858fda455f6",
          "topics": [
            "0xc7c5729a3a219ac5f4fef2721f96005a86d838137d3164361972d3b9aa4589a1",
            "0x0000000000000000000000000000000000000000000000000000000000000000"
          ],
          "data": "0x00000000000000000000000000000000000000000000000000000000000000200000000000000000000000000000000000000000000000000000000000759008000000000000000000000000b3fdf46168f9b7acff2fa24b75b9ff98545c513d0000000000000000000000004dd5c6b7e11be865b18e8af1ff5cd781e8ed36be00000000000000000000000000000000000000000000000000000000000000a0000000000000000000000000000000000000000000000000000000000000000000000000000000000000000000000000000000000000000000000000000000e00000000000000000000000004dd5c6b7e11be865b18e8af1ff5cd781e8ed36be095ea7b30000000000000000000000000000000000000000000000000000000000000000000000000000000000000000000000000000000000000000000000600000000000000000000000000000000000000000000000000000000000000044095ea7b300000000000000000000000092d9b9bb76d75c03fcf8fb4acf577b3c2938160a0000000000000000000000000000000000000000000000008ac7230489e8000000000000000000000000000000000000000000000000000000000000",
          "blockHash": "0xefd629ce784015d0233dc14fd3a7d5067a53f23a3334e33a9e2a61fd3a0e3587",
          "blockNumber": "0x759008",
          "transactionHash": "0xdcddf4675210e3e11a4033474ae6ddc17a7503d9b08b62bc0dc82388b9e45524",
          "transactionIndex": "0x5a",
          "logIndex": "0x72",
          "removed": false
        },
        {
          "address": "0x4dd5c6b7e11be865b18e8af1ff5cd781e8ed36be",
          "topics": [
            "0x8c5be1e5ebec7d5bd14f71427d1e84f3dd0314c0f7b2291e5b200ac8c7c3b925",
            "0x000000000000000000000000b3fdf46168f9b7acff2fa24b75b9ff98545c513d",
            "0x00000000000000000000000092d9b9bb76d75c03fcf8fb4acf577b3c2938160a"
          ],
          "data": "0x0000000000000000000000000000000000000000000000008ac7230489e80000",
          "blockHash": "0xefd629ce784015d0233dc14fd3a7d5067a53f23a3334e33a9e2a61fd3a0e3587",
          "blockNumber": "0x759008",
          "transactionHash": "0xdcddf4675210e3e11a4033474ae6ddc17a7503d9b08b62bc0dc82388b9e45524",
          "transactionIndex": "0x5a",
          "logIndex": "0x73",
          "removed": false
        },
        {
          "address": "0xb3fdf46168f9b7acff2fa24b75b9ff98545c513d",
          "topics": [
            "0x442e715f626346e8c54381002da614f62bee8d27386535b2521ec8540898556e",
            "0x207fea51241647b5898cdbcec627291400fa18df1369312f4ad04a51095b42fe"
          ],
          "data": "0x0000000000000000000000000000000000000000000000000000000000000000",
          "blockHash": "0xefd629ce784015d0233dc14fd3a7d5067a53f23a3334e33a9e2a61fd3a0e3587",
          "blockNumber": "0x759008",
          "transactionHash": "0xdcddf4675210e3e11a4033474ae6ddc17a7503d9b08b62bc0dc82388b9e45524",
          "transactionIndex": "0x5a",
          "logIndex": "0x74",
          "removed": false
        }
      ],
      "logsBloom": "0x00000000400000000000200000000000000400000000000000000000040000000220000000000000000000000400000000100000008100000028000000200000000000080000000010000000000000000008840000000000000000000001000000000200020010800000000000000800000400000000020000000000000000000000000000000000400002000000000010000800000000000000000000000000020000000c0000000000000000000400000800000000000000000000000000000000000800000a000000000000020000200000000000000000000000000020000010000000000020000000000000000000000000040000000008000000000000",
      "type": "0x2",
      "transactionHash": "0xdcddf4675210e3e11a4033474ae6ddc17a7503d9b08b62bc0dc82388b9e45524",
      "transactionIndex": "0x5a",
      "blockHash": "0xefd629ce784015d0233dc14fd3a7d5067a53f23a3334e33a9e2a61fd3a0e3587",
      "blockNumber": "0x759008",
      "gasUsed": "0x2c026",
      "effectiveGasPrice": "0x424320cba",
      "from": "0x1d1967ff22df0354c54dcd81bd295bf13c03024c",
      "to": "0xb3fdf46168f9b7acff2fa24b75b9ff98545c513d",
      "contractAddress": null
    }
  ],
  "libraries": [],
  "pending": [],
  "returns": {},
  "timestamp": 1739519884,
  "chain": 11155111,
  "commit": "bd03a28"
}