{
  "transactions": [
    {
      "hash": "0x439e5c07e42f7c543caa94b7807458421ea14de93040248dff3c716a3feb6add",
      "transactionType": "CALL",
      "contractName": null,
      "contractAddress": "0xb3fdf46168f9b7acff2fa24b75b9ff98545c513d",
      "function": "execTransaction(address,uint256,bytes,uint8,uint256,uint256,uint256,address,address,bytes)",
      "arguments": [
        "0x4DD5C6B7e11BE865b18e8Af1FF5CD781E8ED36be",
        "0",
        "0x095ea7b300000000000000000000000092d9b9bb76d75c03fcf8fb4acf577b3c2938160a0000000000000000000000000000000000000000000000008ac7230489e80000",
        "0",
        "0",
        "0",
        "0",
        "0x0000000000000000000000000000000000000000",
        "0x0000000000000000000000000000000000000000",
        "0x6fe7a8ff768e3109d0c8bc485ec5b39172f246df742696d8a627df67d72f4bab420b08fde401b11d9b650a56c563742c609c01208db071153277fbba30f1c2f81b"
      ],
      "transaction": {
        "from": "0x1d1967ff22df0354c54dcd81bd295bf13c03024c",
        "to": "0xb3fdf46168f9b7acff2fa24b75b9ff98545c513d",
        "gas": "0x299a9",
        "value": "0x0",
        "input": "0x6a7612020000000000000000000000004dd5c6b7e11be865b18e8af1ff5cd781e8ed36be0000000000000000000000000000000000000000000000000000000000000000000000000000000000000000000000000000000000000000000000000000014000000000000000000000000000000000000000000000000000000000000000000000000000000000000000000000000000000000000000000000000000000000000000000000000000000000000000000000000000000000000000000000000000000000000000000000000000000000000000000000000000000000000000000000000000000000000000000000000000000000000000000000000000000000000000000000000000000000000000000000000000000000000000000000000000000000000000000000000000000000000000000000000000000000000001c00000000000000000000000000000000000000000000000000000000000000044095ea7b300000000000000000000000092d9b9bb76d75c03fcf8fb4acf577b3c2938160a0000000000000000000000000000000000000000000000008ac7230489e800000000000000000000000000000000000000000000000000000000000000000000000000000000000000000000000000000000000000000000000000416fe7a8ff768e3109d0c8bc485ec5b39172f246df742696d8a627df67d72f4bab420b08fde401b11d9b650a56c563742c609c01208db071153277fbba30f1c2f81b00000000000000000000000000000000000000000000000000000000000000",
        "nonce": "0x37",
        "chainId": "0xaa36a7"
      },
      "additionalContracts": [],
      "isFixedGasLimit": false
    }
  ],
  "receipts": [
    {
      "status": "0x1",
      "cumulativeGasUsed": "0xbe0ece",
      "logs": [
        {
          "address": "0xb3fdf46168f9b7acff2fa24b75b9ff98545c513d",
          "topics": [
            "0x66753cd2356569ee081232e3be8909b950e0a76c1f8460c3a5e3c2be32b11bed"
          ],
          "data": "0x0000000000000000000000004dd5c6b7e11be865b18e8af1ff5cd781e8ed36be0000000000000000000000000000000000000000000000000000000000000000000000000000000000000000000000000000000000000000000000000000016000000000000000000000000000000000000000000000000000000000000000000000000000000000000000000000000000000000000000000000000000000000000000000000000000000000000000000000000000000000000000000000000000000000000000000000000000000000000000000000000000000000000000000000000000000000000000000000000000000000000000000000000000000000000000000000000000000000000000000000000000000000000000000000000000000000000000000000000000000000000000000000000000000000000001e000000000000000000000000000000000000000000000000000000000000002600000000000000000000000000000000000000000000000000000000000000044095ea7b300000000000000000000000092d9b9bb76d75c03fcf8fb4acf577b3c2938160a0000000000000000000000000000000000000000000000008ac7230489e800000000000000000000000000000000000000000000000000000000000000000000000000000000000000000000000000000000000000000000000000416fe7a8ff768e3109d0c8bc485ec5b39172f246df742696d8a627df67d72f4bab420b08fde401b11d9b650a56c563742c609c01208db071153277fbba30f1c2f81b00000000000000000000000000000000000000000000000000000000000000000000000000000000000000000000000000000000000000000000000000006000000000000000000000000000000000000000000000000000000000000000020000000000000000000000001d1967ff22df0354c54dcd81bd295bf13c03024c0000000000000000000000000000000000000000000000000000000000000001",
          "blockHash": "0x578b52781f99cde5c35652517fd3fcb87d8e17c5b8d37015d15ed6ba45ff910a",
          "blockNumber": "0x759048",
          "transactionHash": "0x439e5c07e42f7c543caa94b7807458421ea14de93040248dff3c716a3feb6add",
          "transactionIndex": "0x7f",
          "logIndex": "0xf8",
          "removed": false
        },
        {
          "address": "0x078c2140d561cb55ad9fef647bace84bcceebb62",
          "topics": [
            "0x2c67655ffdd039f56f8b135f29ff1c3f969985e5882f8b1ff6b68e8aabf120d9",
            "0x0000000000000000000000004dd5c6b7e11be865b18e8af1ff5cd781e8ed36be",
            "0x095ea7b300000000000000000000000000000000000000000000000000000000"
          ],
          "data": "0x",
          "blockHash": "0x578b52781f99cde5c35652517fd3fcb87d8e17c5b8d37015d15ed6ba45ff910a",
          "blockNumber": "0x759048",
          "transactionHash": "0x439e5c07e42f7c543caa94b7807458421ea14de93040248dff3c716a3feb6add",
          "transactionIndex": "0x7f",
          "logIndex": "0xf9",
          "removed": false
        },
        {
          "address": "0x26b4b172c7f4ab1aeb4bfdda55ded858fda455f6",
          "topics": [
            "0xc7c5729a3a219ac5f4fef2721f96005a86d838137d3164361972d3b9aa4589a1",
            "0x0000000000000000000000000000000000000000000000000000000000000001"
          ],
          "data": "0x00000000000000000000000000000000000000000000000000000000000000200000000000000000000000000000000000000000000000000000000000759048000000000000000000000000b3fdf46168f9b7acff2fa24b75b9ff98545c513d0000000000000000000000004dd5c6b7e11be865b18e8af1ff5cd781e8ed36be00000000000000000000000000000000000000000000000000000000000000a0000000000000000000000000000000000000000000000000000000000000000000000000000000000000000000000000000000000000000000000000000000e00000000000000000000000004dd5c6b7e11be865b18e8af1ff5cd781e8ed36be095ea7b30000000000000000000000000000000000000000000000000000000000000000000000000000000000000000000000000000000000000000000000600000000000000000000000000000000000000000000000000000000000000044095ea7b300000000000000000000000092d9b9bb76d75c03fcf8fb4acf577b3c2938160a0000000000000000000000000000000000000000000000008ac7230489e8000000000000000000000000000000000000000000000000000000000000",
          "blockHash": "0x578b52781f99cde5c35652517fd3fcb87d8e17c5b8d37015d15ed6ba45ff910a",
          "blockNumber": "0x759048",
          "transactionHash": "0x439e5c07e42f7c543caa94b7807458421ea14de93040248dff3c716a3feb6add",
          "transactionIndex": "0x7f",
          "logIndex": "0xfa",
          "removed": false
        },
        {
          "address": "0x4dd5c6b7e11be865b18e8af1ff5cd781e8ed36be",
          "topics": [
            "0x8c5be1e5ebec7d5bd14f71427d1e84f3dd0314c0f7b2291e5b200ac8c7c3b925",
            "0x000000000000000000000000b3fdf46168f9b7acff2fa24b75b9ff98545c513d",
            "0x00000000000000000000000092d9b9bb76d75c03fcf8fb4acf577b3c2938160a"
          ],
          "data": "0x0000000000000000000000000000000000000000000000008ac7230489e80000",
          "blockHash": "0x578b52781f99cde5c35652517fd3fcb87d8e17c5b8d37015d15ed6ba45ff910a",
          "blockNumber": "0x759048",
          "transactionHash": "0x439e5c07e42f7c543caa94b7807458421ea14de93040248dff3c716a3feb6add",
          "transactionIndex": "0x7f",
          "logIndex": "0xfb",
          "removed": false
        },
        {
          "address": "0xb3fdf46168f9b7acff2fa24b75b9ff98545c513d",
          "topics": [
            "0x442e715f626346e8c54381002da614f62bee8d27386535b2521ec8540898556e",
            "0x94d951742eea5c3289da36495ef825a04a4e7bdc03ac38341ad4be9ea3c2b499"
          ],
          "data": "0x0000000000000000000000000000000000000000000000000000000000000000",
          "blockHash": "0x578b52781f99cde5c35652517fd3fcb87d8e17c5b8d37015d15ed6ba45ff910a",
          "blockNumber": "0x759048",
          "transactionHash": "0x439e5c07e42f7c543caa94b7807458421ea14de93040248dff3c716a3feb6add",
          "transactionIndex": "0x7f",
          "logIndex": "0xfc",
          "removed": false
        }
      ],
      "logsBloom": "0x00000000400000000000200000000000000400000000000000000000040000000220000000000000000000000400000000000000008100000028000000240000000000080000000010000000000000000000840000040000000000000001000000000200000010800000000000000000000400000000020000000000000002000000000000000000000002000000000010000800000400000000000000000000020000000c0000000000000000000400000800000000000000000000000000000000000800000a000000000000020000200000000000000000000000000040000010000000000020000000000000000000000000040000000008000000000000",
      "type": "0x2",
      "transactionHash": "0x439e5c07e42f7c543caa94b7807458421ea14de93040248dff3c716a3feb6add",
      "transactionIndex": "0x7f",
      "blockHash": "0x578b52781f99cde5c35652517fd3fcb87d8e17c5b8d37015d15ed6ba45ff910a",
      "blockNumber": "0x759048",
      "gasUsed": "0x1e1ee",
      "effectiveGasPrice": "0x3cdd8ce67",
      "from": "0x1d1967ff22df0354c54dcd81bd295bf13c03024c",
      "to": "0xb3fdf46168f9b7acff2fa24b75b9ff98545c513d",
      "contractAddress": null
    }
  ],
  "libraries": [],
  "pending": [],
  "returns": {},
  "timestamp": 1739520653,
  "chain": 11155111,
  "commit": "bd03a28"
}