{
  "transactions": [
    {
      "hash": "0xef68d704292fb4e07a72788bcd5ffbdbf072a1b3079058c23bf39cee88f67f86",
      "transactionType": "CALL",
      "contractName": null,
      "contractAddress": "0xb3fdf46168f9b7acff2fa24b75b9ff98545c513d",
      "function": "execTransaction(address,uint256,bytes,uint8,uint256,uint256,uint256,address,address,bytes)",
      "arguments": [
        "0x4DD5C6B7e11BE865b18e8Af1FF5CD781E8ED36be",
        "0",
        "0x095ea7b300000000000000000000000092d9b9bb76d75c03fcf8fb4acf577b3c2938160a0000000000000000000000000000000000000000000000008ac7230489e80000",
        "0",
        "0",
        "0",
        "0",
        "0x0000000000000000000000000000000000000000",
        "0x0000000000000000000000000000000000000000",
        "0x91820c58738df520b62cd5c0535dd5e097a3ef91f94a2303eb3837be1867c0035f03c96298f3269ccbf24b284fb3480341d77e60039f0a3efb1fafb7280e5f4d1c"
      ],
      "transaction": {
        "from": "0x1d1967ff22df0354c54dcd81bd295bf13c03024c",
        "to": "0xb3fdf46168f9b7acff2fa24b75b9ff98545c513d",
        "gas": "0x299a9",
        "value": "0x0",
        "input": "0x6a7612020000000000000000000000004dd5c6b7e11be865b18e8af1ff5cd781e8ed36be0000000000000000000000000000000000000000000000000000000000000000000000000000000000000000000000000000000000000000000000000000014000000000000000000000000000000000000000000000000000000000000000000000000000000000000000000000000000000000000000000000000000000000000000000000000000000000000000000000000000000000000000000000000000000000000000000000000000000000000000000000000000000000000000000000000000000000000000000000000000000000000000000000000000000000000000000000000000000000000000000000000000000000000000000000000000000000000000000000000000000000000000000000000000000000000001c00000000000000000000000000000000000000000000000000000000000000044095ea7b300000000000000000000000092d9b9bb76d75c03fcf8fb4acf577b3c2938160a0000000000000000000000000000000000000000000000008ac7230489e8000000000000000000000000000000000000000000000000000000000000000000000000000000000000000000000000000000000000000000000000004191820c58738df520b62cd5c0535dd5e097a3ef91f94a2303eb3837be1867c0035f03c96298f3269ccbf24b284fb3480341d77e60039f0a3efb1fafb7280e5f4d1c00000000000000000000000000000000000000000000000000000000000000",
        "nonce": "0x38",
        "chainId": "0xaa36a7"
      },
      "additionalContracts": [],
      "isFixedGasLimit": false
    }
  ],
  "receipts": [
    {
      "status": "0x1",
      "cumulativeGasUsed": "0xf7949e",
      "logs": [
        {
          "address": "0xb3fdf46168f9b7acff2fa24b75b9ff98545c513d",
          "topics": [
            "0x66753cd2356569ee081232e3be8909b950e0a76c1f8460c3a5e3c2be32b11bed"
          ],
          "data": "0x0000000000000000000000004dd5c6b7e11be865b18e8af1ff5cd781e8ed36be0000000000000000000000000000000000000000000000000000000000000000000000000000000000000000000000000000000000000000000000000000016000000000000000000000000000000000000000000000000000000000000000000000000000000000000000000000000000000000000000000000000000000000000000000000000000000000000000000000000000000000000000000000000000000000000000000000000000000000000000000000000000000000000000000000000000000000000000000000000000000000000000000000000000000000000000000000000000000000000000000000000000000000000000000000000000000000000000000000000000000000000000000000000000000000000001e000000000000000000000000000000000000000000000000000000000000002600000000000000000000000000000000000000000000000000000000000000044095ea7b300000000000000000000000092d9b9bb76d75c03fcf8fb4acf577b3c2938160a0000000000000000000000000000000000000000000000008ac7230489e8000000000000000000000000000000000000000000000000000000000000000000000000000000000000000000000000000000000000000000000000004191820c58738df520b62cd5c0535dd5e097a3ef91f94a2303eb3837be1867c0035f03c96298f3269ccbf24b284fb3480341d77e60039f0a3efb1fafb7280e5f4d1c00000000000000000000000000000000000000000000000000000000000000000000000000000000000000000000000000000000000000000000000000006000000000000000000000000000000000000000000000000000000000000000030000000000000000000000001d1967ff22df0354c54dcd81bd295bf13c03024c0000000000000000000000000000000000000000000000000000000000000001",
          "blockHash": "0x500aa3dbb75fd5877ad17b603fb48fb03d232f299d5de3e1468dfab35e93fe94",
          "blockNumber": "0x759078",
          "transactionHash": "0xef68d704292fb4e07a72788bcd5ffbdbf072a1b3079058c23bf39cee88f67f86",
          "transactionIndex": "0x9d",
          "logIndex": "0x327",
          "removed": false
        },
        {
          "address": "0x078c2140d561cb55ad9fef647bace84bcceebb62",
          "topics": [
            "0x2c67655ffdd039f56f8b135f29ff1c3f969985e5882f8b1ff6b68e8aabf120d9",
            "0x0000000000000000000000004dd5c6b7e11be865b18e8af1ff5cd781e8ed36be",
            "0x095ea7b300000000000000000000000000000000000000000000000000000000"
          ],
          "data": "0x",
          "blockHash": "0x500aa3dbb75fd5877ad17b603fb48fb03d232f299d5de3e1468dfab35e93fe94",
          "blockNumber": "0x759078",
          "transactionHash": "0xef68d704292fb4e07a72788bcd5ffbdbf072a1b3079058c23bf39cee88f67f86",
          "transactionIndex": "0x9d",
          "logIndex": "0x328",
          "removed": false
        },
        {
          "address": "0x26b4b172c7f4ab1aeb4bfdda55ded858fda455f6",
          "topics": [
            "0xc7c5729a3a219ac5f4fef2721f96005a86d838137d3164361972d3b9aa4589a1",
            "0x0000000000000000000000000000000000000000000000000000000000000002"
          ],
          "data": "0x00000000000000000000000000000000000000000000000000000000000000200000000000000000000000000000000000000000000000000000000000759078000000000000000000000000b3fdf46168f9b7acff2fa24b75b9ff98545c513d0000000000000000000000004dd5c6b7e11be865b18e8af1ff5cd781e8ed36be00000000000000000000000000000000000000000000000000000000000000a0000000000000000000000000000000000000000000000000000000000000000000000000000000000000000000000000000000000000000000000000000000e00000000000000000000000004dd5c6b7e11be865b18e8af1ff5cd781e8ed36be095ea7b30000000000000000000000000000000000000000000000000000000000000000000000000000000000000000000000000000000000000000000000600000000000000000000000000000000000000000000000000000000000000044095ea7b300000000000000000000000092d9b9bb76d75c03fcf8fb4acf577b3c2938160a0000000000000000000000000000000000000000000000008ac7230489e8000000000000000000000000000000000000000000000000000000000000",
          "blockHash": "0x500aa3dbb75fd5877ad17b603fb48fb03d232f299d5de3e1468dfab35e93fe94",
          "blockNumber": "0x759078",
          "transactionHash": "0xef68d704292fb4e07a72788bcd5ffbdbf072a1b3079058c23bf39cee88f67f86",
          "transactionIndex": "0x9d",
          "logIndex": "0x329",
          "removed": false
        },
        {
          "address": "0x4dd5c6b7e11be865b18e8af1ff5cd781e8ed36be",
          "topics": [
            "0x8c5be1e5ebec7d5bd14f71427d1e84f3dd0314c0f7b2291e5b200ac8c7c3b925",
            "0x000000000000000000000000b3fdf46168f9b7acff2fa24b75b9ff98545c513d",
            "0x00000000000000000000000092d9b9bb76d75c03fcf8fb4acf577b3c2938160a"
          ],
          "data": "0x0000000000000000000000000000000000000000000000008ac7230489e80000",
          "blockHash": "0x500aa3dbb75fd5877ad17b603fb48fb03d232f299d5de3e1468dfab35e93fe94",
          "blockNumber": "0x759078",
          "transactionHash": "0xef68d704292fb4e07a72788bcd5ffbdbf072a1b3079058c23bf39cee88f67f86",
          "transactionIndex": "0x9d",
          "logIndex": "0x32a",
          "removed": false
        },
        {
          "address": "0xb3fdf46168f9b7acff2fa24b75b9ff98545c513d",
          "topics": [
            "0x442e715f626346e8c54381002da614f62bee8d27386535b2521ec8540898556e",
            "0xc79c393a0ccf642573890e8bd3dbbe32bbaae86059419bb89eab450ca5a0df73"
          ],
          "data": "0x0000000000000000000000000000000000000000000000000000000000000000",
          "blockHash": "0x500aa3dbb75fd5877ad17b603fb48fb03d232f299d5de3e1468dfab35e93fe94",
          "blockNumber": "0x759078",
          "transactionHash": "0xef68d704292fb4e07a72788bcd5ffbdbf072a1b3079058c23bf39cee88f67f86",
          "transactionIndex": "0x9d",
          "logIndex": "0x32b",
          "removed": false
        }
      ],
      "logsBloom": "0x04000000400000000000200000000000000400000000000000000000040000000220000000000000000000000400000000000000008100000028000000200000000000080000000010000000000000000000840000000000000000000001000000000200000010800000000000000000000400000000020000000000000000000000000000000000000002000000000010000800000000000000000000000000020000000c0000000000010000000400000800000000000000000000000000000000000800000a000000000000020000200000000002000000000000000000000010000800000420000000000000000000000000048000000008000000000000",
      "type": "0x2",
      "transactionHash": "0xef68d704292fb4e07a72788bcd5ffbdbf072a1b3079058c23bf39cee88f67f86",
      "transactionIndex": "0x9d",
      "blockHash": "0x500aa3dbb75fd5877ad17b603fb48fb03d232f299d5de3e1468dfab35e93fe94",
      "blockNumber": "0x759078",
      "gasUsed": "0x1e1ee",
      "effectiveGasPrice": "0x3b4b65752",
      "from": "0x1d1967ff22df0354c54dcd81bd295bf13c03024c",
      "to": "0xb3fdf46168f9b7acff2fa24b75b9ff98545c513d",
      "contractAddress": null
    }
  ],
  "libraries": [],
  "pending": [],
  "returns": {},
  "timestamp": 1739521249,
  "chain": 11155111,
  "commit": "bd03a28"
}